:020000040800F2
:10000000680E0020E9160008892000088D200008ED
:1000100091200008952000089920000800000000A9
:100020000000000000000000000000009D2000080B
:10003000A120000800000000A5200008A920000859
:10004000E5160008E5160008E5160008E5160008A4
:10005000E5160008E5160008E5160008E516000894
:10006000E5160008E5160008E5160008E516000884
:10007000E5160008E5160008E5160008E516000874
:10008000E5160008E5160008E5160008AD20000892
:10009000B1200008E5160008E5160008E51600087E
:1000A000E5160008E5160008E5160008E516000844
:1000B000E5160008E5160008E5160008E516000834
:1000C000E5160008E5160008E5160008E516000824
:1000D000E5160008E5160008E5160008E516000814
:1000E000E5160008E5160008E51600080000000007
:1000F0000000000000000000000000000000000000
:1001000000000000000000005FF808F108B51021B1
:10011000012001F011F8BDE808404FF480510220A1
:1001200001F024B8F8B55B4B1E8846B15A4B5B4AC8
:10013000981913F8011F834202F8011FF9D1584C96
:10014000584D6268A3681F2E6A60AB6040F0B880AB
:10015000E77B07F0FD03282B7ED0534B2268504EDF
:100160009A4213D0FFF7D2FF707B2022052101F0C5
:1001700095F94E4C4B4901230D2281202B732C60A5
:1001800001F0CCFE4A4B05221A70F8BD494B707B3A
:100190001B68984278D8B37B013B0F2B74D8AF2FE4
:1001A00000F2D880DFE807F0CAD6D6C6C2D6D6D6C7
:1001B0009AD69AD6D6D6D6D6D6D6BAD6D69AD6D6AF
:1001C000D6D6B29ED69A9ED6D6D6D6D2D6CED6D6AB
:1001D000A2D6AAD6D6D6D6B6D6D6D6D6D6D6D6D63F
:1001E000D6D6D6D6D6D6D6D6D6D6D6D6D6D6D6D6AF
:1001F000D6D6D6D6D6D6D6D6D6D6D6D6D69AD6D6DB
:10020000D6D6BED6D6D6D6D6D6D6D6D6D6D6D6D6A6
:10021000D6D6D6D6D6D6D6D6D6D6D6D6D6D6D6D67E
:10022000D6D6D6D6D6D6D6D6D6D6D6D6D6D6D6D66E
:100230009AD69AD6D6D6D69AD6D6D6D6D6D6D6D612
:10024000D6D6D6D6D6D69AD6D6D6D6D6D6D6D6D68A
:100250009AD69AD6D6D6D69AA37C607C1A04217DEB
:10026000E38A42EA0062E67C0A4313485BBA134918
:1002700042EA06229BB202600B6022680A4B084EDB
:100280009A427FF46FAF81E7FFF740FF607B242243
:100290006CE700BFB0010020CB0100208F010020DF
:1002A00090010020B801002055534243555342535A
:1002B000B20100205C010020B4010020C801002030
:1002C000FFF724FF0023607B1A220521236001F041
:1002D000E5F8224C012329460D224EE7BDE8F840FF
:1002E00001F038B9BDE8F84001F0DEB81C4B1D4AFA
:1002F00019681268BDE8F84001F082B9184B194A34
:1003000019681268BDE8F84001F0B6B9BDE8F840D8
:1003100001F0ACB8BDE8F84001F0CAB8BDE8F8405B
:1003200001F014B8BDE8F84001F0A6B8BDE8F84007
:1003300001F0FAB8BDE8F84001F0A4B8BDE8F84013
:1003400001F0D8B8BDE8F84001F056B8BDE8F84073
:1003500001F01CB8FFF7DAFE607B06E75553425305
:10036000B4010020C801002070B51B4C1B490220BD
:10037000E67B01F0E7FD1A4D1A4A2B781080EBB1AD
:10038000012B07D12A2E1DD04FF48051022000F0FE
:10039000EDFE01E0FFF7BAFE607B2422052101F0AB
:1003A0007DF8114B114E194602240D2281201E604A
:1003B0001C7301F0B3FD05232B7070BDBDE87040C8
:1003C000FFF7B0BE0A4A0B4B607B12681968BDE8A4
:1003D000704001F051B900BF90010020CC01002015
:1003E000B2010020B0010020B80100205553425353
:1003F000C8010020B401002038B50C460146224651
:10040000812001F08BFD3021012000F095FE054B8D
:10041000054A996800250320091B1D731070996017
:1004200038BD00BFB8010020B201002038B50C462D
:100430000A4B0B4D187319460D2281201D6001F0E7
:100440006DFD084B14B905221A7038BD04221A70CC
:1004500030210120BDE8384000F06EBEB801002018
:1004600055534253B201002008B5154A1378023B98
:10047000032B1BD8DFE803F0160B020200231370D6
:100480004FF440510220BDE8084000F06FBE01214A
:100490000020FFF7CBFFBDE808404FF44051022099
:1004A00000F064BE074BDA7B282A00D008BD064A5C
:1004B0000649587B12680968BDE8084001F0A0B8F9
:1004C000B201002090010020C8010020B4010020EA
:1004D000012809D004D3022801D1FFF717BE7047C5
:1004E0001021012000F028BE4FF48051022000F0BE
:1004F0003DBE00BF08B538B1064B1B681B68984766
:10050000054B18680A3008BD034B01221B681A828C
:1005100008BD00BF5C0A0020600A002008B538B1A1
:10052000064B1B689B689847054B18680C3008BD44
:10053000034B01221B681A8208BD00BF5C0A002021
:10054000600A002008B51F4B002832D01E481A68E8
:1005500000210180137813F07F0316D0012B27D0E0
:10056000022B24D1527902F00F039B0003F1804348
:1005700003F5B84312061B681FD403F44053B3F5C8
:10058000805F0ED1012303700BE0527A930654BFB3
:100590000378022351064CBF43F0010323F001030B
:1005A00003700A4B1B681B699847074808BD08463B
:1005B00008BD1B6802221A8208BD03F03003102B0D
:1005C000EFD1DFE7600A00200C0200205C0A002067
:1005D0002DE9F041244F3C68258A2DB9267A042E56
:1005E0002AD0A38A042603E0A38A9D42FAD90226D0
:1005F0009D4228BF1D46A369284698478046002093
:1006000000F07AFE2A460146404601F097FD294651
:10061000002000F00FFE638A228A1449521B1D44F9
:10062000134B2282658230204FF440523C68088090
:100630001A802672BDE8F0810E4B1A78012A06D086
:100640000A4B0726102226721A80BDE8F0810A495B
:100650000A4A0968054889B20A44520030211560E7
:100660001D700180E5E700BF600A00201002002035
:100670000E02002058010020505C00400230002093
:100680000B4B0C4A1B685178DA78914201D2022058
:10069000704799780029FAD110B59C880CB10220D6
:1006A00010BD05499A720B685B689847204610BDDB
:1006B000600A0020A80000205C0A002038B5104A1B
:1006C000104C12682368D978587993699847236841
:1006D0009A7A0AB9022038BD0028FBD11A79002A7B
:1006E000F8D19D78002DF5D1074B1B68DB68984742
:1006F000236828465979DA78D9721A7338BD00BF51
:10070000380A0020600A00205C0A002038B5314B0E
:100710001B68187810F07F0003D0022806D0022052
:1007200038BD5A7A22F020025A7238BD5A88002AFF
:10073000F6D11A79002AF3D15A7922F08000840088
:10074000150604F18041244D01F5B84109682D7862
:100750004CBF01F0300101F44051A842DFD2002922
:10076000DDD09B7A002BDAD004F1804404F5B84444
:100770001206236809D503F03003102B1ED0174B47
:100780001B685B699847002038BD03F44053B3F5FC
:10079000805FF4D1D8B9124B93F82C1000F058FDBB
:1007A000236823F4804323F070039BB283F4405307
:1007B00043F4004343F080032360E0E7C4B22046E3
:1007C00000F026FD2046302100F0B6FCD7E700F00F
:1007D0000DFDE5E7600A0020A80000205C0A00206B
:1007E0001C00002038B5224B1868427922F08001A5
:1007F0008C00150604F180431E4D03F5B8431B68B9
:100800002D784CBF03F0300303F44053A94201D3C9
:10081000022038BD41880029FAD1002BF8D0837A14
:10082000002BF5D004F1804404F5B8441206236887
:1008300011D523F4E04323F040039BB283F010036F
:1008400043F4004343F0800323600B4B1B689B6918
:100850009847002038BD23F4804323F070039BB2F7
:1008600083F4805343F4004343F080032360ECE7B8
:10087000600A0020A80000205C0A0020054B1B68CD
:100880005A8A10B108681044704789888A1A1A82F7
:10089000704700BF600A002010B50C4B002093F891
:1008A0002C1000F0D5FC0A4B1B68187A082806D1DA
:1008B0000849094B4FF4805410220C801A80A0F193
:1008C0000900B0FA80F0400910BD00BF1C000020F4
:1008D000600A00200E0200201002002070B5A84E11
:1008E000A84B34681A68237A82B0092B3AD0A64BF9
:1008F00092B213445B001D886D0005F1804505F53B
:10090000C0452B7823706B786370A88800F018FDC1
:1009100060802889346800F013FDA080AB893468BA
:100920000122E380227213B3607806287DD000286C
:1009300039D16188002900F09180944D2B681B69A2
:100940009847032800F0E1804FF6FF723468238A4D
:1009500093427DD0022836D108232372FFF79CFFF3
:1009600002B070BDE38801222272002BDCD1237813
:10097000657813F07F0332D0012B00F0B980022B91
:1009800000F0DC80814B28461B685B699847032890
:1009900000F01181346800283AD008232372FFF751
:1009A0007BFF02B070BD08286AD123785B06C4D1F2
:1009B000774B0020A361608298474FF6FF7234683E
:1009C000238A934244D0002BC6D094F90020002AF9
:1009D00079DB704A4FF4405103231180DEE7092D83
:1009E00000F0CA80052D00F09780032D00F0AF8045
:1009F000012DC7D1E378012BC4D1A388002BC1D12D
:100A0000637A9B06BED5FFF781FE0028BAD1346811
:100A10005C4A614B1268614992B213445B0000204A
:100A20003022186006230A80B8E723785D0684D157
:100A3000A378564D012B00F0BB80022B69D0032B0D
:100A40007FF47CAF2B685B6A002BB2D1062075E780
:100A500009232372FFF720FF02B070BD636823F4FF
:100A60007F43B3F5003F7FF468AF207810F07F003C
:100A700040F0A480A388002B7FF45FAF484B98E739
:100A80000A287FF45AAF237803F07F03012B7FF409
:100A900054AFA37A002B3FF450AF618800297FF454
:100AA0004CAF6368394D23F47F43B3F5803F7FF447
:100AB00045AF2B6860799B699847002840F0BD805E
:100AC0003468384B75E7E288019201998B4215D85A
:100AD00093427AD22D4A126892F82C108AB293422D
:100AE00078D2314B00211970A282FFF771FD56E7D1
:100AF0000B2D7FF447AFFFF7E1FD86E7234B019A0B
:100B00001B68228293F82C20EEE7336809221A72C0
:100B100045E72B681B6A97E794F90330002BFFF633
:100B20003CAFA378002B7FF438AFA388002B7FF471
:100B300034AFA37A002B3FF46BAF2EE7012D3FF4C7
:100B400062AF032D7FF41EAFFFF74CFE5DE7E37845
:100B5000012B7FF417AFA388002B7FF413AF637AC8
:100B60009A067FF50FAF114A43F0200312686372B3
:100B7000D369984734684BE7FFF782FD45E700BF2C
:100B8000600A0020505C004004300020380A002039
:100B9000F50400080E0200200230002010020020A0
:100BA000450500081D050008580100205C0A0020CA
:100BB0002B68DB6948E734680923EFE601282FD06A
:100BC000022811D008461E4DB8E61D4B1B6893F84D
:100BD0002C2089E793FBF1F001FB1033002B83D12C
:100BE000184B012119707FE7607900F00F02930024
:100BF000010603F18043144903F5B8431B680978E3
:100C00004CBF03F0300303F440538A4206D210F085
:100C1000700003D1002B7FF431AF8EE600208CE60C
:100C2000074D60792B689B69984730B93468A37A7F
:100C3000002B7FF423AF607880E6336858787DE638
:100C4000380A002058010020A8000020F8B5304DD7
:100C50002C68237A022B07D0042B05D0032B09D054
:100C6000052B07D0072B32D008232372BDE8F840AC
:100C7000FFF712BEA369228AB3B1B2B1A68A964227
:100C800028BF164630469847228A638A921B33440F
:100C9000074622826382002000F03EFB3246014676
:100CA000384601F05FFA228AC2B9A38A2BB31949E8
:100CB0002C680622184B22721A68184B92B2134401
:100CC0005B0000221A603022237A0A80CDE7144BA1
:100CD0001B68DB6898472C680823C6E7114B002186
:100CE0004FF4405208461A8000F0A4FA238AA28AE0
:100CF000084930209A42088003D82C6803232372C5
:100D0000B3E7002BD4D02C6805232372ADE700BFD6
:100D1000600A002010020020505C004002300020D9
:100D2000380A00200E020020F8B5234C23681A7AF6
:100D3000022A17D0042A15D0062A05D008221A72D2
:100D4000BDE8F840FFF7A8BD5A78052A13D01B4B21
:100D50001B689B689847236808221A72BDE8F84010
:100D6000FFF79ABDFFF734FC23681A7A1A72BDE8C0
:100D7000F840FFF791BD1A7812F07F02E7D11049D1
:100D8000DF780E7876B10F4840F60F71056842F4AF
:100D90000043294043F0800301320B43964240F860
:100DA000043BF1D1084B094A1B6847F080071760E4
:100DB0001B6A9847CBE700BF600A0020380A002072
:100DC000A8000020005C00405C0A00204C5C004051
:100DD00070B40C4B1E787EB10B4C002240F60F71A4
:100DE000256842F40043294043F0800301320B435D
:100DF000964244F8043BF1D1044B40F08000186067
:100E000070BC7047A8000020005C00404C5C0040B3
:100E1000704700BF2DE9F043002385B0DFF86491EF
:100E2000DFF86C81534EADF80E30D8F80030524CDC
:100E30009AB213F4004F514F514DA9F80020514878
:100E40004C4900F08B80038803F00F039A0002F1F5
:100E5000804202F5B8422B70002B2FD14BF6BF73A6
:100E6000226892B23280328802F030023A803288B0
:100E700002F4405232802268134083F4005383F01E
:100E8000200343F4004343F0800323600388D80623
:100E90003CD523689BB2ADF80E30BDF80E301A0574
:100EA0005FD4BDF80E301B04BFD540F68F732268A7
:100EB000019113402360FFF7C9FE2FE0116889B24A
:100EC000ADF80E10BDF80E10090414D4BDF80E30A4
:100ED0001B06AAD548F60F712A782B48930003F118
:100EE000804303F5B8431C68013A2140196050F86B
:100EF0002230984799E740F68F71146823482140C3
:100F0000013B50F8233011609847DFE748F60F7334
:100F10002268019113402360FFF706FF4BF6BF7371
:100F2000019920680A880340D6040A8848BF83F4E0
:100F3000805395043A8848BF83F40053D4063A8816
:100F400048BF83F01003900648BF83F0200343F4AA
:100F5000004343F08003084A9BB2136005B0BDE82C
:100F6000F08340F68F732268019113402360FFF7EE
:100F7000B5FCD3E70E020020005C00401002002008
:100F80003C0A0020660A00203C01002020010020CD
:100F9000445C0040F8B5174D174C2F46174E236898
:100FA0009AB21B042A8023D547F6FF7323603A8840
:100FB00002F00F02930003F18043327003F5B8434F
:100FC000196808040ED40906E9D548F60F71D3F85C
:100FD00000E00B480EEA0101013A50F822201960A6
:100FE0009047DCE740F68F71D3F800E00548F1E761
:100FF000F8BD00BF660A0020445C00403C0A0020A7
:101000003C010020200100203C4B30B418683C49D2
:1010100040F0010018605D6882B02940596019688D
:10102000002021F0847121F48031196019684FF497
:101030001F0421F48021196059681A4621F4FE0129
:1010400059609C6000900190196841F480311960EA
:1010500003E0009BB3F5A06F09D0136803F40033DD
:101060000193009B01330093019B002BF1D0234B94
:101070001B6813F4003318BF01230193019B012B5C
:1010800006D0204B4FF000629A6002B030BC70472F
:101090001D4A1A4B1068194640F010001060106885
:1010A00020F003001060106840F0020010605A68E1
:1010B0005A605A685A605A6842F480625A605A68A4
:1010C00022F47C125A605A6842F4E8125A601A6894
:1010D00042F080721A600B68084A9B01FBD51146EA
:1010E000536823F003035360536843F002035360D3
:1010F0004B6803F00C03082BFAD1C2E70010024042
:101100000000FFF800ED00E0002002404FF6F87309
:10111000014A034013607047505C0040800000F1BA
:10112000804000F5B840036823F4EC4323F07003DB
:10113000194389B201607047800000F1804000F5DA
:10114000B8400368CA0623F4E04323F040039BB28F
:1011500048BF83F010038A0648BF83F0200343F49E
:10116000004343F080030360704700BF800000F13C
:10117000804000F5B8400368CA0423F4804323F09C
:1011800070039BB248BF83F480538A0448BF83F442
:10119000005343F4004343F080030360704700BFF3
:1011A000800000F1804000F5B840036823F48043DC
:1011B00023F070039BB283F4405343F4004343F0A5
:1011C00080030360704700BF40F60F62800000F1AB
:1011D000804000F5B8400368134043F4004343F0F7
:1011E00080030360704700BFFFF7EEBF800000F18F
:1011F000804000F5B84003685B0408D540F60F73E3
:101200000268134043F4404343F080030360704797
:10121000800000F1804000F5B84003685B0608D507
:1012200040F60F730268134043F4004343F0C003D9
:1012300003607047044A054B126892B202EBC0008B
:1012400003445B0019607047505C0040023000208E
:101250000E4A0F4B12683E2992B202EBC0000344C3
:101260004FEA43030AD94A09C80604BF02F1FF3214
:1012700092B2920242F400421A6070474A08C907CB
:1012800048BF013292021A60704700BF505C0040B4
:1012900006300020064B49081B6849009BB203EB4F
:1012A000C00000F1005000F5405040000160704760
:1012B000505C0040FFF7EEBF054A064B1268490834
:1012C00092B202EBC000034449005B001960704712
:1012D000505C004004300020FFF7EEBF054B1B6858
:1012E0009BB203EBC00000F1005000F540504000FD
:1012F00000887047505C0040FFF7F0BF044A054B80
:10130000126892B202EBC00003445B001888704779
:10131000505C004004300020FFF7F0BF054A064B48
:10132000126892B202EBC00003445B001868C0F37D
:1013300009007047505C004006300020FFF7EEBF08
:10134000C3B2000A40EA0320704700BF0B4B1A7C6F
:10135000D2070ED4D97C0A4A0A4B00280CBF184683
:101360001046242902D889B2FFF746B82421FFF796
:1013700043B82A210448FFF73FB800BF900100207E
:10138000D8000020FC00002088010020F8B50446A9
:1013900000F04CFDD0B9144B144953F8242051F8F7
:1013A0002440134B110E4FEA124E170A260C250A41
:1013B0001971DA7183F805E09F71DC725E729D72BB
:1013C0001846BDE8F8400C21FFF716B8094B01217B
:1013D00002243A2208469C701A73FFF727F8BDE8EA
:1013E000F8400020FFF774B82C0A0020240A0020DF
:1013F000AC000020B8000020F8B5044600F016FD4F
:10140000E8B9164B164953F8242051F82440154BDF
:10141000013A100E110C4FEA122E270E260C250A47
:1014200018705970DA7083F802E0DC711F715E7118
:101430009D711846BDE8F8400821FEF7DDBF0A4B54
:10144000012102243A2208469C701A73FEF7EEFF2F
:10145000BDE8F8400020FFF73BB800BF2C0A002091
:10146000240A002080010020B80000200421014847
:10147000FEF7C2BFD400002008210148FEF7BCBF20
:10148000CC000020034B0448D97C122928BF12212C
:10149000FEF7B2BF90010020B8000020014B997008
:1014A0001A737047B800002001210020FEF7BEBF6C
:1014B0000E4B10B59A682AB91B7C03F0040303F0A5
:1014C000FF006BB10220FFF703F8094B052424222B
:1014D0009C701A7300210120BDE81040FEF7A6BFE2
:1014E0000121BDE81040FEF7A1BF00BF9001002020
:1014F000B800002010B500F099FC20B9BDE81040FC
:101500000121FEF793BF074B012102243A2208462E
:101510009C701A73FEF78AFFBDE810400020FEF7AA
:10152000D7BF00BFB800002010B500F07FFC00B9A5
:1015300010BD074B012102243A2208469C701A7301
:10154000FEF774FFBDE810400020FEF7C1BF00BFEA
:10155000B80000200C4B10B59A688AB193F90C3092
:10156000002B0DDB0220FEF7B3FF084B05242022E1
:101570009C701A7300210120BDE81040FEF756BF91
:101580000020FEF7A5FFF0E790010020B800002042
:1015900010B5174C1A4454F82040A2420FD92A29FA
:1015A00022D00020FEF794FF124B052421220021B7
:1015B00001209C701A73FEF739FF002010BD0E4AFF
:1015C0000E4C52F82020A06802FB03F3984209D089
:1015D0002A290CBF02200020FEF77AFF0524054BC4
:1015E0002422E4E7012010BD0220FEF771FFD8E7B6
:1015F0002C0A0020B8000020240A002090010020BE
:101600002DE9F041194D2C781CB1022C21D0BDE8F8
:10161000F081DFF8608007460E461346144698F8BE
:101620000D000A462821FFF7B3FF0028EFD098F9F4
:101630000C30002B11DB0220FEF74AFF0C4B052477
:10164000242201219C701A730846BDE8F041FEF780
:10165000EDBEBDE8F04100F093BA02232B702246A4
:1016600031463846BDE8F04100F08ABAB2010020A8
:10167000B80000209001002070B5174D2C7814B1EF
:10168000012C16D070BD154E1346707B0A462A21D8
:10169000FFF77EFF0028F5D096F90C30002B0CDB0D
:1016A00001232B704FF440510220BDE87040FFF73A
:1016B0005DBDBDE8704000F0C7BA2046FEF708FFE8
:1016C000074B2146242205249C701A730120BDE893
:1016D0007040FEF7ABBE00BFB201002090010020B9
:1016E000B8000020FEE700BF08B5104A104B9A4230
:1016F0000DD2D0430F4918440B4620F003000430AC
:10170000084453F8041B834242F8041BF9D10A48E9
:101710000A494FF000028842B8BF40F8042BFADBB8
:10172000FFF772FCBDE8084000F0B4BB00000020E9
:10173000580100208622000858010020680A002075
:10174000B2B1002370B41E46541EE4B201346400EA
:10175000020F092A02F1300586BF3732CA54CD5430
:10176000CA180233A3424FEA00105670F0D170BC81
:10177000704700BF08B5002000F09CFBBDE80840A2
:1017800001214FF4000000F0A9BB00BF10B54FF4D9
:10179000C06082B000F092FC012401A814238DF8EF
:1017A00004308DF805408DF806408DF8074000F0B4
:1017B0008FFC1322002301A88DF805408DF8074007
:1017C0008DF804208DF8063000F082FC02B010BDC8
:1017D0004FF4806110B9034800F0A4B8014800F04C
:1017E000A3B800BF000801400A4B0B490B4A1B6815
:1017F00010B50C681068181800D110BD08220849EF
:10180000FFF79EFF2046BDE8104004220549FFF780
:1018100097BF00BFE8F7FF1FECF7FF1FF0F7FF1FB0
:10182000020000201200002010B5012182B0042027
:1018300000F046FB4FF480640322142301A90548FD
:10184000ADF804408DF806208DF8073000F00EF852
:1018500002B010BD0008014008B5FFF7D5FBFFF747
:10186000E3FFBDE80840002000F082BA2DE9F04116
:10187000CC78E30648BF8B78098804F00F0748BF8F
:101880001F4311F0FF0F21D0066800234FF0010E17
:101890004FF00F0802E00133082B16D00EFA03F2C6
:1018A00032EA0105F7D19D0008FA05FC26EA0C068C
:1018B00007FA05F5282C46EA050631D0482C03F135
:1018C000010308BF0261082BE8D10660FF2923D974
:1018D000466800234FF0010E4FF00F0802E001337D
:1018E000082B18D003F108020EFA02F232EA0105C1
:1018F000F5D19D0008FA05FC26EA0C0607FA05F565
:10190000282C46EA050609D0482C03F1010308BF3C
:101910000261082BE6D14660BDE8F0814261DEE756
:101920004261B8E70161704741617047014B042291
:101930001A6070477C010020704700BF09B1022087
:101940007047002814BF02200020704708B10348E8
:101950007047034B01221B681A8270475C0100200C
:10196000600A002010B5FFF73FFF054B00241B68FD
:101970009C7200F0E5F900F0BFFA024B1C6010BD4C
:10198000600A00207C01002038B5314A314BD27901
:101990001B68314900248C7220465A72FFF7B6FB4F
:1019A00020464FF40071FFF7B9FB2C4D2046202153
:1019B000FFF7C2FB20461821FFF78EFC95F82C108C
:1019C0002046FFF745FC58212046FFF773FC2046D0
:1019D000FFF70AFC2046FFF7E3FB21460120FFF753
:1019E0009DFB98210120FFF765FC20210120FFF7D6
:1019F000A3FB21460120FFF7B9FB21460220FFF798
:101A00008DFBD8210220FFF767FC95F82C100220EF
:101A1000FFF71EFC4FF440510220FFF7A7FB2146C1
:101A20000220FFF789FB95F82C102046FFF710FCE9
:101A30002046FFF7B5FB0A4D2046FFF7C9F90949D3
:101A4000094B0A4A01202C7008601A6038BD00BF9B
:101A500054220008600A0020400A00201C000020D8
:101A6000B20100207C010020900100205553424328
:101A7000044A054B12689A4202D00220FEF728BDA4
:101A8000704700BF90010020555342430149FEF7C3
:101A9000F5BE00BF4C0000200149FEF7EFBE00BFBD
:101AA00054000020054B1B68DB78052B04D8044943
:101AB00001EBC301FEF7E2BE00207047600A002080
:101AC0005C00002008B5084B1B689B7A5BB1074B94
:101AD000052201201A60FFF79BFB0220FFF786FB1F
:101AE000034B00221A7008BD600A00207C01002010
:101AF000B20100200F4B1A68137803F07F03212BEB
:101B000001D002207047FF28FBD15388002BF8D169
:101B100010B554680CB1022010BD0120FFF778FB0E
:101B20000220FFF763FB044B044A05491C70116057
:101B3000204610BD600A0020B20100209001002064
:101B400055534243704700BF0B4B1A68137803F09C
:101B50007F03212B01D002207047FE28FBD1508843
:101B60000028F8D15368B3F5803FF4D1034901232D
:101B70005082916113827047600A00204D1900085D
:101B8000F8B52B4C2378002B39D12A4B012553F87B
:101B90002030257001FB03F102FB03F26160A260BB
:101BA000E3680546224E002B2DD0234D23492B6898
:101BB00040221944812000F0B1F9F368403BF36002
:101BC0002B6840332B6040210120FFF733FB30218D
:101BD0000120FFF7B1FA1A4862688168A3684039AA
:101BE0004032403B81606260A3603BB91248154AB5
:101BF0000321E3606360237003601170F8BD012B63
:101C0000CED0A368F1E70B4F0C4A37F8203071684B
:101C100000F0F2F840220949812000F07FF957F8DE
:101C20002530054A403B4021F3601160CBE700BFFF
:101C300060010020240A0020140200201C02002061
:101C4000B8010020B20100202DE9F84F344C237870
:101C50002569002B48D1334E012356F8209023707C
:101C600001FB09F102FB09F26161A261236905F13F
:101C7000400EDFF8C8A000259E45CAF8005013D9D1
:101C8000294EDFF8B480C6F1010C276925690CEBF9
:101C9000060301352561256916F801BFAE4508F830
:101CA00007B0F2D8CAF80030204D1D4F2B88D21A49
:101CB000B2FBF9F609FB16261944A2616161F6B17F
:101CC0001B4D4FF44051AA680220D31AAB60FFF7B6
:101CD0004DFAA3696BB90025284601212561FEF75D
:101CE000A5FB2570BDE8F88F012B12D0A369002B4E
:101CF000F1D0104B1B78042BEDD0BDE8F88F1FFA04
:101D000089F3C9EB01010C4A3E6100F03BF82B88D6
:101D1000D6E7044B616953F82090A269A6E700BF9B
:101D200060010020240A0020CB010020B001002027
:101D3000B8010020B20100201C020020180200207F
:101D400038B50120FFF744FD064D074B074C002234
:101D50004FF4E051012018601A6010462A6021807B
:101D6000196038BD445C0040405C0040640A0020BB
:101D700008B10120704710B5044600F001F9204673
:101D800010BD00BF20B110F1FF3018BF0120704717
:101D900073B3F8B51E461746044601F1006505F514
:101DA0002055144800F06EF905284FF0340001D09A
:101DB00000F0E8F8601904F58064A4B200F042F97C
:101DC000A642EED800240B4800F05CF905284FF03D
:101DD000340001D000F0D6F8A3086019043457F895
:101DE0002310A4B200F0FAF8A642ECD80020F8BD07
:101DF00000207047A086010020B110F1FF3018BF0D
:101E00000120704783B130B401F1006101F5205128
:101E10008408043051F8245080B2834242F82450A0
:101E2000F6D8002030BC70470020704768B970B405
:101E30000749084D084B36264FF480644FF458424A
:101E40002E600C601A6070BC70470120704700BFA4
:101E5000240A00202C0A00201C0A002070B4074A23
:101E6000074E084C084B02250849094815722360A3
:101E700032601B68086070BC184700BF400A002031
:101E8000600A0020380A00201C0000205C0A0020A4
:101E90008400002008B5FFF7DFFCFFF76BFCFFF7BD
:101EA00075FCFFF7DBFF024B1A68052AFCD1FEE741
:101EB0007C010020014B1860704700BFD8004242EF
:101EC00029B9054A936923EA000090617047024BE3
:101ED0009A691043986170470010024029B9054A79
:101EE000D36923EA0000D0617047024BDA691043DE
:101EF000D86170470010024010B40549054C064AED
:101F000000204FF4044320600B8010BC1360704726
:101F1000640A0020445C0040405C004070B500F062
:101F20007F05144628460E46FFF7E6F9A4B201469F
:101F30002246304600F002F928462146FFF77AF99A
:101F4000002070BD70B500F07F0528460E46FFF7F3
:101F5000F5F904462846FFF7DFF9224601463046E8
:101F600000F000F9204670BD024B0349034A596056
:101F70005A6070470020024023016745AB89EFCDCE
:101F8000FFF7F2BF014BD860704700BF002002404E
:101F9000084BDA68D1070BD4DA68520701D5022062
:101FA0007047DB6813F0100F14BF03200420704744
:101FB000012070470020024010B50446FFF7E8FFFB
:101FC000012806D13CB1FFF7E3FF012804F1FF34FB
:101FD000F8D004B110BD052010BD00BF70B50023BE
:101FE00082B005464FF400500C460193FFF7E4FF22
:101FF000042801D002B070BD114EA3B232694FF473
:10200000005042F0010232612B80FFF7D5FF042817
:1020100006D041F6FE7332691340336102B070BDE1
:1020200002350195019B240C1C804FF40050FFF7F2
:10203000C3FF41F6FE73326913403361DAE700BF34
:102040000020024038B505464FF43020FFF7B4FFBA
:10205000042800D038BD0A4C4FF43020236943F0E7
:10206000020323616561236943F040032361FFF7A5
:10207000A3FF41F6FD7322691340236138BD00BF01
:1020800000200240FFF798BF704700BFFEE700BF87
:10209000FEE700BFFEE700BFFEE700BF704700BFDE
:1020A000704700BF704700BF704700BFFEF772BFA8
:1020B00000F068B8FEF7D8B9FEF756B940F0BF6037
:1020C000024B40F40030D860704700BF00ED00E0E4
:1020D000C3785BB9037801215A09164803F01F033E
:1020E000203201FA03F340F822307047124B30B42B
:1020F000D9688278C9434478C1F302210F23C1F122
:102100000405CB40AC401340027823431B0102F18D
:102110006042DBB202F5614282F8003303780122AB
:1021200003F01F0003495B09824041F8232030BCC3
:10213000704700BF00E100E000ED00E00132521006
:102140000ED010B401F1005101F5405149000023B7
:1021500030F8024B21F8234001339A42F8D110BCE9
:10216000704700BF01F10051013201F5405152109A
:102170004FEA410105D051F8043B013A20F8023BF7
:10218000F9D170470F4B70B51B680F4C9BB20F4DC8
:10219000238023882A8813401B040ED4238803F449
:1021A00080631A4200D170BD4FF6FF31BDE8704028
:1021B000044A074B11605B681847FEF72BFE2A881C
:1021C000ECE700BF445C0040660A0020640A00207F
:1021D0001C00002010035300540020004D0061003B
:1021E0007300730046034D0075006C0074006900B5
:1021F00020004D006500640069006100200044007B
:102200006500760065006C006F0070006D00650071
:102210006E007400200042006F00610072006400D4
:102220002000560031002E0030000000220357002D
:10223000570057002E0050006F00770065007200B5
:102240004D00430055002E0043004F004D0000009C
:102250000403090409022000010100C0320904003E
:10226000000208065004070581024000000705022D
:1022700002400000120100020000004083042057C9
:062280000002010203014F
:102286001A03530054004D00330032003100300071
:1022960000000000000000000000000065190008B2
:1022A60089190008451B000839190008491B000850
:1022B600F51A00083D1900088D1A0008991A000839
:1022C600A51A000800000000400000007422000863
:1022D60012000000542200082000000050220008CE
:1022E600040000002C22000822000000E42100085F
:1022F60046000000000000201A000000D42100085B
:1023060010000000110E0008C51A0008110E000882
:10231600110E0008110E0008711A0008110E0008AF
:10232600110E00082D190008030100000000000826
:102336000000000002000000700000000000000A1B
:102346000000000000000000000000000006000081
:1023560000000000030000000080020220000000D0
:10236600417669736C61622053544D20466C6173EB
:10237600684469736B20312E302000000080020211
:1023860020000000417669736C61622053544D2031
:10239600466C6173684469736B20312E30200000EF
:1023A600110E0008B9200008110E0008110E0008D1
:1023B600110E0008110E0008110E0008B5200008C5
:1023C600110E0008110E0008110E0008110E00086B
:0823D600110E0008110E0008B1
:0400000508000000EF
:00000001FF
