:100000000C94AD000C94EA030C94C3030C94D5003B
:100010000C94D5000C94D5000C94D5000C94D5000C
:100020000C94D5000C94D5000C94D5000C942008A9
:100030000C94D5000C94D5000C94D5000C94D500EC
:100040000C9479030C94D5000C94D2090C94AC094F
:100050000C94D5000C94D5000C94D5000C94D500CC
:100060000C9411040C94D50000000008000201005B
:100070000003040700000000000000004C4F524144
:1000800020696E6974656420537563657366756C69
:10009000004C6F526120696E6974204641494C21C1
:1000A00000536574757020646F6E652E0044656240
:1000B0007567206D6F64652E2E2E0020746F207082
:1000C000696E200057726974696E6720005570640C
:1000D00061746520736C6F74732066726F6D20316C
:1000E0002D576972652E2E2E0020736C6F74537419
:1000F00061747573202D20002050696E202D200022
:100100002A2A2A736C6F7457696E646F77202D20CA
:100110000000000000250028002B00000000002443
:100120000027002A00000000002300260029000408
:10013000040404040404040202020202020303038E
:100140000303030102040810204080010204081088
:1001500020010204081020002C0F11241FBECFEF35
:10016000D8E0DEBFCDBF23E0A6E5B1E001C01D921F
:10017000A933B207E1F711E0A0E0B1E0E2E2F0E27A
:1001800002C005900D92A635B107D9F710E0CDEA6F
:10019000D0E004C02197FE010E94F70FCC3AD107AE
:1001A000C9F70E94450B0C940F100C940000FC0141
:1001B000918D228D892F90E0805C9F4F821B910949
:1001C0008F739927089580E090E0892B29F00E9491
:1001D000330981110C9400000895882321F08130A7
:1001E00019F4E99801C0E898E82FF0E0EE0FFF1F3E
:1001F000E05FFE4F8FEF90E0918380830895089534
:1002000085ED8093BC008091BC0084FDFCCF1092F2
:10021000C301089540919F01262F30E0240F311D26
:1002200021323105DCF42091C3012430C9F4FC01F2
:1002300080E090E0861758F430919F012191DC0115
:10024000A158BE4FA30FB11D2C930196F3CF8091FF
:100250009F01680F60939F0180E0089581E00895F9
:1002600082E0089508958FEF9FEF08958FEF9FEF3D
:10027000089580917E0190E091958195910908956E
:10028000CF93DF93CB01EA01642F0E940A01CE01D4
:10029000DF91CF910895CF93DF931F92CDB7DEB753
:1002A000698361E0CE0101960E940A0181E090E03D
:1002B0000F90DF91CF910895E5E0F3E0A081B18147
:1002C00011969C9111978281892B11968C93A08114
:1002D000B18112969C911297828180958923129602
:1002E0008C9308959C012D50310937FF02C02D5F7A
:1002F0003F4FC901959587959595879518161906CD
:1003000014F081E090E010928500109284009093A8
:100310008900809388007093600160935F018091F1
:10032000EE018093810008950E945C0169E572E00E
:100330008CE291E00C9472010E945C0180910803B0
:10034000823010F40E94ED0060E173E083E290E0FF
:100350000C94720180910803823010F40E94ED0029
:1003600065E573E089E190E00C947201CF93DF932F
:100370001F92CDB7DEB76983DC01ED91FC9102805D
:10038000F381E02D41E050E0BE016F5F7F4F0995A2
:100390000F90DF91CF910895089580E090E0089547
:1003A00010925C0110925B0108950E94FD0F811173
:1003B0000C94360B0895709364016093630162E0BE
:1003C00070E0882319F08DE493E002C08CE991E09D
:1003D0000C94140BE0916801F0E0EC50FE4F80812A
:1003E00090E00090670102C0959587950A94E2F726
:1003F00020916601222321F08170992721E0822734
:1004000081706FE072E00C94DB0190936201809345
:10041000610162E070E08AEA91E00C94140B8111B2
:100420000C94360B9091660181E0892780936601D8
:1004300081110C94EA018FE795E00C94050210926B
:10044000650110926B0189EA95E00C9405028823FE
:1004500061F0E0916602F0916702309721F060E070
:1004600082E090E009950C94360B86E791E090933A
:1004700075018093740181E090E090937301809303
:100480007201109271011092700187E292E09093D4
:100490006F0180936E010E941F02E0916602F0914D
:1004A0006702309729F06091760181E090E009942D
:1004B0000895A5E0B3E0ED91FC911197918112961A
:1004C0008C918095892381838FEF90E090937101C7
:1004D000809370010C941F02E0910503F0910603D4
:1004E000908180910703892331F461E070E087E017
:1004F00097E00C94140B0895FC01848DDF01A80F84
:10050000B11DA35ABF4F2C91848D90E001968F733B
:100510009927848FA689B7892C93A089B1898C915A
:10052000837080648C93938D848D981306C00288A9
:10053000F389E02D80818F7D8083089590E0FC0118
:10054000E859FF4F2491FC01ED5BFE4F3491FC0113
:10055000E15DFE4FE491EE2309F43CC0222339F122
:10056000233091F038F42130A9F0223001F584B520
:100570008F7D12C0273091F02830A1F02430B9F4DB
:10058000809180008F7D03C0809180008F77809361
:1005900080000DC084B58F7784BD09C08091B00004
:1005A0008F7703C08091B0008F7D8093B000F0E022
:1005B000EE0FFF1FEF5EFE4FA591B4919FB7F89429
:1005C000611104C08C913095382302C0EC913E2B10
:1005D0003C939FBF08953FB7F8948091EA019091B2
:1005E000EB01A091EC01B091ED0126B5A89B05C0EF
:1005F0002F3F19F00196A11DB11D3FBFBA2FA92FA2
:10060000982F8827820F911DA11DB11DBC01CD011E
:1006100042E0660F771F881F991F4A95D1F708950A
:10062000A5E0B3E0ED91FC911197918112968C9128
:100630008095892381836CE672E08BE891E00E94CB
:1006400072010E94EB02DC01CB0185559109A109E1
:10065000B1098093000290930102A0930202B0932B
:100660000302E0916301F091640180E009946CE67B
:1006700072E08EEA91E00E9472010E94EB02DC01BE
:10068000CB01C297A109B1098093000290930102A6
:10069000A0930202B093030208950E943703E091F1
:1006A0006301F091640180E00994CF93E091050328
:1006B000F09106039081809107038923C1E021F422
:1006C000C0E00E9437030DC0109281008FEF9FEFB2
:1006D000DC018093000290930102A0930202B09388
:1006E0000302E0916101F091620160E08C2FCF91F3
:1006F00009941F920F920FB60F9211242F933F93DC
:100700008F939F93AF93BF93809123029091240284
:10071000A0912502B09126023091E90123E0230F38
:100720002D3720F40196A11DB11D05C026E8230F29
:100730000296A11DB11D2093E9018093230290939D
:100740002402A0932502B09326028091EA019091A1
:10075000EB01A091EC01B091ED010196A11DB11D3D
:100760008093EA019093EB01A093EC01B093ED012B
:10077000BF91AF919F918F913F912F910F900FBE9D
:100780000F901F9018951F920F920FB60F92112481
:100790002F933F934F935F936F937F938F939F9389
:1007A000AF93BF93EF93FF93E0911201F091130188
:1007B0000995FF91EF91BF91AF919F918F917F919B
:1007C0006F915F914F913F912F910F900FBE0F90BE
:1007D0001F9018951F920F920FB60F9211242F930E
:1007E0003F934F935F936F937F938F939F93AF93B9
:1007F000BF93EF93FF93E0911001F09111010995E0
:10080000FF91EF91BF91AF919F918F917F916F91E8
:100810005F914F913F912F910F900FBE0F901F90BE
:1008200018951F920F920FB60F9211242F933F939A
:100830004F935F936F937F938F939F93AF93BF93E8
:10084000EF93FF938091B900887F803609F49CC0B4
:1008500068F5883209F45BC090F4803109F454C023
:1008600038F4882309F4F2C0883009F44DC0F2C08E
:10087000883109F44CC0803209F45DC0EBC080348B
:1008800009F468C048F4803309F455C0883309F08E
:10089000E1C08093C201D4C0803509F44FC08835CF
:1008A00009F45DC0883409F0D5C0D2C0883909F494
:1008B000C3C0A8F4883709F467C038F4883609F44F
:1008C00063C0803709F460C0C5C0883809F4B4C07B
:1008D000803909F45FC0803809F0BCC05BC0803B40
:1008E00009F484C038F4803A09F466C0883A09F4FF
:1008F0007DC0B0C0803C09F4A3C0883C09F4A0C00E
:10090000883B09F486C0A6C08091E80110C0909190
:10091000E7018091E601981770F5E091E70181E029
:100920008E0F8093E701F0E0EA53FE4F80818093C1
:10093000BB0085EC82C08093C2018AC0E091E701D0
:1009400081E08E0F8093E7018091BB00F0E0EA53D5
:10095000FE4F80839091E7018091E6016AC0E091AB
:10096000E70181E08E0F8093E7018091BB00F0E00A
:10097000EA53FE4F80838091C501811169C081E0F7
:100980008093C40184EA5DC083E08093C301109228
:10099000C101CFCF8091C101803208F04DC0E091FC
:1009A000C10181E08E0F8093C1018091BB00F0E016
:1009B000EF55FE4F8083BDCF85EC8093BC00109235
:1009C000C3018091C101803230F4E091C101F0E0B7
:1009D000EF55FE4F10826091C10170E081EA91E015
:1009E000E0E0F0E009951092C10134C084E080930A
:1009F000C3011092A00110929F01E0E0F0E0099580
:100A000080919F01811105C081E080939F01109228
:100A10007F01E091A00181E08E0F8093A001F0E0C2
:100A2000E158FE4F80818093BB009091A00180919E
:100A30009F01981708F47DCF85E88093BC000AC019
:100A400085EC8093BC001092C30104C01092C201D7
:100A50000E940001FF91EF91BF91AF919F918F9103
:100A60007F916F915F914F913F912F910F900FBEAA
:100A70000F901F9018951092810061E070E087E060
:100A800097E00E94140B8FEF9FEFA0E0B0E08093FF
:100A9000000290930102A0930202B0930302089512
:100AA000882321F01092F3010C94360B48E050E0BB
:100AB00066E771E084EF91E00E940210892BD9F47F
:100AC00081E08093F30186E791E090937501809334
:100AD000740181E090E09093730180937201109211
:100AE00071011092700187E292E090936F01809300
:100AF0006E010C941F021092F3010C943B056111DE
:100B00000C94360B4091680190916701E42FF0E05E
:100B1000EC50FE4F208130E0092E02C0359527951C
:100B20000A94E2F72170281310C081E0890F883001
:100B300019F08093670105C0109267014F5F4093E1
:100B4000680180916801883011F40C943B050C9485
:100B5000EA01662371F00E94360B8091700190913A
:100B6000710197FDCAC0E0916E01F0916F0181E0C3
:100B7000BFC090916B01282F092E01C0220F0A944B
:100B8000EAF730916501232B209365019F5F9093D5
:100B90006B01E091F001F091F101309741F020916B
:100BA0007001309171012F3F310509F00995809155
:100BB0006B01883009F09DC0209170013091710166
:100BC000809165012F3F310509F071C010927101CC
:100BD00010927001853A91F1B0F48333A9F1853513
:100BE00009F063C01092F30186E791E090937501DC
:100BF0008093740188E090E0909373018093720178
:100C000080E595E04CC08C3E59F0803F31F08C3C43
:100C100009F04BC01092F30134C01092F30106C0EA
:100C20001092F3018091F201882361F01092680123
:100C300010926701109266010C94EA018091F30111
:100C400081111FC00C943B051092F30184EF91E0D9
:100C500090936A018093690188E090E0909373011A
:100C60008093720110926B0187ED91E090936D017A
:100C700080936C018091F40160EC76E081700C94BB
:100C8000DB0186E791E0909375018093740181E028
:100C900090E0909373018093720187E292E09093C9
:100CA0006F0180936E010C941F020C94360B6091BF
:100CB000740170917501A9014F5F5F4F50937101ED
:100CC00040937001FB01E20FF31F808310926501D6
:100CD00010926B018091720190917301481759072E
:100CE00041F40E943B05E0916E01F0916F0180E0BC
:100CF000099489EA95E00C9405020895FC01680FB7
:100D0000791F90E05CE86E177F0789F0419188E0D9
:100D1000A92FA427292F30E035952795922FA0FFE2
:100D200002C0952F92274695815091F7ECCF892FDD
:100D30000895CF93C82F61110E943B058091EF0168
:100D4000882379F01092EF01E0916C01F0916D0130
:100D50003097A1F087ED91E090936D0180936C0145
:100D60000AC0E0915D01F0915E01309739F0109278
:100D70005E0110925D018C2FCF910994CF9108955F
:100D8000882341F00E94360BE0916C01F0916D01D7
:100D900081E027C080916B018F5F883019F08093CC
:100DA0006B010BC010926B018091700190917101E9
:100DB00001969093710180937001809170019091E0
:100DC000710120917201309173018217930751F4E0
:100DD00061E080E00E949906E0916C01F0916D0164
:100DE00080E009942091690130916A01F901E80FCE
:100DF000F91F808190E000906B0102C09595879566
:100E00000A94E2F760EC76E081700C94DB01CF92FB
:100E1000DF92EF92FF92CF93E0910503F0910603EA
:100E2000C08180910703C8230E94EB026B017C0103
:100E3000CC2309F45AC08091000290910102A09144
:100E40000202B09103028F3F2FEF9207A105B10577
:100E500009F453C0A7019601281B390B4A0B5B0B01
:100E6000DA01C9014FEF5FEF60E070E040930002EC
:100E7000509301026093020270930302803E31E0BE
:100E80009307A105B105C8F185389340A105B105C7
:100E900038F0CF91FF90EF90DF90CF900C94360B0D
:100EA00080910803823010F40E94ED000E94EB0252
:100EB0005EE1C50ED11CC601861B970B64E971E08B
:100EC0000E94720160E081E00E949906E091660252
:100ED000F0916702309789F060E080E090E0CF9178
:100EE000FF90EF90DF90CF90099460930002709391
:100EF00001028093020290930302CF91FF90EF9042
:100F0000DF90CF9008958130910531F008F48CC0C6
:100F1000029709F490C0089580915B0190915C0163
:100F20008130910521F1029709F089C080915A0121
:100F30008F5F80935A01E0915901F0E0E95DFD4F28
:100F40006083809159018F5F8093590180915A018C
:100F50008E3108F474C010925C0110925B01109203
:100F60005A011092590181E080934502089564343A
:100F700009F461C020F4653209F440C008956E346C
:100F800091F16E3B09F0089583E090E090935C014D
:100F900080935B01F89461E081E00E94990681E012
:100FA0008093EF0185E092E090936A01809369015C
:100FB0008EE190E090937301809372011092710121
:100FC0001092700110926B0180ED91E090936D0191
:100FD00080936C018091050260EC76E081700E9444
:100FE000DB017894089582E090E090935C01809317
:100FF0005B011092590110925A01089510925C0100
:1010000010925B014DE150E060E070E087E292E019
:101010000E94BD0F8EE1E7E2F2E0A5E0B2E00190B0
:101020000D928A95E1F7089581E090E090935C013C
:1010300080935B01089510925C0110925B0108950A
:101040001F920F920FB60F9211242F933F934F933D
:101050005F936F937F938F939F93AF93BF93EF9320
:10106000FF9310928100E0915F01F0916001109276
:10107000600110925F01309709F00995FF91EF919F
:10108000BF91AF919F918F917F916F915F914F91A0
:101090003F912F910F900FBE0F901F9018950F93B7
:1010A0001F93CF93DF93EC01062F142F60E08E8502
:1010B0000E949E029C858D859CBD8DBD0EBD00004D
:1010C0000DB407FEFDCF8EB51EBD00000DB407FEAA
:1010D000FDCF1EB561E08E850E949E02812FDF91BB
:1010E000CF911F910F9108956F7740E00C944F08B6
:1010F0000F931F93CF93DF93EC01E881F981008474
:10110000F185E02D0995892B91F06DE0CE010E94CB
:101110007408082F60E0CE010E947408182F402F39
:101120006DE8CE010E944F08812F90E002C08FEF42
:101130009FEFDF91CF911F910F910895CF93DF9390
:10114000EC01E881F9810084F185E02D0995892B76
:1011500059F0888D998D0196998F888F60E0CE0126
:101160000E94740890E002C08FEF9FEFDF91CF9153
:101170000895CF93DF93EC0163E10E94740890E03F
:10118000288D398D821B930BDF91CF910895AF92FB
:10119000BF92CF92DF92FF920F931F93CF93DF9373
:1011A0006C015B01EA0162E20E947408F82E90E093
:1011B0009C012C0F3D1F2F3F310529F020F0CFEF70
:1011C000D0E0C81BD90B8501AC0EBD1E0A151B054E
:1011D00041F0F80141918F0160E8C6010E944F087B
:1011E000F5CF4C2F4F0D62EAC6010E944F08CE0189
:1011F000DF91CF911F910F91FF90DF90CF90BF9023
:10120000AF900895FC01538D448D252F30E0842F3D
:1012100090E0821B930B541710F0CF96089501971E
:101220000895FC01918D828D981761F0828DDF0108
:10123000A80FB11D5D968C91928D9F5F9F73928FC9
:1012400090E008958FEF9FEF0895FC01918D828DBE
:10125000981731F0828DE80FF11D858D90E008958B
:101260008FEF9FEF089588E692E00E94D70021E07B
:10127000892B09F420E0822F0895EF92FF920F93BB
:101280001F93CF93DF93EC0181E0888F9B8D8C8D32
:10129000981305C0E889F989808185FD26C0F62E5E
:1012A0000B8D10E00F5F1F4F0F731127E02E8C8DF9
:1012B000E8120CC00FB607FCFACFE889F9898081E3
:1012C00085FFF5CFCE010E947C02F1CF8B8DFE0110
:1012D000E80FF11DE35AFF4FF0829FB7F8940B8F90
:1012E000EA89FB89808180620AC09FB7F894EE8901
:1012F000FF896083E889F9898081837080648083B5
:101300009FBF81E090E0DF91CF911F910F91FF90FF
:10131000EF900895CF93DF93EC01888D8823C9F077
:10132000EA89FB89808185FD05C0A889B9898C91EE
:1013300086FD0FC00FB607FCF5CF808185FFF2CF89
:10134000A889B9898C9185FFEDCFCE010E947C02DE
:10135000E7CFDF91CF9108951F920F920FB60F92B2
:1013600011242F933F934F935F936F937F938F93AA
:101370009F93AF93BF93EF93FF9388E692E00E9411
:101380007C02FF91EF91BF91AF919F918F917F91DF
:101390006F915F914F913F912F910F900FBE0F90E2
:1013A0001F9018951F920F920FB60F9211242F9332
:1013B0008F939F93EF93FF93E0917802F0917902DE
:1013C0008081E0917E02F0917F0282FD12C09081C7
:1013D000809181028F5F8F7320918202821751F07A
:1013E000E0918102F0E0E859FD4F958F80938102F2
:1013F00001C08081FF91EF919F918F912F910F906C
:101400000FBE0F901F901895CF92DF92EF92FF9230
:101410000F931F93CF93DF936C017A018B01C0E090
:10142000D0E0CE15DF0581F0D8016D918D01D60198
:10143000ED91FC910190F081E02DC6010995892B79
:1014400011F02196EECF7E01C701DF91CF911F9160
:101450000F91FF90EF90DF90CF90089510922503A9
:10146000109224036DE18AE093E00E947408482FF3
:101470004E7F6DE98AE093E00C944F0842E050E023
:1014800063E571E088E692E00C94040A0F931F93E1
:10149000CF93DF938C01C0E0D0E0F801EC0FFD1F8B
:1014A0006491662341F088E692E00E943D09892B11
:1014B00011F02196F2CFCE01DF91CF911F910F91C4
:1014C0000895CF93DF930E94460AEC010E943E0AE2
:1014D0008C0F9D1FDF91CF9108958F929F92AF92B5
:1014E000BF920F931F93CF93DF93CDB7DEB7A19732
:1014F0000FB6F894DEBF0FBECDBF19A2423008F47C
:101500004AE08E010F5D1F4F842E912CA12CB12C2F
:10151000A50194010E94D50FE62FB901CA0101501F
:101520001109EA3014F4E05D01C0E95CD801EC93E4
:10153000232B242B252B61F70115110571F0F801E0
:1015400001900020E9F73197AF01401B510BB80122
:1015500088E692E00E94040A02C080E090E0A19632
:101560000FB6F894DEBF0FBECDBFDF91CF911F91B4
:101570000F91BF90AF909F908F90089590E0FC01E5
:10158000ED5BFE4F2491FC01E15DFE4F84918823C9
:1015900099F090E0880F991FFC01E55EFE4FA59140
:1015A000B491FC01EF5EFE4F859194918FB7F89452
:1015B000EC91E22BEC938FBF08958F929F92AF92A4
:1015C000BF92CF92DF92EF92FF920E94EB024B010B
:1015D0005C018AE0C82ED12CE12CF12C0E94EB0298
:1015E000DC01CB0188199909AA09BB09883E9340FF
:1015F000A105B10598F321E0C21AD108E108F1086C
:1016000088EE880E83E0981EA11CB11CC114D10481
:10161000E104F10419F7FF90EF90DF90CF90BF90B5
:10162000AF909F908F9008959C01E09A909108034D
:101630009230D8F4E92FF0E0EE0FFF1FE05FFE4F8D
:101640003183208380916900913031F08C7F682B49
:1016500060936900E89A0895837F660F771F660F8D
:10166000771F682B60936900E99A089561E081E033
:101670000E949906E0916602F0916702309721F08E
:1016800060E082E090E009940895789484B58260E7
:1016900084BD84B5816084BD85B5826085BD85B516
:1016A000816085BD80916E00816080936E00109294
:1016B000810080918100826080938100809181000F
:1016C00081608093810080918000816080938000A0
:1016D0008091B10084608093B1008091B0008160FE
:1016E0008093B00080917A00846080937A0080912A
:1016F0007A00826080937A0080917A008160809382
:101700007A0080917A00806880937A001092C100FC
:101710008EE1E7E2F2E0DF011D928A95E9F74DE103
:1017200050E060E070E0CF010E94AD0F80912B028D
:1017300081508E3F18F083E180932B0283E08093E9
:10174000270210922802809129028D7F809329021E
:10175000E0917802F091790282E08083E091780252
:10176000F09179021082E0917402F091750210827A
:10177000E0917602F091770280E1808310928002FE
:10178000E0917C02F0917D0286E08083E0917A0214
:10179000F0917B02808180618083E0917A02F091F8
:1017A0007B02808188608083E0917A02F0917B02E5
:1017B000808180688083E0917A02F0917B02808151
:1017C0008F7D80838DEA90E00E94610A60E1C62EE1
:1017D00061E0D62EC0E0D1E01881112339F0812FCD
:1017E0000E94BE0A6981812F0E949E022296CC1619
:1017F000DD0691F788E090E0909319038093180339
:1018000087E090E090931B0380931A038FEF9FEF84
:1018100090931D0380931C0388E00E94BE0A61E040
:10182000809118030E949E0280911A0390911B03DD
:101830008F3FBFEF9B0781F00E94BE0A60E080915E
:101840001A030E949E020E94DD0A61E080911A0341
:101850000E949E020E94DD0ACFB7F8948091460252
:10186000811124C0E9E3F1E08491EDE4F1E0949189
:10187000E82FF0E0EE0FFF1FE55EFE4FA591B4915B
:10188000EC91E92321F461E08AE00E949E028AE063
:101890000E94BE0A8CB580618CBD8CB580648CBD05
:1018A0008DE00E94BE0A8BE00E94BE0A8091460233
:1018B0008F5F80934602CFBF62E48AE093E00E948C
:1018C0007408823109F051C040E861E88AE093E091
:1018D0000E944F0880E091EAACEBB3E380931E03D3
:1018E00090931F03A0932003B093210349ED66E872
:1018F0008AE093E00E944F0840E067E88AE093E0C6
:101900000E944F0840E068E88AE093E00E944F0898
:1019100040E06EE88AE093E00E944F0840E06FE804
:101920008AE093E00E944F086CE08AE093E00E9416
:101930007408482F43606CE88AE093E00E944F08E7
:1019400044E066EA8AE093E00E944F084FE869E8C5
:101950008AE093E00E944F0841E861E88AE093E062
:101960000E944F0881E090E002C080E090E0282FC4
:10197000217020936502892B89F04FE869E88AE09D
:1019800093E00E944F080E942E0A45E861E88AE031
:1019900093E00E944F088CE790E002C081E990E05C
:1019A0000E94610A6DE170E087E292E00E947E068B
:1019B000809344028EE1E7E2F2E0A5E0B2E001901C
:1019C0000D928A95E1F783E897E090936702809300
:1019D000660220912C03822F90E0FC01ED5BFE4F0C
:1019E0003491FC01E15DFE4FE491F0E0EE0FFF1F4A
:1019F000EB5DFE4F45915491223021F0233021F0D0
:101A00008FEF03C080E001C081E050930603409354
:101A100005033093070380930803209309038FEF96
:101A20009FEFDC018093000290930102A0930202D9
:101A3000B093030287E0E4E1F1E0A4EFB1E00190AC
:101A40000D928A95E1F767E070E084EF91E00E94E3
:101A50007E068093FB011092F3011092F201109226
:101A6000F1011092F0011092EF01F894E09105035A
:101A7000F0910603918180910703809589238183EA
:101A8000E0910503F0910603928180910703809510
:101A900089238283109280001092810080916F00D0
:101AA000826080936F008BE08093EE010E943B0583
:101AB000789481EA90E00E94610A87E4882E82E0AF
:101AC000982E9EE1392E25E6A22E22E0B22EEE249B
:101AD000E394F12C80914502811106C0809165024A
:101AE000882309F4B6C13FC0109245028DEC90E006
:101AF0000E94610A07E212E0C0E0D1E0F8018581AE
:101B000081508E3F48F5772473948781811101C0FD
:101B1000712C8981871501F1798288818823E1F010
:101B200084EC90E00E94460A672D70E080E090E02F
:101B30004AE00E946D0A8BEB90E00E94460A6881A1
:101B400070E080E090E04AE00E946D0A0E943E0A48
:101B5000672D88810E949E020D5F1F4F2296CC1632
:101B6000DD0661F6BBCF62E18AE093E00E94740873
:101B7000C82F0E942E0A4C2F62E98AE093E00E944F
:101B80004F08C6FF31C0C5FD2FC01092230310922D
:101B900022038091240390912503892B11F062E2A6
:101BA00001C063E18AE093E00E947408C82FD0E08E
:101BB00060E18AE093E00E947408482F6DE88AE0B3
:101BC00093E00E944F0841E861E88AE093E00E94B8
:101BD0004F086E970CF43DC1D401E32D1D92EA9598
:101BE000E9F7C7E4D2E043C061E08AE093E00E94F5
:101BF0007408863809F42DC140E06DE88AE093E06E
:101C00000E944F0846E861E88AE093E00E944F088E
:101C100020C12FB7F8948091230290912402A091C3
:101C20002502B09126022FBF409112035091130359
:101C30006091140370911503841B950BA60BB70BD1
:101C400040910E0350910F036091100370911103A6
:101C500084179507A607B707F0F48AE093E00E947F
:101C60009E0897FDD6CF8993AC16BD06A1F02FB77D
:101C7000F8948091230290912402A0912502B091C2
:101C800026022FBF8093120390931303A093140393
:101C9000B0931503E2CF9091470280912A029813E6
:101CA000D8C06DE170E087E492E00E947E069091DA
:101CB00064028913CEC080914802813009F0C9C006
:101CC000C7E2D2E000E011E0412C512C32018D81BD
:101CD0009FEF980F9E3F08F0ADC08330F1F128F4DC
:101CE000813051F08230A9F0A5C0843009F449C098
:101CF000853009F455C09EC08E81803108F066C0E1
:101D0000880F970102C0220F331F8A95E2F7C9019D
:101D10000DC08E81803108F059C0880F8F5FD701C8
:101D200002C0AA0FBB1F8A95E2F7CD01092E000C55
:101D3000AA0BBB0B4091490250914A0260914B02A1
:101D400070914C0284239523A623B7232224239445
:101D5000892B8A2B8B2BD9F539C08E818031B0F538
:101D6000970102C0220F331F8A95E2F780914D023E
:101D700090914E028223932322242394892B39F5B8
:101D800025C08E81883010F560914F0270E002C04E
:101D9000759567958A95E2F7B62FB1702B2E17C00F
:101DA0008E81E82FE695E695E695E03178F4F0E04F
:101DB000E95BFD4F618570E0877002C0759567959E
:101DC0008A95E2F7E62FE1702E2E01C0212CD80172
:101DD00011968C911197821569F111962C92119799
:101DE0008C91882329F1622D0E949E0280E091E06F
:101DF0000E94460A4AE0C301B2010E946D0A88EFC0
:101E000090E00E94460AF801608170E080E090E076
:101E10004AE00E946D0A89EE90E00E94460A622D17
:101E200070E080E090E04AE00E946D0A0E943E0A65
:101E30000E943E0A23960E5F1F4FFFEF4F1A5F0A64
:101E40006F0A7F0A28E0421651046104710409F008
:101E50003ECF0E94E3003ECEE8E6F2E0138212821B
:101E600088EE93E0A0E0B0E084839583A683B783F7
:101E700021E231E03183208325EC30E0358724876F
:101E800024EC30E03787268720EC30E0318B208B44
:101E900021EC30E0338B228B22EC30E0358B248B2D
:101EA00026EC30E0378B268B118E128E138E148E1B
:101EB000EDE2F3E01382128284839583A683B783D5
:101EC00083E391E091838083E5E0F3E01282118265
:101ED00010828FEF83838483EAE0F3E0138212821F
:101EE00085E491E09183808380E5848781E0858724
:101EF0008AE090E09787868789E090E0918B808BDD
:101F000082E090E0938B828B148A158A168A178A56
:101F1000118E108E138E128E158E148E14821582D1
:101F200016821782A8E2B3E014968C931497E5E426
:101F3000F1E0E4911296EC931297E1E3F1E0E49181
:101F4000F0E0EE0FFF1FEB5DFE4F8591949111962F
:101F50009C938E9313961C920895DC01CB01FC0197
:101F6000F999FECF06C0F2BDE1BDF89A319600B4F2
:101F70000D9241505040B8F70895DC01CB0103C0E9
:101F80002D910E94C80F41505040D0F70895262F40
:101F9000F999FECF1FBA92BD81BD20BD0FB6F8944E
:101FA000FA9AF99A0FBE01960895A1E21A2EAA1B79
:101FB000BB1BFD010DC0AA1FBB1FEE1FFF1FA217F9
:101FC000B307E407F50720F0A21BB30BE40BF50BF6
:101FD000661F771F881F991F1A9469F7609570957F
:101FE000809590959B01AC01BD01CF010895EE0F46
:101FF000FF1F0590F491E02D099481E090E0F894A2
:102000000C940F10FB01DC0104C08D91019080192C
:1020100021F441505040C8F7881B990B0895F8945B
:02202000FFCFF0
:10202200030004000500060000000000000000009C
:10203200FF00FF002800000000000227020000004D
:10204200003D09040A02098A09D70011092509007D
:102052000000004B014001CD01320139013601334C
:102062000100000000B601C708CD013201B9089E87
:062072000878080D0A00C9
:00000001FF
