:020000040800F2
:1000000070040020110200080D0200080D02000813
:100010000D0200080D0200080D020008000000009B
:100020000000000000000000000000000D020008B9
:100030000D020008000000000D0200080D0200087B
:100040000D0200080D0200080D0200080D02000854
:100050000D0200080D0200080D0200080D02000844
:100060000D0200080D0200080D0200080D02000834
:100070000D0200080D0200080D0200080D02000824
:100080000D0200080D0200080D0200080D02000814
:100090000D0200080D0200080D0200080D02000804
:1000A0000D0200080D0200080D0200080D020008F4
:1000B0000D0200080D0200080D0200080D020008E4
:1000C0000D0200080D0200080D0200080D020008D4
:1000D0000D020008ED0300080D0200080D020008E3
:1000E0000D0200080D0200080D02000800000000CB
:1000F0000000000000000000000000000000000000
:1001000000000000000000005FF808F182B03B4BE7
:100110001A6842F001021A605968394A0A405A6066
:100120001A6822F0847222F480321A601A6822F46B
:1001300080221A605A6822F4FE025A604FF41F02AD
:100140009A600022009201921A6842F480321A608A
:100150001A46136803F400330193009B01330093A4
:10016000019B1BB9009BB3F5A06FF2D1234B1B6819
:1001700013F4003F14BF012300230193019B012BC3
:1001800036D1204B1A6842F010021A601A6822F029
:1001900003021A601A6842F002021A60A3F5805343
:1001A0005A685A605A685A605A6842F480625A60C3
:1001B0005A6822F47C125A605A6842F4E8125A6073
:1001C0001A6842F080721A601A46136813F0007FB2
:1001D000FBD00A4B5A6822F003025A605A6842F078
:1001E00002025A601A46536803F00C03082BFAD136
:1001F0004FF00062044B9A6002B07047001002405A
:100200000000FFF80020024000ED00E0FEE700BF24
:1002100008B50F4B0F4A9A420CD2581E801A20F094
:10022000030004300C4B184453F8041B42F8041B21
:100230008342F9D109480A494FF000028842B8BF09
:1002400040F8042BFADBFFF761FF00F049F908BD25
:100250001800002000000020AD0B0008180000204E
:100260006C000020F0B5CB7803F00F0613F0100FF0
:100270001CBF8B781E430B78F3B105680023012760
:100280004FF00F0C07FA03F20C8832EA04040FD186
:100290009C000CFA04FE25EA0E0506FA04F4254338
:1002A000CC78282C01D1426102E0482C08BF0261C1
:1002B0000133082BE6D105600B88FF2B20D9456858
:1002C000002301274FF00F0E03F1080207FA02F294
:1002D0000C8832EA04040FD19C000EFA04FC25EAD3
:1002E0000C0506FA04F42543CC78282C08BF42619B
:1002F000CC78482C08BF02610133082BE4D145605B
:10030000F0BD00BF01617047416170470C4B002296
:100310001A701B78DBB24F2B0DD8094A094800210F
:100320001378DBB2C15413780133DBB21370137846
:10033000DBB24F2BF4D90022014B1A70704700BF7B
:100340006A0000201800002070B586B0012144F238
:10035000040000F003FA25238DF8143000248DF8F2
:1003600015408DF8164001258DF8175005A800F0AE
:10037000C5FA4FF40073ADF8103018238DF8133020
:1003800003238DF81230174E04A93046FFF76AFF99
:100390004FF48063ADF8103004238DF8133004A9B6
:1003A0003046FFF75FFF4FF4E1330093ADF80440B0
:1003B000ADF80640ADF80840ADF80C400C23ADF8A0
:1003C0000A30094C6946204600F004FA29462046C6
:1003D00000F05CFA2A4640F22551204600F064FA0B
:1003E00006B070BD0008014000380140164B1B8864
:1003F00003F020039BB233B310B5134800F074FA36
:10040000C0B2124A107012490B78DBB21078C0B239
:10041000104CE0540B780133DBB20B701378DBB275
:100420000D2B06D00B78DBB24F2B06D9FFF76EFFF2
:1004300003E00122074B83F85020044B197802484F
:1004400000F04EFA10BD70470038014069000020EE
:100450006A0000201800002070B5461E084C402598
:1004600008E0204600F03CFA2946204600F040FA19
:100470000028F9D016F8011F0029F2D170BD00BF85
:100480000038014010B500F093F84FF4803000F0D0
:10049000AFF800F085F9012820D1002000F0E8F83D
:1004A000002000F0F9F84FF4806000F0EBF84FF412
:1004B000E0114FF4803000F0B9F8012000F0C0F8EE
:1004C0003924204600F058F90028FAD0022000F024
:1004D000BDF800F0C5F80828FBD110BDFEE700BF4D
:1004E00070B582B0FFF7CEFF0121402000F036F951
:1004F0000425ADF8045010238DF8073003238DF840
:100500000630224C0DEB05012046FFF7ABFE2946D5
:100510002046FFF7F7FEFFF717FF1D48FFF79CFF88
:100520001C4C25461C4E94F85030DBB2012BFAD1FE
:10053000002384F850303046FFF78EFF2846FFF73F
:100540008BFF1648FFF788FF284600F057FA032272
:10055000134900F005FA30B91248FFF77DFF042176
:100560000A48FFF7D1FE284600F048FA04220E4957
:1005700000F0F6F930B90D48FFF76EFF042103488B
:10058000FFF7C0FEFFF7C2FECDE700BF0018014035
:10059000280A000818000020440A0008A80A0008D9
:1005A000600A0008640A0008840A00088C0A00082F
:1005B0000D4B1A6842F001021A6059680B4A0A4052
:1005C0005A601A6822F0847222F480321A601A6823
:1005D00022F480221A605A6822F4FE025A604FF414
:1005E0001F029A60704700BF001002400000FFF831
:1005F0000D4B1A6822F480321A601A6822F48022A5
:100600001A60B0F5803F03D0B0F5802F06D0704758
:10061000054A136843F4803313607047024A136835
:1006200043F4A0231360704700100240034A53684C
:1006300023F47C13194308435060704700100240B4
:10064000014B1860704700BF60004242034A536884
:1006500023F0030318435060704700BF00100240AE
:10066000024B586800F00C00704700BF00100240B9
:10067000034A536823F0F00318435060704700BFEB
:1006800000100240034A536823F4E06318435060AB
:10069000704700BF00100240034A536823F46053C0
:1006A00043EAC000506070470010024010B4274B6E
:1006B0005B6803F00C03042B05D0082B06D0F3B9BC
:1006C000234B03601DE0224B03601AE01F4A53686E
:1006D0005268C3F38343023312F4803F04D11D4AAE
:1006E00002FB03F303600CE0184A526812F4003F67
:1006F00014BF184A164A02FB03F3036001E0144BCF
:100700000360124A5368C3F30313134CE35CD9B27A
:100710000368CB4043605168C1F30221615CC9B2F8
:1007200023FA01F181605168C1F3C221615CC9B251
:10073000CB40C3605268C2F381322244127CD2B2F1
:10074000B3FBF2F3036110BC704700BF001002401E
:1007500000127A0000093D000000002021B1054B85
:100760009A69104398617047024A936923EA00002E
:1007700090617047001002404309012B02D1074BE2
:100780001B6804E0022B054B0CBF1B6A5B6A00F080
:100790001F0023FA00F000F0010070470010024033
:1007A00010B582B00023019331242046FFF7E4FF07
:1007B000019B01330193019BB3F5A06F01D0002889
:1007C000F3D03120FFF7D8FF003018BF012002B06E
:1007D00010BD00BF30B587B004460D46038A9BB2FA
:1007E00023F44053CA8813430382828992B28988D2
:1007F0002B890B4369890B4322F4B05222F00C027F
:1008000013439BB28381838A9BB223F44073AA89EA
:100810001343838201A8FFF749FF1A4B9C420CBF88
:10082000049B039BA28912F4004F03EB830303EBA9
:100830008303296814BF49008900B3FBF1F1124B0F
:10084000A3FB012358090501642300FB1313A289AC
:1008500012F4004F09D0D90032310B4AA2FB01310A
:10086000C1F3421242EA050307E01B013233064A94
:10087000A2FB0323C3F343132B439BB2238107B093
:1008800030BD00BF003801401F85EB5129B183897D
:100890009BB243F4005383817047838923F4005350
:1008A0001B041B0C8381704710B4C1F3421401F088
:1008B0001F01012303FA01F19C4201D10C3003E036
:1008C000022C0CBF103014301AB1036819430160B8
:1008D00003E0036823EA0101016010BC704700BF18
:1008E000C1F30801818070478088C0F30800704719
:1008F0000388194214BF012000207047C378FBB160
:10090000154BDA68D243C2F30222C2F104014378E4
:1009100003FA01F10F23D340827813400B4302788E
:100920001B01DBB20D490A4482F8003303785809F1
:1009300003F01F03012202FA03F341F8203070474D
:1009400003785A0903F01F03012101FA03F320324F
:10095000024941F82230704700ED00E000E100E07C
:10096000002A3FD040EA010313F00303F0B425D17D
:10097000032A23D904680D68AC421FD1043A33D04E
:10098000A4F1013525EA040414F0803F2FD1071D9E
:100990000D1D0DE057F8043B0E68A3F10134B3427E
:1009A00024EA03040AD1043A1ED014F0803F21D176
:1009B000032A2946384605F10405EBD803780C785C
:1009C000013A9C420BD17AB114B915E062B173B10E
:1009D00010F8013F11F8014F013AA342F6D0181B5D
:1009E000F0BC7047104670471046F0BC7047184680
:1009F000F0BC70470020F3E72046F1E7037883B1AD
:100A0000014610B4074C22681A44527802F00302DF
:100A1000022A08BF203B0B7011F8013F002BF2D1D6
:100A200010BC7047140000202048656C6C6F2E0DC0
:100A30000A555341525431206973207265616479BB
:100A40002E0D0A000D0A49206861732072656365E6
:100A5000697665642061206C696E653A0D0A000054
:100A60004F4E0D000D0A5448495320495320412050
:100A7000434F4D4D414E4420224F4E222121210D06
:100A80000A0000004F46460D000000000D0A5448C1
:100A90004953204953204120434F4D4D414E44205E
:100AA000224F4646222121210D0A0000002020204D
:100AB000202020202020282828282820202020200E
:100AC00020202020202020202020202020881010DE
:100AD000101010101010101010101010100404043A
:100AE00004040404040404101010101010104141F8
:100AF00041414141010101010101010101010101E6
:100B000001010101010101011010101010104242F9
:100B100042424242020202020202020202020202B5
:100B20000202020202020202101010102000000055
:100B300000000000000000000000000000000000B5
:100B400000000000000000000000000000000000A5
:100B50000000000000000000000000000000000095
:100B60000000000000000000000000000000000085
:100B70000000000000000000000000000000000075
:100B80000000000000000000000000000000000065
:100B90000000000000000000000000000000000055
:0D0BA0000000000000000000000000000048
:100BAD000000000001020304010203040607080906
:080BBD0002040608AC0A00085E
:0400000508000000EF
:00000001FF
