:020000040800F2
:1000000078060020CD010008D5010008D7010008BE
:10001000D9010008DB010008DD0100080000000034
:10002000000000000000000000000000DF010008E8
:10003000E101000800000000E3010008E5010008FC
:10004000E7010008E7010008E7010008E7010008F0
:10005000E7010008E7010008E7010008E7010008E0
:10006000E7010008E7010008E7010008E7010008D0
:10007000E7010008E7010008E7010008E7010008C0
:10008000E7010008E7010008E7010008E7010008B0
:10009000E7010008E7010008E7010008E7010008A0
:1000A000E7010008E7010008E7010008E701000890
:1000B000E7010008E7010008E7010008E701000880
:1000C000E7010008E7010008E7010008E701000870
:1000D000E7010008E7010008E7010008E701000860
:1000E000E7010008E7010008E7010008E701000850
:1000F000E7010008E7010008E7010008E701000840
:10010000E7010008E7010008E7010008E70100082F
:10011000E7010008E7010008E7010008E70100081F
:10012000E7010008E7010008E7010008E70100080F
:1001300000F002F800F03AF80AA090E8000C8244BF
:100140008344AAF10107DA4501D100F02FF8AFF29C
:10015000090EBAE80F0013F0010F18BFFB1A43F0A5
:10016000010318474413000064130000103A24BF31
:1001700078C878C1FAD8520724BF30C830C144BF0C
:1001800004680C607047000000230024002500264E
:10019000103A28BF78C1FBD8520728BF30C148BFEA
:1001A0000B6070471FB51FBD10B510BD00F031F8D2
:1001B0001146FFF7F7FF00F015FF00F04FF803B40A
:1001C000FFF7F2FF03BC00F053F800000948804736
:1001D00009480047FEE7FEE7FEE7FEE7FEE7FEE729
:1001E000FEE7FEE7FEE7FEE704480549054A064B41
:1001F00070470000950700083101000878000020D2
:1002000078060020780200207802002070477047AE
:100210007047754600F028F8AE460500694653461B
:1002200020F00700854618B020B5FFF7DDFFBDE8D8
:1002300020404FF000064FF000074FF000084FF04D
:10024000000B21F00701AC46ACE8C009ACE8C009DE
:10025000ACE8C009ACE8C0098D4670470446AFF36E
:1002600000802046FFF7ABFF0048704714000020D5
:1002700001491820ABBEFEE72600020070470000CF
:1002800051B18200A2F1C042126842F00103820023
:10029000A2F1C042136009E08200A2F1C0421268DC
:1002A000034B1A408300A3F1C0431A60704700005B
:1002B000FEFF0F00D0E901121143C2681143026929
:1002C00011434269114382691143C2691143026AB1
:1002D0001143426A1143826A1143C26A1143026B9D
:1002E000114302689200A2F1C0421160816808299E
:1002F0000BD101688900A1F1C041096841F04002B9
:1003000001688900A1F1C0410A60416B0968426B34
:10031000526841EA0211426B926841EA0221426B43
:10032000928941EA0241426B128A41EA0251426BD0
:10033000127D41EA0261426B926911430268521CCC
:100340009200A2F1C0421160C16AB1F5804F1BD189
:10035000816B0968826B526841EA0211826B926874
:1003600041EA0221826B128A41EA0251826B127DBC
:1003700041EA0261826B9269114302689200A2F124
:10038000C042C2F8041107E06FF0704201688900B2
:10039000A1F1C041C1F804217047000000B597B039
:1003A0004648806940F07C004449886108464069BD
:1003B00040F4807048614248006842490840404922
:1003C000086008460068404908433D4908600846FF
:1003D00000683E4908433A490860081D00683C49E6
:1003E00008403749091D0860084600683949084334
:1003F0003349091D086008460068374908433049F9
:10040000091D0860354800683549084033490860CF
:100410000846006840F0004008600846006831491E
:1004200008432E490860081D006800F03330091D9C
:1004300008600846006840F0883008600846006898
:1004400040F03330086025481030006840F4003038
:100450002249103108601A481030006840F0B0009E
:1004600017491031086002200190002002900520F9
:100470000390002004900590069008060790002045
:100480000890099008200A9010200B9000200C90F2
:100490000E900F90109088141190002012901390DD
:1004A000149001A81590169008A8FFF703FF0121EA
:1004B0000020FFF7E5FE17B000BD0000001002406D
:1004C0000014014033FF333F88008880330033300D
:1004D0003333FF33888800883333003300180140FA
:1004E0003FFFFF3F3000003010B56F48006840F418
:1004F00000306D490860012000F04CFD6A4800683A
:1005000040F0020068490860E22000F0FCFC232073
:1005100000F03AFD022000F037FD542000F034FDD9
:10052000E02000F0F0FC012000F02EFD0A2000F099
:1005300031FDE02000F0E7FC032000F025FD0A205B
:1005400000F028FD012000F0DEFC142000F022FD68
:10055000E62000F0D8FC032000F016FD332000F068
:1005600013FD332000F010FDB02000F0CCFC202063
:1005700000F00AFD002000F007FD032000F004FD5C
:1005800040F21F3000F000FD012000F0FDFC40F2C1
:10059000DF1000F0F9FC002000F0F6FCB42000F0C1
:1005A000B2FC042000F0F0FC1F2000F0EDFC002065
:1005B00000F0EAFCD22000F0E7FC002000F0E4FCB0
:1005C000002000F0E1FC002000F0DEFC002000F044
:1005D000DBFCB62000F097FC022000F0D5FC0C20DC
:1005E00000F0D2FC002000F0CFFC222000F0CCFC78
:1005F000002000F0C9FC002000F0C6FC002000F044
:10060000C3FCB82000F07FFC0F2000F0BDFC0120EF
:1006100000F0BAFCBA2000F076FC012000F0B4FC37
:10062000362000F070FCC02000F0AEFC3A2000F054
:100630006AFC502000F0A8FCF02000F064FC0320CD
:1006400000F0A2FCBC2000F05EFC402000F09CFC0E
:10065000802000F099FC402000F096FC012000F082
:1006600093FC052000F096FC292000F04CFCBE20F5
:1006700000F049FC062000F087FC802000F084FC9C
:10068000012000F081FCF02000F07EFC002000F052
:100690007BFC002000F078FCD02000F034FC0D2022
:1006A00000F072FC10BD00001018014010B500F001
:1006B00001F810BD0CB5002001900090334800688F
:1006C00040F480303149086000BF3048006800F4D1
:1006D000003000900198401C0190009818B90198D2
:1006E000B0F5A06FF1D12948006800F4003010B1D6
:1006F0000120009001E0002000900098012843D1E3
:100700002348006840F0100021490860084600684E
:1007100020F0030008600846006840F0020008600E
:100720001A484068194948600846406848600846C9
:10073000406840F4806048600846406820F47C10BF
:1007400048600846406840F4E81048600846006881
:1007500040F08070086000BF0C48006800F0007036
:100760000028F9D00948406820F003000749486094
:100770000846406840F00200486000BF03484068F7
:1007800000F00C000828F9D10CBD00000010024058
:100790000020024010B51348006840F001001149E4
:1007A000086008464068104908400E4948600846FD
:1007B00000680E4908400B4908600846006820F4AC
:1007C000802008600846406820F4FE0048604FF42E
:1007D0001F008860FFF76AFF4FF00060044908605F
:1007E00010BD0000001002400000FFF8FFFFF6FE01
:1007F00008ED00E070B5054600244FF4F0734FF4A7
:1008000048720021084600F082FB00BF03E0284642
:1008100000F0BAFB641C02488442F8D370BD0000AB
:1008200000DC05002DE9F84F0746884691469A46B8
:10083000DDF828B00C9C002600252CE0002626E0E0
:100840000B982038082101FB00B0405DC6F107017C
:10085000084100F0010060B105FB048291B206FB83
:10086000047290B223462246CDF8009000F0B9F908
:100870000BE005FB048291B206FB047290B22346A2
:100880002246CDF800A000F0ACF9701CC6B2082ECC
:10089000D6DB681CC5B2082DD0DBBDE8F88F2DE98A
:1008A000F84F06460F4691469B46DDF82C80002403
:1008B0004D46C9F1010A95E0BBF1010F30D14FEA75
:1008C000450C0CF1010C1FFA8CF34FEA440C0CF1AF
:1008D000010C1FFA8CF2A7EB050C1FFA8CF1A6EBAA
:1008E000040C1FFA8CF0CDF8008000F07AF94FEA82
:1008F000440C0CF1010C1FFA8CF34FEA450C0CF17F
:10090000010C1FFA8CF2A7EB040C1FFA8CF1A6EB7A
:10091000050C1FFA8CF0CDF8008000F062F94FE072
:10092000EA1991B2A21990B2CDF800800A9B1A463A
:1009300000F057F9E21991B2AA1990B2CDF80080EF
:100940000A9B1A4600F04DF9EA1991B2321B90B297
:10095000CDF800800A9B1A4600F043F9E21991B2E3
:10096000721B90B2CDF800800A9B1A4600F039F94C
:100970003A1B91B2AA1990B2CDF800800A9B1A4690
:1009800000F02FF97A1B91B2A21990B2CDF8008035
:100990000A9B1A4600F025F97A1B91B2321B90B2DD
:1009A000CDF800800A9B1A4600F01BF93A1B91B261
:1009B000721B90B2CDF800800A9B1A4600F011F924
:1009C000BAF1000F06DA0AF10300022101FB040A62
:1009D000641C07E0611B0AF10500022202FB010A08
:1009E000641C6D1EAC427FF767AFBDE8F88F2DE940
:1009F000FE4F06460F4692469946DDF83480CAF10E
:100A000001000FFA80FB012002904FEA4A004042A9
:100A100000B201900024554672E0BBF1000F09DBE3
:100A2000681E05B20198801C00B2019001985844DC
:100A30000FFA80FB601C04B20298801C00B2029086
:100A4000029858440FFA80FB09F0040098B17A1913
:100A500091B2321990B2CDF800800C9B1A4600F08A
:100A6000C0F83A1991B2721990B2CDF800800C9B7F
:100A70001A4600F0B6F809F0020098B17A1B91B25C
:100A8000321990B2CDF800800C9B1A4600F0A9F8FC
:100A90003A1B91B2721990B2CDF800800C9B1A46A5
:100AA00000F09FF809F0080098B13A1991B2721B52
:100AB00090B2CDF800800C9B1A4600F092F87A199B
:100AC00091B2321B90B2CDF800800C9B1A4600F018
:100AD00088F809F0010098B13A1B91B2721B90B2EC
:100AE000CDF800800C9B1A4600F07BF87A1B91B27F
:100AF000321B90B2CDF800800C9B1A4600F071F8C2
:100B0000AC428ADBBDE8FE8F2DE9FF5F06460F464B
:100B100090469B46DDE90E9AC8F1010000B20390B1
:100B2000012002904FEA4800404200B201900024A8
:100B3000454652E0039800280ADB681E05B201987A
:100B4000801C00B2019001990398084400B2039000
:100B5000601C04B20298801C00B20290DDE9021011
:100B6000084400B203900BF00100C8B16B005B1C9D
:100B70004B449AB27B1B99B2331998B20123CDF83A
:100B800000A000F0A4F963005B1C4B449AB23B1B2D
:100B900099B2731998B20123CDF800A000F097F92B
:100BA0000BF00200C8B16B005B1C4B449AB27B1B7C
:100BB00099B2331B98B20123CDF800A000F087F959
:100BC00063005B1C4B449AB23B1B99B2731B98B2F7
:100BD0000123CDF800A000F07AF9AC42AADBBDE811
:100BE000FF9F2DE9F0470746884614461D46DDF86D
:100BF000209000262B4622464146384600F087F9D1
:100C000000BF03E0484600F0BFF9761C04FB05F086
:100C1000B042F7D8BDE8F0872DE9FC4705460E46FF
:100C200017469846DDE90A49022101FB14718AB290
:100C3000291988B243463146CDF80090FFF7D1FF1D
:100C4000022000FB1480401E00B2321911B2EA19D2
:100C5000121B521ECDE9000910B2012322B2FFF788
:100C600053FF022000FB1480401E00B2321911B263
:100C70002A19CDE9000910B2022322B2FFF744FF7E
:100C8000BDE8FC872DE9F0470746884614461D4617
:100C9000DDF8209000262B4622464146384600F0DB
:100CA00036F900BF04E0484600F06EF9701C86B2C9
:100CB00004FB05F0B042F6DCBDE8F0872DE9FE4FFD
:100CC00004460D4616461F46301B002801DB014630
:100CD00000E041428946781B002801DB014600E024
:100CE00041428A46B44201DA012001E04FF0FF3070
:100CF0000290BD4201DA012001E04FF0FF30019087
:100D0000A9EB0A084FF0000B00BF0D9800900C9B58
:100D10001A4629462046FFF764FFB44202D1BD427D
:100D200000D111E04FEA480BCAF10000834504DD11
:100D3000A8EB0A080298204484B2CB45E5DAC844FF
:100D40000198284485B2E0E700BFBDE8FE8F2DE999
:100D5000FC4705460E4690469946DDE90BA70A9CDE
:100D6000022101FB14818AB2291988B25346314607
:100D70000097FFF787FF022303FB14839AB206EB69
:100D800009035B1E99B22B1998B253460097FFF7DF
:100D900079FF022000FB149082B2301981B25346D1
:100DA0002846009700F093F8022303FB14939AB2AD
:100DB000331999B205EB08035B1E98B253460097AE
:100DC00000F085F8321911B22A1910B2012322B2AB
:100DD000CDE900A7FFF70BFE321911B205EB0802AF
:100DE000121B521E10B2022322B2CDE900A7FFF758
:100DF000FEFD06EB0902121B521E11B205EB0802A2
:100E0000121B521E10B2042322B2CDE900A7FFF735
:100E1000EEFD06EB0902121B521E11B22A1910B286
:100E2000082322B2CDE900A7FFF7E1FDBDE8FC876A
:100E30002DE9FE4F04460F4690469946DDE90CA584
:100E40000E9E18E004F10800B0F5487F04DB012491
:100E5000082000FB067087B228784B464246394688
:100E6000CDE900A002962046FFF7DCFC082000FB3D
:100E7000064084B26D1C28780028E3D1BDE8FE8FBF
:100E80002DE9FC5F06460F4690469946DDE90CAB1E
:100E9000DDE90E45E8B24B4642463946CDE900044D
:100EA0003046FFF70BFFE8B25B4652464946CDE9B4
:100EB00000044046FFF702FFE8B23B46324659467F
:100EC000CDE900045046FFF7F9FEBDE8FC9F2DE98F
:100ED000F0470746884614461D46DDF82090002658
:100EE00023462A464146384600F011F800BF04E088
:100EF000484600F049F8701C86B204FB05F0B04289
:100F0000F6DCBDE8F0874FF0C041087070472DE96E
:100F1000F04105460C4616461F46A819401E81B2F0
:100F2000284600F00BF8E019401E81B2204600F080
:100F300018F82C20FFF7E7FFBDE8F08170B50446F4
:100F40000D462A20FFF7DFFF201200F01DF8E0B267
:100F500000F01AF8281200F017F8E8B200F014F8C0
:100F600070BD70B504460D462B20FFF7CCFF201254
:100F700000F00AF8E0B200F007F8281200F004F8D8
:100F8000E8B200F001F870BD014908807047000028
:100F900000000260104A12684FF47A73B2FBF3F259
:100FA00002FB00F10D4A126842F080720B4B1A608E
:100FB00000220B4B5A601A46126842F001021A6076
:100FC00000BF074A52688A42FBD3054A126822F0E2
:100FD0000102034B1A60704700000020FCED00E0A6
:100FE000001000E01FB5FFF7D9F9FFF77DFA4FF4C5
:100FF0007840FFF7FFFB0020FFF7FCFB03203521C3
:10100000614A0023CDE9002102901F2264214FF4A0
:10101000FA70FFF707FC032062215B4A0023CDE949
:10102000002102904FF4FC62C8214FF4FA70FFF7E0
:10103000F9FB03203521544A0023CDE90021029019
:101040004FF4FC624FF49671C820FFF7EBFB0520CC
:101050004EA14D4A0023CDE9002102901F224FF4FA
:1010600096710846FFF7E4FE052049A1464A002391
:10107000CDE9002102904FF478424FF4967140F28E
:10108000A510FFF7D5FE052043A13F4A0023CDE977
:10109000002102904FF618724FF4AF714FF4BE70FA
:1010A000FFF7C6FE032000214FF48C731A46CDE9EA
:1010B000001078210846FFF701FE4FF4645002212A
:1010C0004FF496720092C823CDE901210390642267
:1010D00011461046FFF7D4FE4FF47840022100235A
:1010E0003222CDE900104FF4AF714620FFF7D7FB55
:1010F0004FF47840022101233222CDE900104FF451
:10110000AF714620FFF7CBFB4FF4FC6002210023B8
:101110006422CDE90010962140F28A20FFF7BFFB40
:101120004FF6187002210A226423CDE900210290B3
:101130001A464FF4AF719620FFF709FE4FF618706C
:101140000A2164231A46CDE9001096219800FFF782
:1011500063FD4FF618700A213223AA22CDE9001050
:1011600019469620FFF758FD03200DA1064A4FF6B9
:101170001873CDE9002102904FF478424121AA2052
:10118000FFF756FE00BFFEE7A81100086875620071
:10119000737475622E7275005353443139363300BF
:1011A00053544D33320000000000000000000000E6
:1011B00004040404000400000A0A0A0000000000FD
:1011C0000A0A1F0A1F0A0A00040F140E051E040053
:1011D00018190204081303000C12140814120D004D
:1011E0000C040800000000000204080808040200C3
:1011F00008040202020408000004150E1504000091
:101200000004041F04040000000000000C04080097
:101210000000001F0000000000000000000C0C0097
:1012200000010204081000000E11131519110E0020
:10123000040C040404040E000E11010204081F0033
:101240001F02040201110E0002060A121F02020010
:101250001F101E0101110E000608101E11110E00B4
:101260001F010204080808000E11110E11110E00D2
:101270000E11110F01020C00000102040810000001
:10128000000C0C000C040800020408100804020002
:1012900000001F001F0000000804020102040800F3
:1012A0000E110102040004000E11010D15150E00AF
:1012B0000E1111111F1111001E11111E11111E000E
:1012C0000E11101010110E001C12111111121C0021
:1012D0001F10101E10101F001F10101E10101000E5
:1012E0000E11101711110E001111111F1111110003
:1012F0000E04040404040E000702020202120C0091
:1013000011121418141211001010101010101F00D8
:10131000111B1515111111001111191513111100BF
:101320000E11111111110E001E11111E10101000BE
:101330000E11111115120D001E11111E14121100A3
:101340000F10100E01011E001F0404040404040009
:101350001111111111110E0011111111110A0400B6
:101360001111111115150E0011110A040A111100A5
:101370001111110A040404001F01020408101F00C7
:101380000E08080808080E00110A1F041F040400B4
:101390000E02020202020E00040A11000000000008
:1013A0000000000000001F00080400000000000012
:1013B00000000E010F110F0010101E1111111E0060
:1013C00000000E1010110E0001010D1311110F007D
:1013D00000000E111F100E000609081C0808080066
:1013E000000F11110F010E0010101619111111002C
:1013F00004000C0404040E000200060202120C0099
:1014000010101214181412001808080808081C00FC
:1014100000001A1515111100000016191111110004
:1014200000000E1111110E0000001E111E10100000
:1014300000000F110F01010000001619101010001C
:1014400000000E100E011E0008081C080809060006
:101450000000111111130D0000001111110A0400F8
:101460000000111111150A000000110A040A1100F0
:10147000000011110F010E0000001F0204081F00E0
:101480001715151517000000171117141700000085
:1014900017141711170000000105091F08040000A8
:1014A00000070E1C111E0000C814000800000020D8
:1014B000140000006C010008DC1400081400002077
:1014C000640600008801000800A24A040000000031
:0C14D000000000000102030406070809E8
:0400000508000131BD
:00000001FF
