:020000040800F2
:10000000C0050020FD0E00084D1D0008511D000810
:10001000551D0008591D00085D1D00080000000066
:10002000000000000000000000000000611D00084A
:10003000651D000800000000691D00086D1D000816
:10004000F90E0008F90E0008F90E0008F90E000874
:10005000F90E0008F90E0008F90E0008F90E000864
:10006000F90E0008F90E0008F90E0008F90E000854
:10007000F90E0008F90E0008F90E0008F90E000844
:10008000F90E0008F90E0008F90E0008F90E000834
:10009000711D0008F90E0008F90E0008F90E00089D
:1000A000F90E0008F90E0008F90E0008F90E000814
:1000B000F90E0008F90E0008F90E0008F90E000804
:1000C000F90E0008F90E0008F90E0008F90E0008F4
:1000D000F90E0008F90E0008F90E0008F90E0008E4
:1000E000F90E0008F90E0008751D00080000000058
:1000F0000000000000000000000000000000000000
:1001000000000000000000005FF808F108B538B1F9
:10011000064B1B681B689847054B18680A3008BDDA
:10012000034B01221B681A8208BD00BFA8010020F2
:10013000AC01002008B538B1064B1B689B68984796
:10014000054B18680C3008BD034B01221B681A824E
:1001500008BD00BFA8010020AC01002008B51F4B5E
:10016000002832D01E481A6800210180137813F04D
:100170007F0316D0012B27D0022B24D1527902F015
:100180000F039B0003F1804303F5B84312061B687D
:100190001FD403F44053B3F5805F0ED101230370E5
:1001A0000BE0527A930654BF0378022351064CBFEA
:1001B00043F0010323F0010303700A4B1B681B6922
:1001C0009847074808BD084608BD1B6802221A82E6
:1001D00008BD03F03003102BEFD1DFE7AC010020A6
:1001E00004010020A80100202DE9F041244F3C68C3
:1001F000258A2DB9267A042E2AD0A38A042603E064
:10020000A38A9D42FAD902269D4228BF1D46A369B2
:10021000284698478046002000F00CFE2A460146FA
:10022000404601F009FE2946002000F01FFE638AC7
:10023000228A1449521B1D44134B228265823020AE
:100240004FF440523C6808801A802672BDE8F08165
:100250000E4B1A78012A06D00A4B07261022267266
:100260001A80BDE8F0810A490A4A0968054889B23E
:100270000A445200302115601D700180E5E700BF7F
:10028000AC0100200801002006010020EC00002045
:10029000505C00400230002038B52F4B1B681878A6
:1002A00010F07F0003D0022806D0022038BD5A7A11
:1002B00022F020025A7238BD5A88002AF6D11A79E3
:1002C000002AF3D15A7922F080008400150604F147
:1002D0008044224D04F5B84421682D784CBF01F0CC
:1002E000300101F44051A842DFD20029DDD09B7AD1
:1002F000002BDAD01206236809D503F03003102B47
:100300001ED0174B1B685B699847002038BD03F46B
:100310004053B3F5805FF4D1D8B9124B93F82C1049
:1003200000F0B2FD236823F4804323F070039BB2F6
:1003300083F4405343F4004343F080032360E0E739
:10034000C4B2204600F044FD2046302100F0C2FC3B
:10035000D7E700F02BFDE5E7AC010020A800002066
:10036000A80100202400002038B5204B1C686179CA
:1003700021F0800083000D0603F180431C4D03F53E
:10038000B8431A682D784CBF02F0300202F4405294
:10039000A84201D3022038BD60880028FAD1002A83
:1003A000F8D0A27A002AF5D009061A6811D522F4ED
:1003B000E04222F0400292B282F0100242F4004287
:1003C00042F080021A600B4B1B689B699847002023
:1003D00038BD22F4804222F0700292B282F4805240
:1003E00042F4004242F080021A60ECE7AC010020C7
:1003F000A8000020A8010020054B1B685A8A10B1F4
:1004000008681044704789888A1A1A82704700BFAA
:10041000AC010020F0B5A84EA84B34681A68237AC6
:1004200083B0092B39D0A64B92B213445B001D88D0
:100430006D0005F1804505F5C0452B7823706B787C
:100440006370A88800F052FD60802889346800F04D
:100450004DFDA080AB8934680122E38022720BB38A
:100460006078062800F0918000284BD1618800292F
:1004700000F0A380934D2B681B699847032800F078
:1004800013814FF6FF7133681A8A8A4200F0928016
:10049000022847D108221A721CE0E3880122227246
:1004A000002BDDD12378677813F07F0347D0012B31
:1004B00000F0CF80022B00F02B81824D2B68384654
:1004C0005B699847032800F05681346800284FD0B4
:1004D000082323727C4B002093F82C1000F0D4FCEE
:1004E0003368187A082806D17849794B4FF480543C
:1004F00010220C801A80A0F10900B0FA80F04009A7
:1005000003B0F0BD08286AD123785B06B2D1714BE5
:100510000020A361608298474FF6FF7133681A8A02
:100520008A4247D0002AB5D093F90010002979DB20
:1005300066494FF44050032208801A72CAE7092F17
:1005400000F00181052F00F0D180032F00F0E98039
:10055000012FB2D1E378012BAFD1A388002BACD10E
:10056000637A9B06A9D5FFF797FE0028A5D13468CA
:10057000524A594B1268564992B213445B0000200C
:100580003022186006230A80A3E723785D067FF4F3
:1005900071AFA3784B4D012B00F0EA80022B00F0E5
:1005A0008780032B7FF467AF2B685B6A002BAFD18A
:1005B000062060E709221A728CE7636823F47F4300
:1005C000B3F5003F7FF456AF207810F07F0040F085
:1005D000D580A388002B7FF44DAF404B98E70A28C5
:1005E0007FF448AF237803F07F03012B7FF442AF01
:1005F000A37A002B3FF43EAF618800297FF43AAF25
:100600006368304D23F47F43B3F5803F7FF433AF0D
:100610002B6860799B699847002840F0EF80346828
:100620002F4B75E7D98801910198824235D89142C4
:1006300040F2AB802349096891F82C0081B29142C5
:1006400040F2A880274A002010709982FFF7CCFD65
:1006500040E70B2F1B4D7FF431AF2B68E1786079B9
:100660009B6998473368144C9A7A002A3FF426AF66
:1006700000287FF423AF1A79002A7FF41FAF9B78FC
:10068000002B7FF41BAF184B1B68DB68984724686E
:100690006279E378E27223736AE70A4A0199126881
:1006A000198292F82C10D0E7336809221A7211E7E8
:1006B0002B681B6A7AE700BFAC010020505C004049
:1006C00004300020840100202400002006010020C6
:1006D000080100200D010008023000205D01000823
:1006E00035010008EC000020A801002094F9033037
:1006F000002BFFF6EDAEA378002B7FF4E9AEA388C4
:10070000002B7FF4E5AEA37A002B3FF431AFDFE698
:10071000012F3FF428AF032F7FF4CFAEFFF724FE65
:1007200023E7E378012B7FF4C8AEA388002B7FF486
:10073000C4AE637A334A43F0200312686372D3690C
:100740009847346814E7304AE37852789A42FFF4C5
:10075000B4AEA278002A7FF4B0AEA288002A7FF45B
:10076000ACAE284AA37213685B6898473468FFE60A
:100770002B68DB691AE734680923AAE6012830D020
:10078000022812D00846214D75E6204A126892F8D8
:100790002C105AE792FBF0F400FB1422002A7FF49D
:1007A00054AF1B4A012010704FE7607900F00F0230
:1007B0009300010603F18043134903F5B8431B6816
:1007C00009784CBF03F0300303F440538A4206D249
:1007D00010F0700003D1002B7FF4FFAE4AE600203A
:1007E00048E60A4D60792B689B69984730B93468B0
:1007F000A37A002B7FF4F1AE60783CE6336858783A
:1008000039E600BFA8010020A800002084010020D4
:10081000EC000020F8B5284C23681A7A022A26D06A
:10082000042A24D0062A18D00821244A197200204C
:1008300092F82C1000F028FB2368187A082806D1BB
:100840001F49204B4FF4805410220C801A80A0F1D5
:100850000900B0FA80F04009F8BD5A78052A0BD09B
:10086000194B1B689B68984723680821DDE7FFF751
:10087000BBFC2368197AD8E71A7812F07F02EFD10F
:100880001249DF780E7876B1114840F60F7105688D
:1008900042F40043294043F0800301320B43964267
:1008A00040F8043BF1D10B4B0B4A1B6847F0800723
:1008B00017601B6A9847D3E7AC0100202400002092
:1008C000060100200801002084010020A80000206B
:1008D000005C0040A80100204C5C0040F8B5394D98
:1008E0002C68237A022B07D0042B05D0032B1CD0B5
:1008F000052B1AD0072B45D00823334A237200203A
:1009000092F82C1000F0C0FA2B68187A082806D14B
:100910002E492F4B4FF4805410220C801A80A0F1E6
:100920000900B0FA80F04009F8BDA369228AB3B18A
:10093000B2B1A68A964228BF164630469847228A08
:10094000638A921B3344074622826382002000F0B0
:100950007FFA32460146384601F082FA228AC2B94D
:10096000A38A2BB31A492C6806221A4B22721A68E2
:10097000194B92B213445B0000221A603022237A92
:100980000A80BAE7154B1B68DB6898472C68082378
:10099000B3E70E4B00214FF4405208461A8000F096
:1009A00065FA238AA28A0A4930209A42088003D82D
:1009B0002C6803232372A0E7002BD4D02C680523D6
:1009C00023729AE7AC0100202400002006010020D9
:1009D00008010020505C004002300020840100200B
:1009E00070B40C4B1E787EB10B4C002240F60F7198
:1009F000256842F40043294043F0800301320B4351
:100A0000964244F8043BF1D1044B40F0800018605A
:100A100070BC7047A8000020005C00404C5C0040A7
:100A2000704700BF2DE9F043002385B0DFF86491E3
:100A3000DFF86C81534EADF80E30D8F80030524CD0
:100A40009AB213F4004F514F514DA9F8002051486C
:100A50004C4900F08B80038803F00F039A0002F1E9
:100A6000804202F5B8422B70002B2FD14BF6BF739A
:100A7000226892B23280328802F030023A803288A4
:100A800002F4405232802268134083F4005383F012
:100A9000200343F4004343F0800323600388D80617
:100AA0003CD523689BB2ADF80E30BDF80E301A0568
:100AB0005FD4BDF80E301B04BFD540F68F7322689B
:100AC000019113402360FFF709FF2FE0116889B2FD
:100AD000ADF80E10BDF80E10090414D4BDF80E3098
:100AE0001B06AAD548F60F712A782B48930003F10C
:100AF000804303F5B8431C68013A2140196050F85F
:100B00002230984799E740F68F71146823482140B6
:100B1000013B50F8233011609847DFE748F60F7328
:100B20002268019113402360FFF774FE4BF6BF73F8
:100B3000019920680A880340D6040A8848BF83F4D4
:100B4000805395043A8848BF83F40053D4063A880A
:100B500048BF83F01003900648BF83F0200343F49E
:100B6000004343F08003084A9BB2136005B0BDE820
:100B7000F08340F68F732268019113402360FFF7E2
:100B800049FCD3E706010020005C0040080100207A
:100B900088010020B8010020D0000020B40000200F
:100BA000445C00403C4B30B418683C4940F00100C4
:100BB00018605D6882B0294059601968002021F0F2
:100BC000847121F48031196019684FF41F0421F4F5
:100BD0008021196059681A4621F4FE0159609C6011
:100BE00000900190196841F48031196003E0009B86
:100BF000B3F5A06F09D0136803F400330193009B91
:100C000001330093019B002BF1D0234B1B6813F49D
:100C1000003318BF01230193019B012B06D0204B09
:100C20004FF000629A6002B030BC70471D4A1A4B08
:100C30001068194640F010001060106820F00300A2
:100C40001060106840F0020010605A685A605A68DC
:100C50005A605A6842F480625A605A6822F47C12E0
:100C60005A605A6842F4E8125A601A6842F0807278
:100C70001A600B68084A9B01FBD51146536823F0A4
:100C800003035360536843F0020353604B6803F05F
:100C90000C03082BFAD1C2E7001002400000FFF855
:100CA00000ED00E0002002404FF6F873014A0340D7
:100CB00013607047505C0040800000F1804000F5F8
:100CC000B840036823F4EC4323F07003194389B25E
:100CD00001607047800000F1804000F5B840036873
:100CE000CA0623F4E04323F040039BB248BF83F0DD
:100CF00010038A0648BF83F0200343F4004343F007
:100D000080030360704700BF800000F1804000F561
:100D1000B8400368CA0423F4804323F070039BB2F5
:100D200048BF83F480538A0448BF83F4005343F4DC
:100D3000004343F080030360704700BF800000F170
:100D4000804000F5B840036823F4E04323F04003FB
:100D50009BB283F0300343F4004343F0800303600D
:100D6000704700BF800000F1804000F5B840036884
:100D700023F4804323F070039BB283F4405343F485
:100D8000004343F080030360704700BF40F60F62EA
:100D9000800000F1804000F5B8400368134043F440
:100DA000004343F080030360704700BF800000F100
:100DB000804000F5B84003685B0408D540F60F7327
:100DC0000268134043F4404343F0800303607047DC
:100DD000800000F1804000F5B84003685B0608D54C
:100DE00040F60F730268134043F4004343F0C0031E
:100DF00003607047064B49081B6849009BB203EB30
:100E0000C00000F1005000F5405040000160704704
:100E1000505C0040054A064B1268490892B202EB4A
:100E2000C000034449005B0019607047505C0040FB
:100E300004300020054B1B689BB203EBC00000F19F
:100E4000005000F54050400000887047505C004062
:100E5000044A054B126892B202EBC00003445B00E7
:100E600018887047505C004004300020044A054B4D
:100E7000126892B202EBC00003445B001960704735
:100E8000505C0040023000200E4A0F4B12683E2991
:100E900092B202EBC00003444FEA43030AD94A0965
:100EA000C80604BF02F1FF3292B2920242F400423D
:100EB0001A6070474A08C90748BF013292021A6097
:100EC000704700BF505C004006300020054A064BCA
:100ED000126892B202EBC00003445B001868C0F3D2
:100EE00009007047505C004006300020C3B2000A81
:100EF00040EA0320704700BFFEE700BF08B50D4879
:100F00000D4B984207D2C2431A4422F00302043226
:100F10000A4901F08BF80A480A494FF0000288425A
:100F2000B8BF40F8042BFADBFFF73CFEBDE80840F1
:100F300000F092BD00000020EC000020CE2100084F
:100F4000EC000020BC01002010B5012182B020205F
:100F500000F070FE4FF400740322142301A90D4821
:100F60008DF806208DF80730ADF8044000F00EF93A
:100F70004FF4802000F0D2FE074B082101224FF4ED
:100F8000802418461C6059719A7100F089FE02B0E5
:100F900010BD00BF001401405001002008B5002022
:100FA00000F042FEBDE8084001214FF4000000F0CF
:100FB0004FBE00BF064B9B7A23B9064B01221A6035
:100FC000FFF7F0BD034B05221A60FFF7EBBD00BF32
:100FD0008C010020F400002010B54FF4A06082B016
:100FE00000F0EAFE01241421022201A800238DF85A
:100FF00004108DF805208DF806308DF8074000F0BC
:10100000E5FE2A2301A88DF805408DF8043000F094
:10101000DDFE02B010BD00BF4FF4007110B90348EF
:1010200000F09ABA014800F099BA00BF00140140DC
:10103000404B414A1B6812689B1879D03F4A180FF1
:10104000116809283E4A94BF303037301B0110B474
:1010500090700024180F0928D470394C94BF303098
:1010600037301B012071180F002409285471344CAB
:1010700094BF303037301B01A071180F00240928AD
:10108000D4712F4C94BF303037301B012072180FB1
:101090000024092854722A4C94BF303037301B0189
:1010A000A072180F00240928D472254C94BF303048
:1010B00037301B012073180F002409285473204C6B
:1010C00094BF30303730C3F30363A0730020092B83
:1010D000D0731B4894BF3033373303740B0F002099
:1010E000092B5074164894BF3033373383740B0187
:1010F000190F00200929D074114894BF30313731BD
:101100001B010175190F0020092950750C4894BF67
:1011100030313731C3F3036381750021092BD17559
:10112000074994BF303337330B760023537610BC16
:10113000704700BFE8F7FF1FF0F7FF1FECF7FF1F36
:10114000000000203F2901D90020704738B5084B26
:101150008CB222460025C0211D6000F06DFE2146A4
:101160000120FFF783FE0120FFF7E8FD012038BDD5
:10117000AC00002008B5044B002203201A60FFF7E2
:10118000F1FD012008BD00BFB000002030B4CD78D3
:10119000EB0648BF8B7805F00F0448BF1C430B8853
:1011A00013F0FF0F33D0482D026800F09980282DEE
:1011B00000F0FB80D90744BF22F00F0222439907B9
:1011C00044BF22F0F00242EA0412590744BF22F45D
:1011D000706242EA0422190744BF22F4704242EAD4
:1011E0000432D90644BF22F4702242EA044299062E
:1011F00044BF22F4700242EA0452590644BF22F06E
:10120000706242EA0462190600F19F800260FF2BBF
:1012100031D9282D426830D0482D00F09980D90569
:1012200044BF22F00F0222439D0544BF22F0F0028A
:1012300042EA0412590544BF22F4706242EA0422D1
:101240001D0544BF22F4704242EA0432D90444BF6F
:1012500022F4702242EA04429D0444BF22F4700248
:1012600042EA0452590444BF22F0706242EA046226
:101270001B0467D4426030BC704703F4807189B2AC
:10128000002940F0118103F4007189B2002940F077
:10129000058103F4806189B2002940F0F98003F4EC
:1012A000006189B2002940F0ED8003F4805189B2D9
:1012B000002940F0E18003F4005189B2002940F098
:1012C000D58003F4804189B2002940F0C98003F43D
:1012D00000439BB2002BCDD064F31F724361C9E77A
:1012E00013F0010140F0038103F0020189B20029EB
:1012F00040F0F78003F0040189B2002940F0EB8050
:1013000003F0080189B2002940F0DF8003F01001EA
:1013100089B2002940F0D38003F0200189B200296E
:1013200040F0C78003F0400189B2002940F0E4801A
:1013300003F0800189B200293FF468AF64F31F72A3
:10134000016163E764F31F7294E764F31F725DE762
:1013500003F4807189B200296BD103F4007189B262
:10136000002960D103F4806189B2002955D103F4CA
:10137000006189B200294AD103F4805189B2002961
:1013800062D103F4005189B2002957D103F480419E
:1013900089B200295ED103F400439BB2002B3FF4D5
:1013A00069AF64F31F72036164E713F0010140F059
:1013B000CD8003F0020189B2002940F0C18003F022
:1013C000040189B2002940F0B58003F0080189B218
:1013D000002940F0A98003F0100189B2002940F0F3
:1013E0009D8003F0200189B2002940F0918003F034
:1013F000400189B2002940F0858003F0800189B264
:1014000000293FF403AF64F31F724161FEE622F44A
:10141000704242EA04320161AEE722F4706242EAAD
:1014200004220161A3E722F0F00242EA0412016102
:1014300098E722F00F02224301618EE722F4700246
:1014400042EA04520161A1E722F4702242EA044216
:10145000016196E722F0706242EA046201619AE754
:1014600022F0706242EA0462416130E722F47002C5
:1014700042EA0452416124E722F4702242EA044223
:10148000416118E722F4704242EA043241610CE7FC
:1014900022F4706242EA0422416100E722F0F00285
:1014A00042EA04124161F4E622F00F022243416154
:1014B000E9E622F4700242EA0452016132E722F4C2
:1014C000702242EA0442016126E722F4704242EAB5
:1014D000043201611AE722F4706242EA04220161D7
:1014E0000EE722F0F00242EA0412016102E722F064
:1014F0000F0222430161F7E622F0706242EA0462C1
:10150000016115E722F0706242EA0462416174E70A
:1015100022F4700242EA0452416168E722F4702228
:1015200042EA044241615CE722F4704242EA04323A
:10153000416150E722F4706242EA0422416144E7CB
:1015400022F0F00242EA0412416138E722F00F0271
:10155000224341612DE700BF01617047416170473F
:10156000034B9B7A13B1034B05221A60704700BFEF
:101570008C010020F4000020014B04221A60704707
:10158000F4000020034B1A78202A04BF00221A70AE
:10159000704700BFED000020704700BF212810B544
:1015A00004D02028034610D0022010BD0E4B1A682C
:1015B000137803F07F03212BF6D10C4900249161AD
:1015C000548220468847204610BD074A1268117889
:1015D00001F07F01212903D0054A0220137010BDBC
:1015E000034804490370E9E7AC01002081170008B3
:1015F000ED0000202D160008074B1B681B7803F038
:101600007F03212B01D00220704700F0DF00022869
:1016100014BF022000207047AC01002009B1022055
:10162000704701288CBF02200020704708B1034892
:101630007047034B08221B681A8270471C00002069
:10164000AC01002010B5FFF7F3FC054B00241B682C
:101650009C7200F0A1F800F067FB024B1C6010BD0B
:10166000AC010020F4000020334B344A1B68D279CF
:1016700010B500245A729C72DC722046FFF714FBEE
:1016800020464FF40071FFF717FB20461021FFF7AB
:1016900021FB20464021FFF7BDFB80212046FFF7BC
:1016A000A9FB2046FFF772FB254B204693F8341028
:1016B000FFF7EAFB2046FFF755FB21460120FFF725
:1016C000FBFAC0210120FFF795FB20210120FFF745
:1016D00001FB21460120FFF717FB4FF4C0610220F8
:1016E000FFF7EAFA4FF480710220FFF783FB2146EF
:1016F0000220FFF709FB20210220FFF7EBFA214629
:101700000320FFF7D9FA4FF488710320FFF782FB1B
:1017100040210320FFF7B8FB4FF440510320FFF7AF
:10172000F3FA21460320FFF7D5FA2046FFF758F9D0
:10173000044B01221A6010BDAC0100207821000882
:101740001C000020F40000200149FEF755BE00BF38
:10175000540000200149FEF74FBE00BF5C0000208E
:10176000054B1B68DB78042B04D8044901EBC3014B
:10177000FEF742BE00207047AC010020640000204C
:1017800008B103487047034B08221B681A82704750
:101790001C000020AC01002038B50120FFF73CFC04
:1017A000064D074B074C00224FF4E0510120186012
:1017B0001A6010462A602180196038BD445C0040E0
:1017C000405C0040B0010020F0B441490023414A90
:1017D00082B001930B6810683F4A404C80B21060A1
:1017E00020689BB280B25060606843F4806580B22C
:1017F0009060A06880B2D060E06880B2106120691B
:1018000080B25061606980B29061A66923F00104E2
:101810002B46A4B2B6B245F0010544F480673048C7
:10182000D6610B600D600F6003682D495D05FBD527
:101830004FF6FF330B60136826489BB20360536872
:1018400044F481649BB2436093689BB28360D36825
:101850009BB2C36013699BB2036153699BB243613E
:1018600093699BB28361D369194A9BB2C3611460C7
:1018700013681C4C9BB243F00403136023681A489E
:101880000193236823F0030343F0010323600369FA
:1018900043F0040303610B68DB0410D54EF6FF75BB
:1018A0004FF6F7730D6011680B401360019B2360C6
:1018B000036923F00403036102B0F0BC704730BF3A
:1018C000036923F00403036102B0F0BC704700BF5A
:1018D000405C0040005C004060010020045C00406F
:1018E000445C00400070004000ED00E070B5324CF8
:1018F000072818BF20702378052B4BD8DFE803F0AA
:10190000181F30353F0363782B49013BDBB263700E
:10191000637803F0FF02002B3ED14FF6EF732748A8
:10192000274C06680625334003600D70226070BDA9
:10193000234B1B68002B30D00523237070BD4FF65E
:10194000FB731E4D2A6813402B60FFF733FB1C4BC3
:101950004FF43F4004210122286021701A6070BDBD
:10196000022203236270237070BD6378124A013B28
:10197000DBB2637063787BB90423137070BD0F4AC8
:10198000052013680A219BB243F0100313602070F6
:10199000617070BD0623237070BD4FF6FB73074D59
:1019A0002A6813402B60FFF705FB4FF43F420623E4
:1019B0002A60237070BD00BF5C010020405C0040C5
:1019C000F000002070B4074A074E084C084B02256F
:1019D000084909481572236032601B68086070BCB2
:1019E000184700BF8C010020AC01002084010020BA
:1019F00024000020A80100208400002010B500F081
:101A00007DF84FF4803000F099F800F0B3F8012829
:101A100000D0FEE70446002000F0E8F8002000F0C7
:101A2000F9F84FF4806000F0EBF84FF480304FF499
:101A3000E01100F0B9F8204600F0C0F8392000F0BD
:101A400015F90028FAD0022000F0BEF800F0C6F820
:101A50000828FBD110BD00BFF0B583B0FFF774FAC2
:101A6000FFF7CCFFFFF79AFAFFF7B6FAFFF7AAFFE6
:101A70000121102000F0DEF84FF40054102203235F
:101A800001A91948ADF804408DF807208DF80630FB
:101A9000FFF77CFB21461448FFF75EFD134C144D05
:101AA000144F154E2368052BFCD1FFF763FB2B6801
:101AB000002BF7D03B784FF40051312B0A4807D068
:101AC000FFF74AFD3368012B07D000232B60E9E7BD
:101AD000FFF744FD3368012BF7D129680548C9B2E7
:101AE000FFF730FBF1E700BF00100140F4000020D9
:101AF000B401002010010020AC0000200D4B0E4A64
:101B000019684FF41F0041F00101196059680A403B
:101B10005A601A6822F0847222F480321A601A68BD
:101B200022F480221A605A6822F4FE025A609860F9
:101B3000704700BF001002400000FFF80C4BB0F5EA
:101B4000803F1A6822F480321A601A6822F48022D8
:101B50001A6008D0B0F5802F04D11A6842F4A02290
:101B60001A60704770471A6842F480321A607047F2
:101B70000010024082B000230A4A019302E0B3F54C
:101B8000A06F08D0136813F4003F019B03F1010319
:101B90000193019BF3D0034B1868C0F3404002B09F
:101BA000704700BF00100240034A536823F47C13BF
:101BB000194308435060704700100240014B186001
:101BC000704700BF60004242034A536823F003039A
:101BD00018435060704700BF00100240024B586825
:101BE00000F00C00704700BF00100240034A536829
:101BF00023F0F00318435060704700BF001002400C
:101C0000034A536823F4E06318435060704700BFF1
:101C100000100240034A536823F4605343EAC000B3
:101C20005060704700100240014B1860704700BFC1
:101C3000D800424229B9054A936923EA000090611D
:101C40007047024B9A691043986170470010024038
:101C500029B9054AD36923EA0000D0617047024BD5
:101C6000DA691043D8617047001002404309012B24
:101C70000BD0022B094B00F01F000CBF1B6A5B6AE4
:101C800023FA00F000F001007047044B00F01F0041
:101C90001B6823FA00F000F00100704700100240BA
:101CA000837933B370B406681B4BF4431D68027923
:101CB00025401D60596802F180422140596002F5BB
:101CC0008232146841793443146004689868E543AB
:101CD00028409860DA68102902EA0502DA6013D019
:101CE00001F1804303F582331A6814431C6070BC11
:101CF00070470379016803F1804303F582331A6862
:101D000022EA01021A6070479A6822439A60DA68F0
:101D10001443DC6070BC704700040140014B586103
:101D2000704700BF0004014010B40549054C064A45
:101D300000204FF43F4320600B8010BC13607047BD
:101D4000B0010020445C0040405C0040704700BF90
:101D5000FEE700BFFEE700BFFEE700BFFEE700BFF3
:101D6000704700BF704700BF704700BF704700BF9B
:101D700000F086B84FF48020FFF7D0BF014B01225E
:101D80001A607047AC000020084B10B501220320F8
:101D90001A60FFF79BF80346054C024623604FF498
:101DA00088710448BDE8104000F05AB8B000002027
:101DB000B40100201001002040F0BF60024B40F44D
:101DC0000030D860704700BF00ED00E0C3785BB919
:101DD000037801215A09164803F01F03203201FA43
:101DE00003F340F822307047124B30B4D968827840
:101DF000C9434478C1F302210F23C1F10405CB404C
:101E0000AC401340027823431B0102F16042DBB275
:101E100002F5614282F800330378012203F01F00CB
:101E200003495B09824041F8232030BC704700BF62
:101E300000E100E000ED00E0013252100ED010B4DD
:101E400001F1005101F540514900002330F8024BE7
:101E500021F8234001339A42F8D110BC704700BFEB
:101E600001F10051013201F5405152104FEA410198
:101E700005D051F8043B013A20F8023BF9D17047F4
:101E8000614930B50B68614C9BB2614D238022885B
:101E90002B8889B01A40900507D54FF6FF525D4850
:101EA0000A6002780132D2B2027022881A4012040B
:101EB0004CD4228802F4806213423ED1228802F47C
:101EC0000052134203D04DF6FF714F4A1160228831
:101ED00002F48052134227D1228802F40062134296
:101EE0000AD04D4B1B78E3B90220FFF7FFFC4FF2FD
:101EF000FF72454B1A602B88228802F480721342CD
:101F00000DD04FF6FF61404B444A1960126814042B
:101F100020D4404B00225A600720FFF7E7FC09B0AD
:101F200030BDFFF751FCE2E74EF6FF72364B002062
:101F30001A60FFF7DBFC2B88CEE74FF6FF31324A01
:101F4000374B11605B6898472B88B7E7FEF76AFD4F
:101F50002B88AEE72F4A516801315160516803293F
:101F6000DAD9304908680007D6D408682E4C80B208
:101F70009060206880B20090606880B20190A06894
:101F800080B20290E06880B20390206980B2049031
:101F9000606980B20590A06980B20690E06980B265
:101FA0000790906840F001009060906880B20860EF
:101FB000906820F001009060906880B20860196815
:101FC00011484905FBD54FF6FF330360009B1649C6
:101FD0009BB20B60019B9BB24B60029B9BB28B60E0
:101FE000039B9BB2CB60049B9BB20B61059B9BB296
:101FF0004B61069B9BB28B61079B00219BB240F813
:10200000283C516088E700BF445C0040B8010020D4
:10201000B0010020F8000020AA000020485C004029
:1020200024000020405C0040005C0040844641EAFF
:10203000000313F0030349D1403A23D30B68036034
:102040004B6843608B688360CB68C3600B69036136
:102050004B6943618B698361CB69C3610B6A03621E
:102060004B6A43628B6A8362CB6AC3620B6B036306
:102070004B6B43638B6B8363CB6BC36340304031EB
:10208000403ADBD230320BD30B6803604B684360BD
:102090008B688360CB68C36010301031103AF3D284
:1020A0000C3205D351F8043B40F8043B043AF9D212
:1020B000043208D0D2071CBF11F8013B00F8013BE5
:1020C00001D30B8803806046704700BF082A13D3F2
:1020D0008B07B1D010F00303AED0C3F10403D21AC2
:1020E000DB071CBF11F8013B00F8013BA4D331F81A
:1020F000023B20F8023B9FE7043AD9D3013A11F89A
:10210000013B00F8013BF9D20B7803704B78437028
:102110008B788370604670473203530054004D0043
:102120003300320020005600690072007400750010
:1021300061006C00200043004F004D002000500063
:102140006F0072007400200020000000260353007E
:1021500054004D006900630072006F0065006C0060
:1021600065006300740072006F006E006900630018
:10217000730000000403090409024300020100C0C7
:1021800032090400000102020100052400100105CB
:10219000240100010424020205240600010705822F
:1021A000030800FF09040100020A000000070503FC
:1021B00002400000070581024000000012010002F9
:0E21C0000200004083044057000201020301A8
:1021CE001A03530054004D0033003200000000008B
:1021DE00000000000000000000000000802500004C
:1021EE00000008004516000869160008851500084D
:1021FE00991500089D150008F91500081D16000810
:10220E004917000855170008611700080000000064
:10221E0040000000BC2100081200000078210008D8
:10222E004300000074210008040000004C21000847
:10223E0026000000182100083200000000000020D7
:10224E001A000000210A000861150008210A000882
:10225E00210A0008210A0008210A0008210A0008A4
:10226E00210A000879150008040101000100000090
:10227E0001000000210A0008210A0008891D00083B
:10228E00210A0008210A0008210A0008210A000874
:10229E007D1D0008210A0008210A0008210A0008F5
:0C22AE00210A0008210A0008210A00088B
:0400000508000000EF
:00000001FF
