:020000040800F2
:10000000280500204501000877160008571500084C
:1000100075160008410800080119000800000000DA
:100020000000000000000000000000009B16000817
:100030004308000800000000991600089D160008FB
:100040005F0100085F0100085F0100085F01000810
:100050005F0100085F0100085F0100085F01000800
:100060005F0100085F0100085F0100085F010008F0
:100070005F0100085F0100085F0100085F010008E0
:100080005F0100085F0100085F0100085F010008D0
:100090005F0100085F0100085F0100085F010008C0
:1000A0005F0100085F0100085F0100085F010008B0
:1000B0005F0100085F0100085F0100085F010008A0
:1000C0005F0100085F0100085F0100085F01000890
:1000D0005F0100085F0100085F0100085F01000880
:1000E0005F0100085F0100085F0100085F01000870
:1000F0005F0100085F0100085F0100085F01000860
:100100005F0100085F0100085F0100085F0100084F
:100110005F0100085F0100085F0100085F0100083F
:100120005F0100085F0100085F0100085F0100082F
:10013000DFF80CD000F0F4FA004800475125000821
:10014000280500200648804706480047FEE7FEE7EE
:10015000FEE7FEE7FEE7FEE7FEE7FEE7FEE7FEE777
:10016000E516000831010008202A04DB203A21FAB4
:1001700002F00021704721FA02F3D040C2F12002C0
:100180009140084319467047D2B201E000F8012BB4
:10019000491EFBD270470022F6E710B513460A4607
:1001A00004461946FFF7F0FF204610BD421C10F828
:1001B000011B0029FBD1801A7047F0B480EA0102CC
:1001C000D40F4200B2EB410F02D20246084611465C
:1001D0004A0042D0C30DDDB2C1F3C752AD1A202D83
:1001E00035DAC1F3160141F4000204B15242C5F1FF
:1001F000200602FA06F12A411044B3EBD05F23D067
:10020000C4B1012DA0EBC35009DCF0BC4FF000429B
:1002100002EAC352DBB200F5000000F09AB84000D9
:1002200000F1807000EBC350A0F1807040EAD17003
:10023000490009E0490841EAC071A0EBC35000F54C
:100240000000400800EBC350F0BC00F079B86142F8
:10025000012202EB4101001BF6E7F0BC704781F080
:100260000041AAE780F00040A7E7420005D0C0F3B4
:10027000C7525242914201DC0020704700EBC1504E
:10028000704796230022114600F063B800F0004248
:1002900030F000400AD0C10D01F56071C0F31600C6
:1002A00042EA0151C208400711437047002001464D
:1002B000704730B50B46014600202022012409E09A
:1002C00021FA02F59D4205D303FA02F5491B04FA0F
:1002D00002F52844151EA2F10102F1DC30BD2DE922
:1002E000F05F0546002092469B46884606468146BA
:1002F00040241BE02846414647462246FFF734FF8C
:1003000053465A46C01A914110D311461846224608
:1003100000F018FA2D1A67EB01084F46224601201B
:10032000002100F00FFA17EB00094E41201EA4F146
:100330000104DFDC484631462A464346BDE8F09FCB
:100340000029A8BF7047401C490008BF20F00100E9
:10035000704710B4B0FA80FC00FA0CF050EA0104C7
:1003600004BF10BC704749B1CCF1200421FA04F459
:1003700011FA0CF118BF012121430843A3EB0C0132
:10038000CB1D4FEA00614FEA102042BF002010BC95
:10039000704700EBC35010440029A4BF10BC704745
:1003A000401C490008BF20F0010010BC70472DE937
:1003B000FE4F804681EA0300C00F0C46009021F0FA
:1003C000004123F00045B8EB0200A94105D24046A8
:1003D000214690461C460B46024623F0004010433F
:1003E00047D0270DC7F30A00C3F30A510290401A01
:1003F000019040286BDAC3F3130040F4801B00988F
:10040000924620B10023D2EB030A63EB0B0B019859
:100410005946C0F14002504600F094F906460D4698
:1004200050465946019A00F09CF910EB08006141D2
:10043000002487EA115284EAE7731A4340D0009AF5
:1004400062B3019A012A4FEA075215DC001B61EBE7
:1004500002014FF0004202EA0752CDE90042001CBF
:1004600041F5801132462B4600F09CF903B0BDE8FF
:10047000F08F40462146F9E7001B61EB0201001CAA
:1004800041F5801300185B412018A2F5001747EBD7
:10049000030140EAD570B6196D4111E06D084FEACD
:1004A000360645EAC0754FEA0752001B61EB0201B0
:1004B000001C41F5801149084FEA300000195141F4
:1004C00032462B4603B0BDE8F04F00F05CB900980F
:1004D000012240000023D0EB020263EBE07300989E
:1004E00021464FEAE074B8EB000061EB0401E9E754
:1004F00083F000435BE781F0004158E72DE9FE4FB0
:1005000081EA030404F0004421F0004100944FF01C
:10051000000B23F0004350EA01045ED052EA0304CA
:100520005BD0C3F30A54C1F30A552C44A4F2F3344C
:100530000194A0FB0254C1F3130141F48011C3F3F1
:10054000130343F4801301FB024400FB034E840AAF
:10055000970A44EA815447EA8357A4FB0768029547
:100560008D0A05FB07854FEA932C04FB0C542705E5
:10057000029D4FEA065847EA1637B5EB08056EEBC1
:10058000070C870E920E47EA811742EA8312A7FBF7
:100590000201B6EB0B0164EB00042B0D43EA0C33B4
:1005A0005E1844EB1C50DA465146E7FB0201C5F3E6
:1005B00013044FEA0B3343EA14534FEA0432019C0D
:1005C00043EA0603A4F10C040294009CCDE900B4B4
:1005D00000F0E8F803B0BDE8F08F00200146F9E72D
:1005E0002DE9F04D81EA030404F0004B21F00045B1
:1005F00014464FF0000A23F0004150EA050220D0D3
:1006000054EA01021DD0C5F30A570246C5F313038D
:10061000C1F31300C1F30A5640F4801543F480136C
:10062000A7EB0608101BD64608F2FD3873EB050051
:1006300002D308F1010801E092185B41B8F1000F04
:1006400003DA00200146BDE8F08D00204FF4801150
:10065000064684460EE0171B73EB050705D3121BF5
:1006600063EB050306434CEA010C49084FEA3000EE
:1006700092185B4150EA0107EDD152EA030012D013
:1006800082EA040083EA0501084305D0101BAB4150
:1006900006D20122002306E000224FF0004302E0D0
:1006A0006FF0010253101AEB06004CEB085110EBEF
:1006B0000A0041EB0B01BDE8F04D00F064B8C1F356
:1006C0000A52C1F3130140F2FF3341F480119A4200
:1006D00002DA00200146704740F233439A42A2F208
:1006E000334202DC5242FFF73FBD00F02BB800005E
:1006F00030B5041E71F1000404DB4FF000444042A9
:1007000064EB0101141E73F1000405DB1C464FF07D
:100710000043524263EB0403994208BF904230BD4C
:10072000064C074D06E0E06840F0010394E807003E
:1007300098471034AC42F6D3FFF7FEFCFC280008C3
:100740001C290008202A04DB203A00FA02F10020CC
:1007500070479140C2F1200320FA03F319439040FF
:100760007047202A06DBCB17203A41FA02F043EA11
:10077000E07306E041FA02F3D040C2F1200291405A
:1007800008431946704710B5141E73F1000408DAC7
:10079000401C41F1000192185B411A4301D120F045
:1007A000010010BD2DE9F04D92469B4611B1B1FA02
:1007B00081F202E0B0FA80F220329046FFF7C2FFE9
:1007C00004460F4640EA0A0041EA0B0153465A46E6
:1007D000084313D0114653EA010019D0C8F1400272
:1007E0005046FFF7C1FC05460E4650465946424664
:1007F000FFF7A8FF084305D0012004E02046394652
:10080000BDE8F08D0020054346EAE0762C433743EF
:100810000A986305E40AA0EB08000022FD0A44EAF6
:1008200047540A3002D500200146E9E701051019B6
:100830006941DDE9084500196941BDE8F04DA2E7CD
:10084000FEE7704701B5074807490068B0FBF1F0C3
:10085000009948430090411E009101D30846FAE7F1
:1008600008BD0000200000204054890030B5B3F5D9
:10087000804F05D06FF0704140F82210002030BD4D
:100880008C690B688D6823434C688989240144EA8C
:100890000524234343EA014150F82230014C234010
:1008A0001943E9E70000F0CF30B50A6850F822306C
:1008B00023F0010340F822308C68204B4A68082C52
:1008C0001ED02243D1E903452C4322434C692243E5
:1008D0008C692243CC6922430C6A22434C6A22432E
:1008E0008C6A2243CC6A22430C6B0968224350F87D
:1008F00021401C4052EA040240F82120002030BD73
:10090000D1E9034542F008022C4322434C692243BB
:100910008C692243CC6922430C6A22434C6A2243ED
:100920008C6A2243CC6A22430C6B0968224350F83C
:1009300021401C40224342F04002DDE78100F7FFE6
:1009400030B5D1E9003443EA04138C688D89240260
:1009500044EA054423430C8A094D00EB820005EB71
:10096000045423430C7D6D0105EB04648969234322
:100970000B43416801F040410B434360002030BD10
:100980000000F0FF70B5044600F0C0F90546601C99
:1009900002D004480078044400F0B8F9401BA0429B
:1009A000FAD370BD1400002030B5164885B0016838
:1009B000002925D1012101601348426942F4807267
:1009C000426140690224CDE9001400F480700325DF
:1009D000CDE9035069460D4800F09EF84FF682704D
:1009E000CDE9000469460395094800F095F84CF6F6
:1009F000B370CDE9000469460395064800F08CF811
:100A000005B030BD0C00002000100240001C014069
:100A100000180140001401402DE9F04300230F2489
:100A2000DFF8D4C063E001229A400A405ED0FF2A7A
:100A300001D8074601E000F104074FEA830601D917
:100A4000A6F12006D7F8008004FA06F54FF0040955
:100A500028EA050809FA06F948EA0908C7F80080F3
:100A6000C56825EA0205C56023F003056544AF6843
:100A70004FEA83764FEA167604FA06F909EA070880
:100A80001E4FB84201D1002719E01D4FB84201D1D5
:100A9000012714E01B4FB84201D102270FE01A4F83
:100AA000B84201D103270AE0184FB84201D1042708
:100AB00005E0174FB84201D1052700E00627B740EF
:100AC000474513D1AF6827EA0907AF60114D2E687B
:100AD00096432E602D1D2E6896432E602D1D2E6888
:100AE00096432E602D1D2E6896432E605B1C31FAB6
:100AF00003F298D1BDE8F0830000014000080140F6
:100B0000000C014000100140001401400018014099
:100B1000001C0140000401402DE9F84FDFF8B8A1A6
:100B200000220AF1040B144601274FF00F090BF1C4
:100B3000040E00BF0B6807FA04F52B40AB4274D1DA
:100B4000DFF898C14E68A6EB0C0866452BD00DDC8B
:100B5000032E34D005DC36B3012E19D0022E2FD14E
:100B60001BE0112E16D0122E2AD119E0B8F5881FDD
:100B700019D006DCB8F5803F15D0B8F5801F1FD11D
:100B800011E0B8F5001F0ED0B8F5041F18D10AE027
:100B9000CA6815E0CA68121D12E0CA6808320FE080
:100BA000CA680C320CE08A682AB1012A4FF00802A8
:100BB00003D0456104E0042202E0056100E0002268
:100BC000FF2B01D8064601E000F104064FEA840538
:100BD00001D9A5F12005D6F800C009FA05F82CEADC
:100BE000080C02FA05F54CEA050CC6F800C04D6881
:100BF000ED006AD53A4DAE6946F00106AE61AD69C9
:100C000024F0030605F001050095364D06EB050CB2
:100C1000DCF80850A6074FEA167809FA08F6B5433B
:100C2000314EB04202D100261AE04EE02F4EB042C3
:100C300001D1012614E02E4EB04201D102260FE070
:100C40002C4EB04201D103260AE02B4EB04201D116
:100C5000042605E0294EB04201D1052600E0062613
:100C600006FA08F62E43CCF808604D68DAF8006002
:100C7000ED03554601D51E4300E09E432E604D68AE
:100C8000AD0305D5DBF800601E43CBF8006004E03F
:100C9000DBF800509D43CBF800504D68DEF8006053
:100CA000ED02754601D51E4300E09E432E604D685F
:100CB000AD0205D5084D0C352E681E432E6004E0AC
:100CC000054E0C3635689D433560641C102CFFF4CE
:100CD00031AFBDE8F88F00000004014000001110A2
:100CE000001002400000014000080140000C0140DB
:100CF000001001400014014000180140001C014098
:100D00000AB1016170470904FBE7000001488068EF
:100D100070470000140000200248816802781144E6
:100D20008160704714000020074810B5016841F049
:100D300010010160032000F067F8002000F006F8C1
:100D400000F024F8002010BD0020024070B50D4DC9
:100D500004464FF47A712878B1FBF0F00A4909682B
:100D6000B1FBF0F000F01DFB48B9102C07D20022B7
:100D70002146501E00F028F800206C6070BD012054
:100D800070BD000014000020200000200C4808B5B1
:100D9000816941F001018161816901F001010091E6
:100DA000C16941F08051C161C06900F0805000907C
:100DB0000448416821F0E06141F08061416008BD74
:100DC0000010024000000140F0B40E4B1B680C46BE
:100DD000C3F30223C3F10705042D00D90425191D0F
:100DE000072901D2002300E0DB1E012606FA05F1E7
:100DF000491E214099409E40761E16403143F0BC6A
:100E000000F03ABC0CED00E0064900F0070208686B
:100E10004FF6FF03184040EA0220034A10430860DF
:100E2000704700000CED00E00000FA052DE9F047E6
:100E3000DFF8548105460E46D8F8000000F00700A0
:100E4000B0420CD2D8F8001021F007013143C8F8A5
:100E50000010D8F8000000F00700B0426FD12868F9
:100E60004A4C810712D5400703D5606840F4E06022
:100E700060602878000703D5606840F460506060C7
:100E80006068A96820F0F000084360602878C00717
:100E900044D06868012816D02168022816D0890736
:100EA00000294CDA616821F0030101436160FFF71A
:100EB0002DFF6968074641F2883001290ED00229CA
:100EC000814618D026E021688903E9E78901E7E730
:100ED000FFF71CFFC11B494501D918E08146606836
:100EE000C0F381000128F3D118E000BFFFF70EFF27
:100EF000C11B49450BD86068C0F381000228F5D1B9
:100F00000CE000BFFFF702FFC11B494502D90320D7
:100F1000BDE8F087606810F00C0FF3D1D8F800102E
:100F2000404601F00701B1420BD9016821F00701E9
:100F300031430160006800F00700B04201D0012099
:100F4000E6E72878400705D56068E96820F4E060A6
:100F5000084360602878000706D56068296920F496
:100F6000605040EAC100606000F036F86168084AED
:100F7000C1F30311515CC840064908600020FFF727
:100F8000E5FE0020C4E700000020024000100240FF
:100F9000E42800082000002004480549006849684A
:100FA000044AC1F30221515CC84070472000002070
:100FB00000100240F4280008044805490068496808
:100FC000044AC1F3C221515CC84070472000002090
:100FD00000100240F428000812A185B00FC98DE866
:100FE0000F0014A0144A006804905168134801F0DF
:100FF0000C03042B10D0082B0ED1C1F38343C9037B
:101000001DF803000AD5516804AAC1F34041515CA0
:101010000A4A5043B0FBF1F005B070470849484315
:10102000FAE7000002030405060708090A0B0C0D85
:101030000E0F1010010200000010024000127A0092
:1010400000093D002DE9F84F04460078B94DC0076E
:1010500048D06868C0F38100012807D06868C0F3F1
:101060008100022809D16868C00306D5286880037A
:1010700038D5606800286FD034E06068B0F5803FF4
:101080000BD010B1B0F5A02F11D0286820F480301B
:101090002860286820F4802002E0286840F480302E
:1010A0002860606888B1FFF731FE064609E02868CD
:1010B00040F480202860F0E7FFF728FE801B6428BA
:1010C00075D828688003F7D50CE0FFF71FFE0646A9
:1010D00005E000BFFFF71AFE801B6428F0D82868DF
:1010E0008003F7D42078944E80074FF001094FF029
:1010F00000083BD5686810F00C0F07D06868C0F393
:101100008100022809D16868C00306D428688007D6
:1011100014D5206901281FD110E02069B0B1C6F8AC
:101120000090FFF7F3FD074605E000BFFFF7EEFD77
:10113000C01B0228C4D828688007F7D528686169D1
:1011400020F0F80040EAC10028600FE0C6F80080F7
:10115000FFF7DCFD074606E0E9E000BFFFF7D6FD3C
:10116000C01B022823D828688007F7D420780007FE
:101170002CD57248A169D9B1C0F80090FFF7C6FD1F
:10118000074604E0FFF7C2FDC01B02280FD8686ABB
:101190008007F7D56A484FF4FA510068B0FBF1F0C8
:1011A000009000BF0098411E0091FAD20EE080E04E
:1011B000C0F80080FFF7AAFD074604E0FFF7A6FD90
:1011C000C01B022875D8686A8007F7D420784007CA
:1011D00060D5E8690027C00008D4E86940F0805075
:1011E000E861E869012700F08050009055480168E7
:1011F000C90513D40168834641F480710160FFF78B
:1012000085FD824606E000BFFFF780FDA0EB0A00E7
:1012100064284ED8DBF80000C005F5D5E068012849
:101220000AD008B1052813D0286A20F001002862EE
:10123000286A20F0040002E0286A40F001002862D9
:10124000E06841F2883B98B1FFF760FD82460BE011
:10125000286A40F004002862EEE700BFFFF756FD61
:10126000A0EB0A0159455AD8286A8007F6D50CE048
:10127000FFF74CFD824605E0FFF748FDA0EB0A01B1
:1012800059454CD8286A8007F6D41FB1E86920F088
:101290008050E861E06988B36968C1F3810102297F
:1012A00045D00228C6F8608004D0FFF72FFD044621
:1012B00038E034E0FFF72AFD074604E0FFF726FD9B
:1012C000C01B02282BD828688001F7D4206AB0F50B
:1012D000803F05D16868A16820F400300843686049
:1012E000D4E908010843696821F47411084368606F
:1012F000C6F86090FFF70AFD044606E015E000BF5F
:10130000FFF704FD001B022809D828688001F7D5E3
:101310000BE000BFFFF7FAFC001B022802D90320F4
:10132000BDE8F88F28688001F4D40020F8E7012098
:10133000F6E70000001002400000424280044242F2
:10134000200000200070004070B515460E460400D5
:1013500003D094F83D0010B107E0012070BD0020DB
:1013600084F83C00204600F01AF804F108012068D7
:10137000FFF79AFA3146A2682068FFF7E1FAD4E94C
:1013800001022946236BFFF771FAA168206850F823
:10139000212042F0010240F82120002070BDFFF71B
:1013A00003BB10B5401EB0F1807F01D3012010BDFA
:1013B0004FF0E02460610F21601700F05DF900201C
:1013C000A06107202061002010BD70B5040004D08A
:1013D00094F83900002510B106E0012070BD84F8B2
:1013E0003850204600F022F8242084F83900206884
:1013F000C16821F40051C160204600F097F92068CF
:10140000016921F4904101612068416921F02A01BC
:1014100041612068C16841F40051C160E56320204A
:1014200084F8390084F83A00002070BD30B585B0EA
:1014300000240094019402940394006814498842A3
:1014400024D11448816941F480418161816901F4AA
:1014500080410491816941F00401816180690E4DF0
:1014600000F0040004904FF40070009002200190FE
:101470000320039069462846FFF74EFB2815CDE967
:101480000004694628460294FFF746FB05B030BDCC
:101490000038014000100240000801402DE9F843E7
:1014A000044690F839001F4616460D46202850D1B4
:1014B000A5B19EB194F8380001284AD0012084F8E3
:1014C00038004FF00008C4F83C80212084F839002F
:1014D000FFF71CFCA6848146E68426E00120BDE8D7
:1014E000F883E08C401EE084A0684B46B0F5805F36
:1014F0004FF000024FF080012046009703D000F02B
:10150000CDF9E8B90DE000F0C9F9C8B9288821681B
:10151000C0F308004860206908B16D1C05E0AD1CEF
:1015200003E0216815F8010B4860E08C0028D8D151
:101530004B46002240212046009700F0AFF908B149
:101540000320CCE7202084F8390084F8388000207C
:10155000C5E70220C3E7FEE700B5164887B04FF0A5
:101560002041016014494160002181601022C16066
:10157000C0E904128161C16113020162C0E909136B
:10158000C1620163416381630F20FF230090CDE9B5
:101590000103CDE903021120CDE9050100226946CE
:1015A0000448FFF7D1FE0548C16941F48061C1617B
:1015B00007B000BDA4000020040100A0000001400D
:1015C00070B586B0002428480094019402940394D6
:1015D000816941F010018161816901F0100104917C
:1015E000816941F080018161816901F0800104918C
:1015F000816941F040018161816901F040010491FC
:10160000816941F008018161816901F0080104915B
:10161000816941F020018161816901F0200104911B
:10162000816941F0040181618069104E00F004007D
:101630004FF400550490002229463046FFF760FB26
:1016400001200095CDE9010402200390694630464F
:10165000FFF762FAA810CDE9000469460448029435
:10166000FFF75AFA06B070BD0010024000100140AA
:10167000000C0140FEE770470907090E002806DA52
:1016800000F00F0000F1E02080F8141D704700F119
:10169000E02080F80014704770477047FFF73CBBAC
:1016A00010B590B028216846FEF775FD14210AA8F0
:1016B000FEF771FD0220009001200490102000240C
:1016C000059007946846FFF7BDFC0F20CDE90A049A
:1016D0000C940D9400210AA80E94FFF7A7FB10B0FC
:1016E00010BD00000D48016841F001010160416832
:1016F0000B4A1140416001680A4A114001600168CB
:1017000021F480210160416821F4FE0141604FF421
:101710001F0181600449C003086070470010024047
:101720000000FFF8FFFFF6FE08ED00E02DE9F041B4
:10173000044600680169E26821F4405111430161E7
:101740002169A0680843616908432168CA6841F2B9
:101750000C639A430243CA6020684169A26921F47C
:101760004071114341614C4920686425322688420A
:101770003CD1FFF721FC00EBC00101EB00106168D8
:101780008900B0FBF1F7FFF717FC00EBC00101EB9C
:1017900000106168B0468900B0FBF1F0B0FBF5F0D5
:1017A0006FF01801484307EB800106EB0110B0FB16
:1017B000F5F000F0F006FFF7FFFB00EBC00101EBD6
:1017C000001061688900B0FBF1F0B0FBF5F006EBAA
:1017D0000016FFF7F1FB00EBC00101EB00106168A0
:1017E0008900B0FBF1F7FFF7E7FB3BE0FFF7D4FB25
:1017F00000EBC00101EB001061688900B0FBF1F75C
:10180000FFF7CAFB00EBC00101EB00106168B046B6
:101810008900B0FBF1F0B0FBF5F06FF01801484320
:1018200007EB800106EB0110B0FBF5F000F0F006CD
:10183000FFF7B2FB00EBC00101EB0010616889000B
:10184000B0FBF1F0B0FBF5F006EB0016FFF7A4FBE0
:1018500000EBC00101EB001061688900B0FBF1F7FB
:10186000FFF79AFB00EBC00101EB001061688900F3
:10187000B0FBF1F0B0FBF5F06FF01801484307EB57
:10188000800108EB0110B0FBF5F0216800F00F00BB
:1018900030448860BDE8F081003801402DE9F04116
:1018A000984617460E460446069D1DE0681C1BD050
:1018B0002DB1FFF72BFAA0EB0800A84214D920683D
:1018C000C16821F4D071C1602068416921F0010133
:1018D0004161202084F8390084F83A00002084F81F
:1018E00038000320BDE8F0812068006836EA000077
:1018F00004D00020B842D9D00020F3E70120F9E756
:10190000FEE700000FB4084B10B504A902AA039823
:1019100000F0DEF8044602A9002000F070FC20462A
:1019200010BC5DF814FB0000FF21000802E008C8AD
:10193000121F08C1002AFAD170477047002001E049
:1019400001C1121F002AFBD1704700002DE9FF5F83
:1019500082B00021DDE90430020DDDF840B0034320
:1019600018D044F61050A2F2FF32424315141198D9
:1019700001281FD0A5EB0B00401C5FEA000A4FF0C6
:1019800000064E4FDFF83891B046504615D5CAF1E3
:10199000000413E0119801244AA3012801D16FEA41
:1019A0000B010298119AC0E90031C0E9024206B069
:1019B000BDE8F09FCBF10000DFE704460021404A7C
:1019C000491842EB0450CDE9001012E0E00707D0BF
:1019D00032463B4640464946FEF790FD80468946E2
:1019E00032463B4610461946FEF788FD06460F462E
:1019F0006410002CEAD1DDE90401DDE90023BAF12D
:101A0000000F06DAFEF77AFD42464B46FEF776FDFA
:101A100005E0FEF7E5FD42464B46FEF7E1FD0446D4
:101A20000E460022284BFEF763FE03D84FF0FF302E
:101A3000014607E00022254B20463146FEF7B7FC61
:101A4000FEF73DFE102409E0002C0ADB0A220023E9
:101A5000FEF745FC039B30321A55641E50EA010222
:101A6000F2D1641C039AC4F111031444119A012A9F
:101A700003D0012208430DD10AE0084304D000201E
:101A80004FF0110B119072E7A3EB0B056D1E0DE0EB
:101A90005B4504DD4FF0000205F1010504E003DAC7
:101AA0004FF00002A5F10105002AECD0029811992F
:101AB000C0E90231C0E9004579E7000000001440A8
:101AC0000000F03F300000000000F0430000E03F65
:101AD0002DE9FF4F95B09B468946064600250FE24B
:101AE000252877D100242746F84A0121059400E0F3
:101AF000044316F8013F203B01FA03F01042F7D1EE
:101B000030782A2811D06FF02F033078A0F13002FE
:101B1000092A16D8059A44F0020402EB820203EB6C
:101B200042021044761C0590EFE759F8042B059209
:101B3000002A03DA504244F40054059044F00204B1
:101B4000761C30782E2816D116F8010F44F00404C4
:101B50002A280DD06FF02F023078A0F13003092B26
:101B600009D807EB870302EB4303C718761CF3E79A
:101B700059F8047B761C30786C280FD006DC4C2892
:101B800017D068280DD06A2814D104E0742810D02A
:101B90007A280FD10DE044F400140AE044F48014D4
:101BA00001E044F440147278824202D104F58014BA
:101BB000761C761C307866280BD013DC582877D03A
:101BC00009DC002875D04528F6D04628F4D04728EF
:101BD0001AD19DE118E0632835D0642879D06528B2
:101BE00012D195E1702873D008DC6728F1D06928FC
:101BF0006FD06E280DD06F2806D1B5E073282CD099
:101C0000752875D0782874D05A46179990476D1C5E
:101C100075E1C4F30250022809D003280DD0D9F889
:101C2000001004280DD00D6009F1040967E1D9F80E
:101C30000010EA17C1E90052F6E7D9F800100D804C
:101C4000F2E70D70F0E719F8041B8DF80010002082
:101C50008DF80100EA46012003E059F804AB4FF08B
:101C6000FF3061074FF0000102D40DE008F10101DF
:101C70008846B9420FDA8045F8DB1AF808100029C7
:101C8000F4D108E008F1010188468142FADB1AF834
:101C900008100029F6D105985B46A0EB08072146FD
:101CA0003846179A00F094FA284400EB080507E03C
:101CB0004DE029E10DE01AF8010B5A4617999047BB
:101CC000B8F10108F7D25B4621463846179A13E16E
:101CD00042E00A220092C4F302524FF0000A022AA4
:101CE00008D059F804CB032A4FEAEC710AD00DE072
:101CF00029E02AE009F1070121F00702F2E802C118
:101D0000914609E00FFA8CFC4FEAEC71042A03D1EA
:101D10004FFA8CFC4FEAEC71002907DA0A460021E1
:101D2000DCF1000C61EB02012D2202E0220504D55A
:101D30002B228DF80420012203E0E20701D02022AB
:101D4000F7E7904659E00A2102E010220DE0102149
:101D50004FF0000A00910BE010224FF0000A44F00F
:101D600004040827009203E008224FF0000A0092C2
:101D7000C4F30252022A05D059F804CB0021032AE9
:101D800008D009E009F1070121F00702F2E802C1D9
:101D9000914605E01FFA8CFC042A01D10CF0FF0CDF
:101DA0004FF00008220728D5702806D0009B83F04A
:101DB000100353EA0A0305D00EE040228DF80420F8
:101DC000012208E05CEA010206D030228DF80420EE
:101DD0008DF8050002229046009B83F0080353EA29
:101DE0000A030AD15CEA010201D1620705D530225B
:101DF0008DF804204FF001087F1E582804D034A02D
:101E000003900EA802900DE036A0F9E75346604615
:101E1000009AFEF764FA84460398825C0298401E9A
:101E2000029002705CEA0100F0D1029806A9081A3B
:101E300000F1200A600702D524F4803400E0012775
:101E4000574502DDA7EB0A0000E0002000EB0A0185
:101E5000009005984144401A0590E00306D45B4683
:101E60002146179A059800F0B3F90544002706E0CB
:101E700001A85A46C05D179990476D1C7F1C4745C5
:101E8000F6DBE0030CD55B462146179A059800F077
:101E90009FF9054404E030205A46179990476D1C7D
:101EA0000099481E00900029F5DC08E0029802998C
:101EB0005A460078491C0291179990476D1CBAF157
:101EC0000001AAF1010AF1DC65E100000928010026
:101ED00030313233343536373839616263646566A0
:101EE0000000000030313233343536373839414262
:101EF000434445460000000000F058F90544761CB4
:101F0000307800287FF4ECAD19B02846BDE8F08F9A
:101F1000620700D4062709F1070222F0070CFCE84B
:101F20000223E14603F000485FEA080C02D00FF2FA
:101F3000702C0DE05FEA045C02D50FF2682C07E01C
:101F40005FEAC47C02D00FF2602C01E0AFF2700CAB
:101F50004FF0FF3823F00043CDF850C065280CD077
:101F600006DC452809D046281DD047283DD13DE054
:101F7000662818D067287ED138E00021112F01DBB8
:101F8000112000E0781CCDE9000106A90EA8FFF79A
:101F9000DDFCDDE90F010E9A03910021009207F1AB
:101FA000010A04914DE04FF000400097CDE9011087
:101FB00006A90EA8FFF7CAFCDDE90F0203920E9BEB
:101FC00011990022DDF80CA00093049211B9791C3C
:101FD00000EB010AB7EB0A0004D4C0F1FF3007F1AF
:101FE000010A0490AAEB0700019044E0012F00DAF7
:101FF00001270021112F01DD112000E03846CDE935
:10200000000106A90EA8FFF7A1FCDDE90F010E9A59
:102010000391002104910092BA4621070CD4039940
:10202000514500DA8A46BAF1010F05DD009AAAF19E
:102030000101515C302908D0B84202DA10F1040FD6
:1020400006DA0121CDE9011015E0AAF10101E9E765
:10205000002805DC049901440491AAEB000102E088
:10206000411C514500DD8A460499401A401C0190EC
:102070004FF000400290200704D40198504501DB46
:10208000CDF8048000208DF84F0002980DF14F0725
:10209000B0F1004F25D02B200E9002984FF002088F
:1020A00000280CDA404202902D200E9007E00A2111
:1020B0000298FEF7FEF83031029007F8011DB8F1E2
:1020C0000001A8F10108F2DC02980028EFD1791E86
:1020D0000E980870307800F0200040F0450007F8B6
:1020E000020D12A8C01B00F107081498007800B177
:1020F000012000EB0A01019801EBE07105984144D1
:10210000401A401E0590E00306D45B462146179A0C
:10211000059800F05DF805441498007818B15A4607
:10212000179990476D1CE00324D55B462146179A0A
:10213000059800F04DF805441CE00498002807DBE2
:10214000DDE90301884203DD0098405C179901E056
:10215000179930205A469047049805F10105401C14
:1021600004900198401E019004D12E205A461799E0
:1021700090476D1CBAF10001AAF1010ADDDC05E00F
:1021800017F8010B5A46179990476D1CB8F10001DA
:10219000A8F10108F4DC5B462146179A0598ABE6E6
:1021A0002D0000002B000000200000002DE9F04170
:1021B000044600251E461746880404D405E0394627
:1021C0002020B0476D1C641EF9D52846BDE8F0817B
:1021D0002DE9F041044600251E469046C80301D56E
:1021E000302700E02027880404D505E04146384622
:1021F000B0476D1C641EF9D52846BDE8F0810A6819
:10220000531C0B601070704770B50546C0F3061084
:10221000FEF737F8044605F00F00FEF732F86FF0CE
:102220000301FEF722F82146BDE87040FDF7C5BF67
:10223000000501D5012070470020704770B50D469C
:102240000646002400F070F896B1552000F016F90B
:10225000094800EBC505281910F8080C00F00EF924
:10226000641C072CF7DDBDE87040442000F006B97F
:10227000CC2000F003F9F6E72400002010B50C4C48
:10228000206820F4006020600220FEF7DBFA20685E
:1022900040F4006020600D20FEF7D4FA201F006893
:1022A000C0F3C0242D20FEF7CDFA204610BD00005B
:1022B0000C0C014070B500254FEA0504FFF7DEFF66
:1022C000A040641C2844E4B2C5B2072CF6D92846C5
:1022D00070BD000070B516460D46044600F024F8A7
:1022E000E4B1552000F0CAF80E48002400EBC60601
:1022F000301910F8080C00F0C1F8641CE4B2072C87
:10230000F6D9BE2000F0BAF85FF00004FFF7D2FF64
:102310002855641CE4B2082CF8D370BDCC2000F022
:10232000ADF8EEE72400002010B50E4C206820F434
:102330000060206040F2E510FEF784FA206840F467
:10234000006020604120FEF77DFA201F006800F445
:1023500000644FF4FA70FEF775FA0CB1012010BD5D
:10236000002010BD0C0C01402DE9F05FDFF8D0908B
:10237000834601254FF0000899F8000044462F4697
:1023800020B9FFF7D1FFF02000F078F8DFF8B0A017
:102390000AF1030AFFF772FF0646FFF76FFF012EEF
:1023A00001D101282BD0864203D03046012E09D01E
:1023B00013E099F80100854208D21AF80400384069
:1023C00006D001201AF804203A4309E0F9D0002091
:1023D000A846092D01D289F802801AF80420BA43D0
:1023E0000AF8042000F02EF86D1C7800EDB210F011
:1023F000FF0702D1641CE4B20127082CCAD3412D87
:1024000015D35FEA080189F8011002D1012189F88A
:1024100000109AF800100120524641B10021545C8E
:102420000BF80140491C0829F9DBBDE8F09F0021A9
:1024300089F8011089F8001089F802100846F4E7BD
:102440000000002070B50C4C0500206820F40060EE
:10245000206001D0032000E04120FEF7F3F920685E
:1024600040F4006020600DB1412000E00320BDE891
:102470007040FEF7E7B900000C0C014070B505464E
:102480005FF0000425FA04F000F00100FFF7DAFF26
:102490000520FEF7D7F9641CE4B2082CF2D370BD16
:1024A0002DE9FC41B8B1284E284D01246846FFF7BC
:1024B0005BFF68B12878641C401CC0B2287006EB32
:1024C000C000009940F8081D01994160082CEDDD1D
:1024D0000124B04633E0FFF727FF90B9CC20FFF787
:1024E000CDFF4E20FFF7CAFF6420FFF7C7FF9E20F5
:1024F000FFF7C4FF7F20FFF7C1FF23E0FFF714FFC2
:1025000010B10120BDE8FC815520FFF7B7FF002680
:1025100008EBC407B81910F8080CFFF7AFFF761CDA
:10252000072EF7DD4E20FFF7A9FF6420FFF7A6FF77
:102530009E20FFF7A3FF7F20FFF7A0FF641C2878F1
:102540008442DBDD0020DDE7240000200B000020BA
:102550008AB0FEF7E9FBFFF7A3F8FFF731F89148DF
:102560008F490C2201604FF4E1314160002181600C
:10257000C160C0E904128161C161FEF726FFFEF768
:10258000EBFF00F097F90120FFF78AFF024685482C
:1025900085A18430FFF7B6F982488430FDF706FE46
:1025A000804982B24FF48056334684317D48FEF72D
:1025B00075FF824C7B4882A122788430FFF7A2F914
:1025C00078488430FDF7F2FD764982B23346843193
:1025D0007448FEF763FF012776E072483A467CA113
:1025E0008430FFF78FF96F488430FDF7DFFD6D49C8
:1025F00082B2334684316B48FEF750FF69480DF1D3
:10260000080C403800EBC70515F8040C15F8013C20
:1026100015F8022C15F8031C8CE80F0015F8051CA2
:1026200015F8060CCDE900015E4815F8073C15F8D1
:10263000082D6AA18430FFF765F95A488430FDF708
:10264000B5FD584982B2334684315648FEF726FF1D
:1026500054482A786EA18430FFF754F951488430E9
:10266000FDF7A4FD4F4982B2334684314D48FEF751
:1026700015FF28796B78AA78E9788DE80F0049482A
:102680006B79AA7968A18430FFF73CF9454884301A
:10269000FDF78CFD434982B2334684314148FEF751
:1026A000FDFE4048EA796AA18430FFF72BF93D48E6
:1026B0008430FDF77BFD3B4982B233468431394893
:1026C000FEF7ECFE7F1CFFB22078874285D90125FA
:1026D00005E029460120FFF7B1FD6D1CEDB2207821
:1026E0008542F6D94FF44870FEF74CF901254FE0CA
:1026F0002A4607A90120FFF7EDFD9DF820000DF106
:102700000C0C9DF823309DF822209DF821108CE8B8
:102710000F009DF81D009DF81F209DF81E108DE8EC
:10272000070020489DF81C302A464DA18430FFF751
:10273000E9F81C488430FDF739FD1A4982B2334666
:1027400084311848FEF7AAFEBDF81C804046FFF70A
:102750006FFD08B12D2700E02B274046FFF754FD01
:10276000FDF794FDCDE900010E483B4642464AA1E3
:102770008430FFF7C7F80B488430FDF717FD09498F
:1027800082B2334684310748FEF788FE6D1CEDB2F5
:1027900020788542ACD99620FEF7F4F897E7000040
:1027A0000038014064000020496E69742053746150
:1027B0007475733A2025640D0A0000000B00002098
:1027C00044657620636F756E743A2025640D0A00A7
:1027D0004465766963652025640D0A00524F4D20DB
:1027E0005241573A20253032582025303258202582
:1027F00030325820253032582025303258202530AC
:102800003258202530325820253032580D0A000029
:1028100046616D696C7920434F44453A20307825F4
:102820003032580D0A000000524F4D20434F4445AE
:102830003A203078253032582530325825303258F9
:102840002530325825303258253032580D0A0000D4
:102850004352433A203078253032580D0A000000A8
:102860005354524154485041442025643A20253065
:102870003258202530325820253032582025303229
:1028800058202530325820253032582025303258F3
:1028900020253032583B200052617720743A203096
:1028A00078253034583B20743A202563252E326633
:1028B0000D0A000010B54FF400610948FEF7ACF8AE
:1028C0000748001D016841F440510160016841F46E
:1028D00080410160016821F40041016010BD0000E9
:1028E000000C014000000000000000000102030491
:1028F0000607080900000000010203041C29000863
:1029000000000020240000002C19000840290008C5
:1029100024000020040500003C190008000000000D
:1029200000000000000000000000000000000000A7
:1029300001000000100000000000000000A24A0496
:0400000508000131BD
:00000001FF
