:020000040800F2
:10000000A0040020450100087F0D0008B50C000881
:100010007D0D0008B1010008A50F000800000000D8
:10002000000000000000000000000000A30D000818
:10003000B301000800000000A10D0008A50D000894
:100040005F0100085F0100085F0100085F01000810
:100050005F0100085F0100085F0100085F01000800
:100060005F0100085F0100085F0100085F010008F0
:100070005F0100085F0100085F0100085F010008E0
:100080005F0100085F0100085F0100085F010008D0
:100090005F0100085F0100085F0100085F010008C0
:1000A0005F0100085F0100085F0100085F010008B0
:1000B0005F0100085F0100085F0100085F010008A0
:1000C0005F0100085F0100085F0100085F01000890
:1000D0005F0100085F0100085F0100085F01000880
:1000E0005F0100085F0100085F0100085F01000870
:1000F0005F0100085F0100085F0100085F01000860
:100100005F0100085F0100085F0100085F0100084F
:100110005F0100085F0100085F0100085F0100083F
:100120005F0100085F0100085F0100085F0100082F
:10013000DFF80CD000F02AF800480047C50F00088F
:10014000A00400200648804706480047FEE7FEE777
:10015000FEE7FEE7FEE7FEE7FEE7FEE7FEE7FEE777
:10016000ED0D000831010008D2B201E000F8012BCA
:10017000491EFBD270470022F6E710B513460A4627
:1001800004461946FFF7F0FF204610BD064C074D08
:1001900006E0E06840F0010394E807009847103457
:1001A000AC42F6D3FFF7C8FF18100008381000085B
:1001B000FEE7704730B5B3F5804F05D06FF0704162
:1001C00040F82210002030BD8C690B688D682343F5
:1001D0004C688989240144EA0524234343EA014108
:1001E00050F82230014C23401943E9E70000F0CFDA
:1001F00030B50A6850F8223023F0010340F822306D
:100200008C68204B4A68082C1ED02243D1E9034554
:100210002C4322434C6922438C692243CC692243FC
:100220000C6A22434C6A22438C6A2243CC6A2243E2
:100230000C6B0968224350F821401C4052EA04022A
:1002400040F82120002030BDD1E9034542F00802EA
:100250002C4322434C6922438C692243CC692243BC
:100260000C6A22434C6A22438C6A2243CC6A2243A2
:100270000C6B0968224350F821401C40224342F095
:100280004002DDE78100F7FF30B5D1E9003443EAF1
:1002900004138C688D89240244EA054423430C8AA4
:1002A000094D00EB820005EB045423430C7D6D01E6
:1002B00005EB0464896923430B43416801F0404125
:1002C0000B434360002030BD0000F0FF30B51648FE
:1002D00085B00168002925D10121016013484269D8
:1002E00042F48072426140690224CDE9001400F4B6
:1002F00080700325CDE9035069460D4800F01EF8D3
:100300004FF68070CDE9000469460395094800F076
:1003100015F84CF2B370CDE9000469460395064820
:1003200000F00CF805B030BD0000002000100240C5
:10033000001C014000180140001401402DE9F84F55
:10034000DFF8B8A100220AF1040B144601274FF090
:100350000F090BF1040E00BF0B6807FA04F52B40E0
:10036000AB4274D1DFF898C14E68A6EB0C08664525
:100370002BD00DDC032E34D005DC36B3012E19D082
:10038000022E2FD11BE0112E16D0122E2AD119E0E9
:10039000B8F5881F19D006DCB8F5803F15D0B8F540
:1003A000801F1FD111E0B8F5001F0ED0B8F5041F53
:1003B00018D10AE0CA6815E0CA68121D12E0CA68BE
:1003C00008320FE0CA680C320CE08A682AB1012AB0
:1003D0004FF0080203D0456104E0042202E0056109
:1003E00000E00022FF2B01D8064601E000F10406E0
:1003F0004FEA840501D9A5F12005D6F800C009FA15
:1004000005F82CEA080C02FA05F54CEA050CC6F8CA
:1004100000C04D68ED006AD53A4DAE6946F0010660
:10042000AE61AD6924F0030605F001050095364D77
:1004300006EB050CDCF80850A6074FEA167809FA17
:1004400008F6B543314EB04202D100261AE04EE024
:100450002F4EB04201D1012614E02E4EB04201D100
:1004600002260FE02C4EB04201D103260AE02B4EAB
:10047000B04201D1042605E0294EB04201D1052643
:1004800000E0062606FA08F62E43CCF808604D6810
:10049000DAF80060ED03554601D51E4300E09E43A7
:1004A0002E604D68AD0305D5DBF800601E43CBF828
:1004B000006004E0DBF800509D43CBF800504D682D
:1004C000DEF80060ED02754601D51E4300E09E4354
:1004D0002E604D68AD0205D5084D0C352E681E43C3
:1004E0002E6004E0054E0C3635689D433560641C73
:1004F000102CFFF431AFBDE8F88F0000000401407C
:1005000000001110001002400000014000080140EE
:10051000000C01400010014000140140001801408F
:10052000001C01400148806870470000080000205E
:1005300002488168027811448160704708000020F9
:10054000074810B5016841F010010160032000F078
:1005500067F8002000F006F800F024F8002010BD35
:100560000020024070B50D4D04464FF47A71287892
:10057000B1FBF0F00A490968B1FBF0F000F01DFB97
:1005800048B9102C07D200222146501E00F028F84E
:1005900000206C6070BD012070BD000008000020CC
:1005A000140000200C4808B5816941F00101816107
:1005B000816901F001010091C16941F08051C1617F
:1005C000C06900F0805000900448416821F0E0616B
:1005D00041F08061416008BD001002400000014010
:1005E000F0B40E4B1B680C46C3F30223C3F107059E
:1005F000042D00D90425191D072901D2002300E08C
:10060000DB1E012606FA05F1491E214099409E4055
:10061000761E16403143F0BC00F0B2BB0CED00E09A
:10062000064900F0070208684FF6FF03184040EA49
:100630000220034A10430860704700000CED00E000
:100640000000FA052DE9F047DFF8548105460E4613
:10065000D8F8000000F00700B0420CD2D8F8001023
:1006600021F007013143C8F80010D8F8000000F06D
:100670000700B0426FD128684A4C810712D5400765
:1006800003D5606840F4E06060602878000703D517
:10069000606840F4605060606068A96820F0F00015
:1006A000084360602878C00744D06868012816D0E5
:1006B0002168022816D0890700294CDA616821F0E8
:1006C000030101436160FFF72DFF6968074641F2AE
:1006D000883001290ED00229814618D026E02168F1
:1006E0008903E9E78901E7E7FFF71CFFC11B4945DB
:1006F00001D918E081466068C0F381000128F3D178
:1007000018E000BFFFF70EFFC11B49450BD860681A
:10071000C0F381000228F5D10CE000BFFFF702FF13
:10072000C11B494502D90320BDE8F087606810F07D
:100730000C0FF3D1D8F80010404601F00701B14288
:100740000BD9016821F0070131430160006800F016
:100750000700B04201D00120E6E72878400705D520
:100760006068E96820F4E06008436060287800076A
:1007700006D56068296920F4605040EAC1006060D5
:1007800000F036F86168084AC1F30311515CC840B3
:10079000064908600020FFF7E5FE0020C4E70000DE
:1007A0000020024000100240001000081400002049
:1007B0000448054900684968044AC1F30221515CB4
:1007C000C8407047140000200010024010100008BC
:1007D0000448054900684968044AC1F3C221515CD4
:1007E000C84070471400002000100240101000089C
:1007F00012A185B00FC98DE80F0014A0144A00683B
:1008000004905168134801F00C03042B10D0082BFE
:100810000ED1C1F38343C9031DF803000AD5516803
:1008200004AAC1F34041515C0A4A5043B0FBF1F0C5
:1008300005B0704708494843FAE700000203040581
:10084000060708090A0B0C0D0E0F1010010200001C
:100850000010024000127A0000093D002DE9F84F17
:1008600004460078B94DC00748D06868C0F38100DD
:10087000012807D06868C0F38100022809D16868A0
:10088000C00306D52868800338D5606800286FD07B
:1008900034E06068B0F5803F0BD010B1B0F5A02F08
:1008A00011D0286820F480302860286820F4802047
:1008B00002E0286840F480302860606888B1FFF763
:1008C00031FE064609E0286840F480202860F0E701
:1008D000FFF728FE801B642875D828688003F7D5A9
:1008E0000CE0FFF71FFE064605E000BFFFF71AFE0B
:1008F000801B6428F0D828688003F7D42078944EB1
:1009000080074FF001094FF000083BD5686810F0F0
:100910000C0F07D06868C0F38100022809D168680D
:10092000C00306D42868800714D5206901281FD188
:1009300010E02069B0B1C6F80090FFF7F3FD07465C
:1009400005E000BFFFF7EEFDC01B0228C4D82868F1
:100950008007F7D52868616920F0F80040EAC100F7
:1009600028600FE0C6F80080FFF7DCFD074606E0D0
:10097000E9E000BFFFF7D6FDC01B022823D8286896
:100980008007F7D4207800072CD57248A169D9B127
:10099000C0F80090FFF7C6FD074604E0FFF7C2FD70
:1009A000C01B02280FD8686A8007F7D56A484FF441
:1009B000FA510068B0FBF1F0009000BF0098411EB2
:1009C0000091FAD20EE080E0C0F80080FFF7AAFDA7
:1009D000074604E0FFF7A6FDC01B022875D8686A29
:1009E0008007F7D42078400760D5E8690027C00069
:1009F00008D4E86940F08050E861E869012700F018
:100A00008050009055480168C90513D40168834699
:100A100041F480710160FFF785FD824606E000BF6A
:100A2000FFF780FDA0EB0A0064284ED8DBF8000039
:100A3000C005F5D5E06801280AD008B1052813D013
:100A4000286A20F001002862286A20F0040002E0F1
:100A5000286A40F001002862E06841F2883B98B1C2
:100A6000FFF760FD82460BE0286A40F00400286230
:100A7000EEE700BFFFF756FDA0EB0A0159455AD833
:100A8000286A8007F6D50CE0FFF74CFD824605E0AA
:100A9000FFF748FDA0EB0A0159454CD8286A8007AA
:100AA000F6D41FB1E86920F08050E861E06988B3AE
:100AB0006968C1F38101022945D00228C6F8608027
:100AC00004D0FFF72FFD044638E034E0FFF72AFD9D
:100AD000074604E0FFF726FDC01B02282BD8286834
:100AE0008001F7D4206AB0F5803F05D16868A1681D
:100AF00020F4003008436860D4E9080108436968BD
:100B000021F4741108436860C6F86090FFF70AFD8D
:100B1000044606E015E000BFFFF704FD001B0228B5
:100B200009D828688001F7D50BE000BFFFF7FAFC71
:100B3000001B022802D90320BDE8F88F2868800135
:100B4000F4D40020F8E70120F6E70000001002408E
:100B50000000424280044242140000200070004025
:100B600070B515460E46040003D094F83D0010B150
:100B700007E0012070BD002084F83C00204600F012
:100B80001AF804F108012068FFF732FB3146A26829
:100B90002068FFF779FBD4E901022946236BFFF7B0
:100BA00009FBA168206850F8212042F0010240F8BA
:100BB0002120002070BDFFF789BB10B5401EB0F1A9
:100BC000807F01D3012010BD4FF0E02460610F2130
:100BD000601700F0D5F80020A061072020610020F8
:100BE00010BD70B5040004D094F83900002510B190
:100BF00006E0012070BD84F83850204600F022F84D
:100C0000242084F839002068C16821F40051C160B3
:100C1000204600F00FF92068016921F4904101613C
:100C20002068416921F02A0141612068C16841F4CE
:100C30000051C160E563202084F8390084F83A004F
:100C4000002070BD30B585B000240094019402945A
:100C5000039400681449884224D11448816941F4FE
:100C600080418161816901F480410491816941F091
:100C70000401816180690E4D00F0040004904FF47E
:100C800000700090022001900320039069462846DE
:100C9000FFF754FB2815CDE9000469462846029465
:100CA000FFF74CFB05B030BD00380140001002409A
:100CB00000080140FEE7000000B5164887B04FF07D
:100CC0002041016014494160002181601022C1600F
:100CD000C0E904128161C16113020162C0E9091314
:100CE000C1620163416381630F20FF230090CDE95E
:100CF0000103CDE903021120CDE905010022694677
:100D00000448FFF72DFF0548C16941F48061C161C6
:100D100007B000BD58000020040100A00000014001
:100D2000154808B5816941F010018161816901F0C0
:100D300010010091816941F080018161816901F0B8
:100D400080010091816941F040018161816901F078
:100D500040010091816941F020018161816901F0C8
:100D600020010091816941F004018161806900F0F6
:100D70000400009008BD000000100240FEE770472C
:100D80000907090E002806DA00F00F0000F1E02044
:100D900080F8141D704700F1E02080F800147047BF
:100DA00070477047FFF7C4BB10B590B02821684664
:100DB000FFF7E1F914210AA8FFF7DDF902200090FE
:100DC0000120049010200024059007946846FFF746
:100DD00045FD0F20CDE90A040C940D9400210AA8CA
:100DE0000E94FFF72FFC10B010BD00000D480168F5
:100DF00041F00101016041680B4A11404160016806
:100E00000A4A11400160016821F4802101604168B3
:100E100021F4FE0141604FF41F0181600449C003C9
:100E200008607047001002400000FFF8FFFFF6FE68
:100E300008ED00E02DE9F041044600680169E26830
:100E400021F44051114301612169A068084361699F
:100E500008432168CA6841F20C639A430243CA609E
:100E600020684169A26921F44071114341614C49F4
:100E700020686425322688423CD1FFF7A9FC00EBAC
:100E8000C00101EB001061688900B0FBF1F7FFF7CA
:100E90009FFC00EBC00101EB00106168B0468900C7
:100EA000B0FBF1F0B0FBF5F06FF01801484307EB31
:100EB000800106EB0110B0FBF5F000F0F006FFF743
:100EC00087FC00EBC00101EB001061688900B0FBFA
:100ED000F1F0B0FBF5F006EB0016FFF779FC00EB44
:100EE000C00101EB001061688900B0FBF1F7FFF76A
:100EF0006FFC3BE0FFF75CFC00EBC00101EB001076
:100F000061688900B0FBF1F7FFF752FC00EBC0010C
:100F100001EB00106168B0468900B0FBF1F0B0FB56
:100F2000F5F06FF01801484307EB800106EB011064
:100F3000B0FBF5F000F0F006FFF73AFC00EBC00163
:100F400001EB001061688900B0FBF1F0B0FBF5F037
:100F500006EB0016FFF72CFC00EBC00101EB0010C4
:100F600061688900B0FBF1F7FFF722FC00EBC001DC
:100F700001EB001061688900B0FBF1F0B0FBF5F007
:100F80006FF01801484307EB800108EB0110B0FB3C
:100F9000F5F0216800F00F0030448860BDE8F08172
:100FA00000380140FEE702E008C8121F08C1002A0D
:100FB000FAD170477047002001E001C1121F002ADA
:100FC000FBD17047FFF7BCFAFFF7EEFEFFF7A8FE74
:100FD000FFF772FE094808490C2201604FF4E13125
:100FE000416000218160C160C0E904128161C1617A
:100FF000FFF7F7FDFEE70000003801401800002071
:1010000000000000000000000102030406070809B8
:101010000000000001020304381000080000002056
:1010200018000000A60F000850100008180000204B
:1010300088040000B60F0008000000000000000057
:1010400001000000100000000000000000A24A049F
:0400000508000131BD
:00000001FF
