:100000000C94A5010C940C090C94E5080C94CD01FA
:100010000C94CD010C94CD010C94CD010C94CD0128
:100020000C94CD010C94CD010C94CD010C94CD0118
:100030000C94CD010C94CD010C94CD010C94CD0108
:100040000C949B080C94CD010C9469080C94430803
:100050000C94CD010C94CD010C94CD010C94CD01E8
:100060000C94CD010C94CD014F4646004F4E0054E8
:1000700075726E2076616C766520746F3A20000090
:1000800000000023002600290000000000002500D9
:1000900028002B00000000080002010000030407F4
:1000A00000000000000000005365747570206C654E
:1000B00076656C2073656E736F722E2E2E000000B5
:1000C0000000240027002A000102040810204080BC
:1000D0000102040810200102040810200404040492
:1000E00004040404020202020202030303030303E2
:1000F0004C6F526120696E697465642E004C6F52BA
:100100006120696E6974204641494C210020496E86
:100110006974204C6F52612E2E2E00444542554783
:10012000204D4F4445210049440053455454494E05
:10013000475320524543454956454421005D2E0012
:100140004F4646004F4E00524543454956454420D0
:1001500057415445522054414E4B20434F4D4D4141
:100160004E44212056414C56452053484F554C444F
:100170002042453A205B00005EBCE2613FDD83C265
:100180009C7E20A3FD1F419DC3217FFCA2401E5FDA
:1001900001E3BD3E6082DC237D9FC1421CFEA0E1E5
:1001A000BF5D0380DE3C62BEE0025CDF81633D7CBC
:1001B00022C09E1D43A1FF4618FAA427799BC5843F
:1001C000DA3866E5BB5907DB856739BAE4065819A2
:1001D00047A5FB7826C49A653BD987045AB8E6A799
:1001E000F91B45C6987A24F8A6441A99C7257B3A84
:1001F0006486D85B05E7B98CD2306EEDB3510F4EF3
:1002000010F2AC2F7193CD114FADF3702ECC92D371
:100210008D6F31B2EC0E50AFF1134DCE90722C6D4C
:1002200033D18F0C52B0EE326C8ED0530DEFB1F053
:10023000AE4C1291CF2D73CA947628ABF5174908AE
:1002400056B4EA6937D58B5709EBB536688AD49529
:10025000CB2977F4AA4816E9B7550B88D6346A2B10
:100260007597C94A14F6A8742AC896154BA9F7B60B
:10027000E80A54D7896B3546696C6C2073746174D5
:1002800075732069733A200053656E736F72732023
:10029000646174612073656E742E0053656E642012
:1002A00073656E736F727320646174612076696127
:1002B000204C6F52612E2E2E004C6F5261206E6FBB
:1002C0007420696E69746564210053656E736F7282
:1002D0002064617461204552524F522064657465F8
:1002E00063746564210046756C6C2073656E736F72
:1002F00072204552524F5220646574656374656480
:10030000210054616E6B2069732066756C6C2C2023
:100310007475726E2076616C7665204F46462100BA
:10032000437269746963616C206C6576656C2064E6
:10033000657465637465642C207475726E207661D3
:100340006C7665204F4E2100780911241FBECFEF37
:10035000D8E0DEBFCDBF12E0A0E0B1E0E2E6F0E31E
:1003600002C005900D92A237B107D9F723E0A2E7AA
:10037000B2E001C01D92A837B207E1F711E0C5EA6B
:10038000D1E004C02197FE010E94FF15C43AD107B5
:10039000C9F70E94FF090C942F180C940000AF922B
:1003A000BF92CF92DF92EF92FF920F931F93CF9362
:1003B000DF936C017B018B01040F151FEB015E01C4
:1003C000AE18BF08C017D10759F06991D601ED9159
:1003D000FC910190F081E02DC6010995892B79F7F8
:1003E000C501DF91CF911F910F91FF90EF90DF90AA
:1003F000CF90BF90AF900895FC01538D448D252F71
:1004000030E0842F90E0821B930B541710F0CF96AE
:10041000089501970895FC01918D828D981761F0E0
:10042000A28DAE0FBF2FB11D5D968C91928D9F5FF7
:100430009F73928F90E008958FEF9FEF0895FC01D6
:10044000918D828D981731F0828DE80FF11D858D89
:1004500090E008958FEF9FEF0895FC01918D228D1C
:10046000892F90E0805C9F4F821B91098F739927A1
:10047000089583ED92E00E942D0221E0892B09F47A
:1004800020E0822F089580E090E0892B29F00E94DF
:10049000390281110C9400000895FC01A48DA80F6D
:1004A000B92FB11DA35ABF4F2C91848D90E00196B6
:1004B0008F739927848FA689B7892C93A089B189D6
:1004C0008C91837080648C93938D848D981306C077
:1004D0000288F389E02D80818F7D80830895EF92DB
:1004E000FF920F931F93CF93DF93EC0181E0888FEE
:1004F0009B8D8C8D98131AC0E889F989808185FFBE
:1005000015C09FB7F894EE89FF896083E889F9895F
:1005100080818370806480839FBF81E090E0DF9161
:10052000CF911F910F91FF90EF900895F62E0B8DB4
:1005300010E00F5F1F4F0F731127E02E8C8D8E116F
:100540000CC00FB607FCFACFE889F989808185FFD6
:10055000F5CFCE010E944D02F1CFEB8DEC0FFD2FB8
:10056000F11DE35AFF4FF0829FB7F8940B8FEA8991
:10057000FB8980818062CFCF0F931F93CF93DF934E
:100580008C01D0E0C0E0F801EC0FFD1F6491662300
:1005900041F083ED92E00E946F02892B11F02196C9
:1005A000F2CFCE01DF91CF911F910F910895CF939C
:1005B000DF93EC01888D8823B9F0AA89BB89E8898B
:1005C000F9898C9185FD03C0808186FD0DC00FB631
:1005D00007FCF7CF8C9185FFF2CF808185FFEDCFAF
:1005E000CE010E944D02E9CFDF91CF910895833073
:1005F00081F028F4813099F08230A9F00895873095
:10060000A9F08830C9F08430B1F4809180008F7DEA
:1006100003C0809180008F7780938000089584B517
:100620008F7784BD089584B58F7DFBCF8091B00016
:100630008F778093B00008958091B0008F7DF9CFBF
:100640001F93CF93DF93282F30E0F901EC56FF4F33
:100650008491F901E853FF4FD491F901E452FF4F1F
:10066000C491CC23A9F0162F81110E94F702EC2F20
:10067000F0E0EE0FFF1FE657FF4FA591B4918FB743
:10068000F894EC91111108C0D095DE23DC938FBF54
:10069000DF91CF911F910895DE2BF8CFCF93DF9399
:1006A00090E0FC01E853FF4F249184529F4FFC01DE
:1006B00084918823D1F090E0880F991FFC01E254C7
:1006C000FF4FA591B491FC01E657FF4FC591D4911E
:1006D00061110EC09FB7F8948C91E22FE0958E23A4
:1006E0008C932881E223E8839FBFDF91CF91089507
:1006F0008FB7F894EC91E22BEC938FBFF6CF3FB716
:10070000F89480917B0290917C02A0917D02B0913F
:100710007E0226B5A89B05C02F3F19F00196A11DAA
:10072000B11D3FBFBA2FA92F982F8827BC01CD013B
:10073000620F711D811D911D42E0660F771F881F9A
:10074000991F4A95D1F708958F929F92AF92BF92C9
:10075000CF92DF92EF92FF926B017C010E947F03A8
:100760004B015C01C114D104E104F104B9F00E9411
:100770007F03681979098A099B09683E73408105DE
:10078000910580F321E0C21AD108E108F10888EE52
:10079000880E83E0981EA11CB11CE4CFFF90EF905F
:1007A000DF90CF90BF90AF909F908F9008952FB71C
:1007B000F89460917702709178028091790290911B
:1007C0007A022FBF089508950F931F93CF93DF935D
:1007D000EC01062F142F60E08E850E9420039C857B
:1007E0008D859CBD8DBD0EBD00000DB407FEFDCFF7
:1007F0008EB51EBD00000DB407FEFDCF1EB561E035
:100800008E850E942003812FDF91CF911F910F9140
:10081000089540E00C94E4031092D0021092CF02AD
:100820006DE185EB92E00E940904482F4E7F6DE94F
:1008300085EB92E00C94E40308950F931F93CF93FC
:10084000DF93EC01E881F9810084F185E02D0995C1
:10085000892BB1F06DE0CE010E940904082F60E001
:10086000CE010E940904182F402F6DE8CE010E948E
:10087000E403812F90E0DF91CF911F910F910895B4
:100880008FEF9FEFF8CFCF93DF93EC01E881F981F1
:100890000084F185E02D0995892B69F0888D998D6B
:1008A0000196998F888F60E0CE010E94090490E044
:1008B000DF91CF9108958FEF9FEFFACFCF93DF9322
:1008C000EC0163E10E94090490E0288D398D821BC0
:1008D000930BDF91CF910895AF92BF92CF92DF92A9
:1008E000FF920F931F93CF93DF936C015B01EA019B
:1008F00062E20E940904F82E90E09C012C0F3D1F3B
:100900002F3F310529F020F0CFEFD0E0C81BD90BE5
:100910008501AC0EBD1E0A151B0541F0F801419181
:100920008F0160E8C6010E94E403F5CF4C2F4F0D04
:1009300062EAC6010E94E403CE01DF91CF911F91CC
:100940000F91FF90DF90CF90BF90AF900895CF931D
:10095000DF931F92CDB7DEB76983DC01ED91FC9187
:100960000280F381E02D41E050E0BE016F5F7F4FD8
:1009700009950F90DF91CF91089590E080E0089560
:10098000FC0101900020E9F73197AF01481B590B9A
:10099000BC0183ED92E00C94CF01CF93DF930E94D2
:1009A000BC02EC018FE391E00E94C0048C0F9D1FFC
:1009B000DF91CF910895CF93909104019817A1F002
:1009C000C82F8FE690E00E94BC0288E690E0CC231E
:1009D00011F08CE690E00E94CD04C09304016C2FCE
:1009E00082E1CF910C942003CF9108958F929F9232
:1009F000AF92BF920F931F93CF93DF93CDB7DEB724
:100A0000A1970FB6F894DEBF0FBECDBF19A242303A
:100A100008F44AE08E010F5D1F4F842E912CB12CFB
:100A2000A12CA50194010E94B614E62FB901CA01B8
:100A3000EA30F4F4E05DD801EE938D01232B242BF2
:100A4000252B79F790E080E0109719F0CD010E94F6
:100A5000C004A1960FB6F894DEBF0FBECDBFDF91E4
:100A6000CF911F910F91BF90AF909F908F9008955D
:100A7000E95CE1CF0C94C004CF93DF930E94C004E3
:100A8000EC018FE391E00E94C0048C0F9D1FDF9169
:100A9000CF910895CF92DF92EF92FF92CF93DF93A1
:100AA0006C01990FEE08FF08F7FE1FC06DE283EDA1
:100AB00092E00E946F02EC0166277727CB016C1948
:100AC0007D098E099F094AE00E94F604C80FD91FCC
:100AD0008FE391E00E94C0048C0F9D1FDF91CF91A6
:100AE000FF90EF90DF90CF9008954AE0C701B601E4
:100AF0000E94F604EC01ECCFCF93DF93BC0190E0B1
:100B000080E04AE00E94F604EC018FE391E00E944D
:100B1000C0048C0F9D1FDF91CF910895CF93DF9379
:100B20004AE00E94F604EC018FE391E00E94C004C9
:100B30008C0F9D1FDF91CF9108950F931F93CF933B
:100B4000DF93EC0188819981009759F02A813B81DC
:100B50002617370730F081E0DF91CF911F910F9179
:100B600008958B016F5F7F4F0E942A17009759F0FD
:100B7000998388831B830A832C813D81232B59F71A
:100B8000FC011082E8CF80E0E7CFCF93DF93EC0148
:100B900088819981009711F00E94A116198218820C
:100BA0001D821C821B821A82DF91CF910895EF92E1
:100BB000FF920F931F93CF93DF93EC017B018A0188
:100BC000BA010E949D0581110BC0CE010E94C5058E
:100BD000CE01DF91CF911F910F91FF90EF9008957B
:100BE0001D830C83B701888199810E940B18F0CF77
:100BF00050E040E061E471E00C94D705CF93DF93BF
:100C0000EC016115710571F0FB0101900020E9F71D
:100C10003197AF01461B570B0E94D705CE01DF91DC
:100C2000CF9108950E94C505F9CFFC018081918183
:100C3000009711F00C94A11608950F931F93CF9372
:100C4000DF938C01FC01C081D181209731F0CE016E
:100C50000E941506CE010E94A11686E090E00E9437
:100C60000516EC01198218821B821A821D821C82D1
:100C70000E94F805F801D183C083DF91CF911F91C5
:100C80000F910895FF920F931F93CF93DF93EC0181
:100C90008B01FB01F0800E943714F81621F06F2DB4
:100CA000CE010E943F14F801F1802196CE010E94EE
:100CB0003714F81621F06F2DCE010E943F14C801A1
:100CC000DF91CF911F910F91FF9008950F931F9384
:100CD000CF93DF938C01EB010E9437148883C80106
:100CE00001960E9437148983CE01DF91CF911F9125
:100CF0000F910895EF92FF920F931F93CF93DF937D
:100D0000EC0119868C01065F1F4F70E060E0C8019E
:100D10000E949D0581111EC0C8010E94C50519824F
:100D200018821886EA80FB8010E000E08E819F81A7
:100D30000E151F05C1F09801220F331F820F931F5C
:100D4000FC0180819181009711F00E94A1160F5F34
:100D50001F4FECCF1F861E8669E870E08A859B8551
:100D60000E940413DCCF009731F04A815B8170E070
:100D700060E00E94F0171D821C821B821A828E8105
:100D80009F810E94A1161F821E82DF91CF911F9129
:100D90000F91FF90EF900895EF92FF920F931F93A2
:100DA000CF93DF93EC018A819B810097F1F0880F4C
:100DB000991F9B838A83880F991F0E9405168C01B7
:100DC000EC80FD8048815981440F551FB7010E9476
:100DD000E717C7010E94A1161D830C83DF91CF91F5
:100DE0001F910F91FF90EF90089581E090E0E1CF87
:100DF0008F929F92AF92BF92CF92DF92EF92FF922B
:100E00000F931F93CF93DF93882309F475C060E09D
:100E100084E00E9420038FE090E00197F1F761E009
:100E200084E00E94200387E390E00197F1F760E0FF
:100E300084E00E942003EDECF0E06491E1EEF0E04C
:100E4000E491F0E0EE0FFF1FE158FF4F8591949180
:100E500000E412E42FE030E0462F0E9433096B01DA
:100E60007C01C114D104E104F10409F066C0E7E992
:100E7000F0E08491EBECF0E0D491EFEDF0E0C49180
:100E8000CC2309F462C081110E94F702EC2FF0E03C
:100E9000EE0FFF1FE158FF4FA591B491EC91DE23B7
:100EA00031E020E009F430E0832F922F1092A60267
:100EB0001092A7021092A8021092A90222E3C21671
:100EC000D104E104F10418F0892B09F043C081E05A
:100ED0008093B402809104018823D1F182E0809351
:100EE000A1020E94D70360937202709373028093F1
:100EF00074029093750214C00E94D703C0907202CE
:100F0000D0907302E0907402F09075026C197D0924
:100F10008E099F09683B7B408105910508F077CFDA
:100F2000DF91CF911F910F91FF90EF90DF90CF90C5
:100F3000BF90AF909F908F9008958FEFC81AD80AF6
:100F4000E80AF80A2FE0F22292CF90E080E0AECFDC
:100F500083E0C5CF1092B4021092A102C701B6017E
:100F60002AE330E040E050E00E94B6142093A6024D
:100F70003093A7024093A8025093A902C701B6017B
:100F800096958795779567950E9418132DEC3CEC04
:100F900048EE51E40E9454156B017C0182E491E01B
:100FA0000E943A05A7019601C701B6010E94FA15F1
:100FB000882349F08DE691E00E94C00489E791E022
:100FC0000E943C058ECF2FEF3FEF4FE75FE7C70151
:100FD000B6010E94FA1581110DC02FEF3FEF4FE7C8
:100FE0005FE7C701B6010E94131318161CF481E7CE
:100FF00091E0E2CF2FEF3FEF4FE75FE4C701B6018B
:101000000E94F51518161CF485E791E0D5CF2FEF57
:101010003FEF4FE75FECC701B6010E94131387FD56
:10102000F3CF2DEC3CEC4CE45DE3C701B6010E942C
:10103000E8144B015C010E94C6156B017C010E9403
:1010400018139B01AC01C501B4010E94E7144B01C8
:101050005C014AE0C701B6010E94F6046EE283ED2E
:1010600092E00E946F0220E030E040E251E4C501CE
:10107000B4010E9479130E94C61590E080E04AE016
:101080000E94F6049BCF1F920F920FB60F9211246D
:101090002F933F934F935F936F937F938F939F9380
:1010A000AF93BF93EF93FF9383ED92E00E944D02C5
:1010B000FF91EF91BF91AF919F918F917F916F9130
:1010C0005F914F913F912F910F900FBE0F901F9006
:1010D00018951F920F920FB60F9211242F938F9392
:1010E0009F93EF93FF93E091E302F091E4028081FC
:1010F000E091E902F091EA0282FD1BC090818091AB
:10110000EC028F5F8F732091ED02821741F0E09126
:10111000EC02F0E0ED52FD4F958F8093EC02FF91D1
:10112000EF919F918F912F910F900FBE0F901F9075
:1011300018958081F4CF1F920F920FB60F92112451
:101140002F933F938F939F93AF93BF938091770299
:1011500090917802A0917902B0917A023091760252
:1011600023E0230F2D3758F50196A11DB11D2093C3
:1011700076028093770290937802A0937902B093DD
:101180007A0280917B0290917C02A0917D02B091C5
:101190007E020196A11DB11D80937B0290937C027B
:1011A000A0937D02B0937E02BF91AF919F918F91EA
:1011B0003F912F910F900FBE0F901F90189526E82A
:1011C000230F0296A11DB11DD2CF1F920F920FB611
:1011D0000F9211242F933F934F935F936F937F93BD
:1011E0008F939F93AF93BF93EF93FF93E09102018F
:1011F000F09103010995FF91EF91BF91AF919F91FC
:101200008F917F916F915F914F913F912F910F90AF
:101210000FBE0F901F9018951F920F920FB60F924E
:1012200011242F933F934F935F936F937F938F93EB
:101230009F93AF93BF93EF93FF93E0910001F091E1
:1012400001010995FF91EF91BF91AF919F918F910E
:101250007F916F915F914F913F912F910F900FBEB2
:101260000F901F901895CF92DF92EF92FF920F93FD
:101270001F93E82FF92F05C00150110921093109E9
:1012800061F1908196239417B9F305C001501109BB
:101290002109310911F1908196239413F7CFC12CC4
:1012A000D12CE12CF12C0AC08FEFC81AD80AE80A19
:1012B000F80A0C151D052E053F0579F0808186235F
:1012C000841791F36C2D7D2D8E2D9F2D1F910F91E5
:1012D000FF90EF90DF90CF90089560E070E080E0A5
:1012E00090E01F910F91FF90EF90DF90CF900895C5
:1012F0000F931F93CF93DF93E3EDF2E013821282FB
:1013000088EE93E0A0E0B0E084839583A683B78362
:101310008FE191E09183808385EC90E095878487CD
:1013200084EC90E09787868780EC90E0918B808BAF
:1013300081EC90E0938B828B82EC90E0958B848B98
:1013400086EC90E0978B868B118E128E138E148E06
:10135000A5EBB2E013961C921E92129781E391E0E6
:1013600011969C938E9380E51C968C931C9781E03C
:101370001D968C931D978AE090E01F969C938E9308
:101380001E9789E090E051969C938E93509782E04F
:1013900090E053969C938E93529754961D921D9273
:1013A0001D921C92579759961C921E9258975B96C5
:1013B0001C921E925A975D961C921E925C971496F0
:1013C0001D921D921D921C92179700E713E0D80101
:1013D000ED93FC9386E090E00E940516EC011982E3
:1013E00018821B821A821D821C820E94F805F80155
:1013F000D383C283DF91CF911F910F910895CF9333
:10140000DF93CDB7DEB7E2970FB6F894DEBF0FBE1D
:10141000CDBF789484B5826084BD84B5816084BD7D
:1014200085B5826085BD85B5816085BD80916E0082
:10143000816080936E0010928100809181008260B3
:1014400080938100809181008160809381008091F0
:1014500080008160809380008091B10084608093DF
:10146000B1008091B00081608093B00080917A00DB
:10147000846080937A0080917A00826080937A0001
:1014800080917A00816080937A0080917A008068F0
:1014900080937A001092C100E091E302F091E4029F
:1014A00082E08083E091E302F091E4021082E09117
:1014B000DF02F091E0021082E091E102F091E2029D
:1014C00080E180831092EB02E091E702F091E80264
:1014D00086E08083E091E502F091E6028081806100
:1014E0008083E091E502F091E6028081886080834C
:1014F000E091E502F091E602808180688083E091CE
:10150000E502F091E60280818F7D80838BE191E09E
:101510000E94CD0461E082E10E944E0360E083E01E
:101520000E944E030E948E1224E630E040E050E01C
:101530000E944D1468577C4E8F4F9F4F60930D0152
:1015400070930E0180930F019093100182E390E05D
:101550000E94371490E08F3F910509F42CC29093BC
:101560009F0280939E0280E590E00E943714809352
:10157000050181E590E00E9437148093060182E521
:1015800090E00E9437148093070183E590E00E9469
:101590003714809308018091050190910601A09174
:1015A0000701B09108018F3F9F4FAF4FBF4F61F4CC
:1015B00080EC97E2A9E0B0E08093050190930601EA
:1015C000A0930701B09308016BE071E08CE390E019
:1015D0000E94660680910B0190910C01019631F4F6
:1015E00086E990E090930C0180930B0169E071E033
:1015F00086E490E00E9466068091090190910A01BC
:10160000019631F482E390E090930A0180930901FE
:1016100080E891E00E943C0588E891E00E943A054C
:1016200080919E0290919F020E944A0588E991E074
:101630000E943A05609105017091060180910701B1
:10164000909108010E948E0587EA91E00E943A0578
:1016500080910B0190910C010E947C0588EB91E038
:101660000E943A058091090190910A010E947C052F
:1016700088EA90E00E94CD0461E084E00E944E037D
:1016800060E085E00E944E038DE091E00E94CD0471
:1016900088E090E09093C4028093C30287E090E0DA
:1016A0009093C6028093C5028FEF9FEF9093C8027C
:1016B0008093C70261E088E00E944E0361E0809160
:1016C000C3020E9420038091C5029091C6028F3F01
:1016D0009807C9F061E00E944E0360E08091C50266
:1016E0000E9420036AE070E080E090E00E94A40382
:1016F00061E08091C5020E9420036AE070E080E012
:1017000090E00E94A4031FB7F89480917F0281119A
:1017100027C0E6EEF0E08491E2EDF0E09491E82F4E
:10172000F0E0EE0FFF1FE254FF4FA591B491EC9152
:10173000E92321F461E08AE00E94200361E08AE06D
:101740000E944E038CB580618CBD8CB580648CBDCD
:1017500061E08DE00E944E0361E08BE00E944E0349
:1017600080917F028F5F80937F021FBF62E485EBD1
:1017700092E00E940904823109F422C11092A00271
:101780008DEF90E00E94CD0480E00E94DB0468EEC3
:1017900073E080E090E00E94A40381E00E94F806DC
:1017A00068E873E180E090E00E94A40388E199E298
:1017B0000FB6F894A895809360000FBE90936000D8
:1017C0002E01FBE24F0E511C8091B402811158C1D1
:1017D0000E94F8060E94D7030091B0021091B10256
:1017E0002091B2023091B302601B710B820B930BFC
:1017F000613A7F408105910558F00E94D7036093BC
:10180000B0027093B1028093B2029093B302A89594
:1018100080917003909171030097A1F1DC01ED912B
:10182000FC910084F185E02D0995892B59F1809177
:10183000700390917103DC01ED91FC910084F185BE
:10184000E02D0995892BF1F080917003909171033F
:10185000DC01ED91FC910284F385E02D0995009166
:101860007203109173038D3031F0F801E480F5803C
:101870008A3009F009C1D80114968D919C91892B69
:1018800009F02DC18091A0028823C9F162E185EBA6
:1018900092E00E940904182F0E940C04412F62E973
:1018A00085EB92E00E94E40316FFC5C215FDC3C29A
:1018B0001092CE021092CD028091CF029091D00270
:1018C00062E2892B09F463E185EB92E00E9409044E
:1018D000082F10E060E185EB92E00E940904482F98
:1018E0006DE885EB92E00E94E40341E861E885EB56
:1018F00092E00E94E4030E3111050CF0B1C20E9487
:10190000D7030091AC021091AD022091AE0230914C
:10191000AF02601B710B820B930B00910D011091B4
:101920000E0120910F01309110016017710782079D
:10193000930730F18091A0028111C9C389EB92E035
:101940000E94CD040E94D7036093AC027093AD0255
:101950008093AE029093AF020E948E1224E630E094
:1019600040E050E00E944D1468577C4E8F4F9F4FCF
:1019700060930D0170930E0180930F0190931001FD
:101980008091B40281113EC58091AA029091AB0270
:10199000009709F4E7C4019709F417C5A0E0B0E087
:1019A000AB2B09F411CF0E943902882309F40CCF24
:1019B0000E94000009CF10929F0210929E02D3CD88
:1019C00040E861E885EB92E00E94E40380E091EA60
:1019D000ACEBB3E38093C9029093CA02A093CB020D
:1019E000B093CC0249ED66E885EB92E00E94E403F7
:1019F00040E067E885EB92E00E94E40340E068E89D
:101A000085EB92E00E94E40340E06EE885EB92E013
:101A10000E94E40340E06FE885EB92E00E94E4035B
:101A20006CE085EB92E00E940904482F43606CE86B
:101A300085EB92E00E94E40344E066EA85EB92E0E5
:101A40000E94E4034FE869E885EB92E00E94E4031A
:101A500041E861E885EB92E00E94E40381E0809335
:101A6000A0024FE869E885EB92E00E94E40340E8B9
:101A700061E885EB92E00E94E40380EF90E082CE83
:101A800080E00E94DB04A6CE89831A82BFEFEB1AA6
:101A9000FB0AB701C8010E949D05882389F0F8015F
:101AA0002081318184819581BE016F5F7F4F820FDC
:101AB000931F0E940B18D8011596FC92EE92149772
:101AC000E0917203F09173038481958184369105CE
:101AD00008F4ADCE82E793E00E941D06D3CE1CA68B
:101AE0001BA61EA61DA618AA1FA60415150559F0AB
:101AF000F801608171816115710529F0448155817A
:101B0000C2010E94D70582E793E00E941D061C8255
:101B10001B821E821D8218861F821C861B861E86C3
:101B20001D86188A1F86CE010B960E94F805CE01ED
:101B300001960E947A068FA598A90597B0F0CBA4CC
:101B4000DCA444E050E068EC71E0C6010E94121889
:101B5000892BD9F044E050E06DEC71E0C6010E94A1
:101B6000121862E0B62E892B91F0CE0101960E94E8
:101B70007A06CE010B960E9415068F8198850E94E9
:101B8000A116C2010E9415067DCEBB24B394F4E0D9
:101B9000CF0ED11C6CE770E0C6010E94F7178C01D4
:101BA000009709F047C0CE0101960E947A06BA86D6
:101BB000B601CE010B960E94FE051EA21DA218A61C
:101BC0001FA21AA619A66B857C856115710531F0D7
:101BD0004F855889CE0185960E94D70518A21F8E81
:101BE0001AA219A21CA21BA262E070E0CE014F96BD
:101BF0000E949D058111C3C0CE014F960E94C5056C
:101C000029A53AA58BA19CA12817390709F0D0C0B6
:101C10008DA19EA16F8D78A1009709F4BBC06115BD
:101C2000710509F0E0C0232B09F4E0C0DC018C91C0
:101C300090E0BBC04C018C189D0834012FEF621A54
:101C4000720AC3010E9405167C01A30170E060E0E6
:101C50000E94F017A401B601C7010E9420180F5F6F
:101C60001F4FCE0101960E947A06BA86B701CE01B7
:101C70000B960E94FE050115110509F446C0D80116
:101C80008C91882309F441C06CE770E0C8010E9480
:101C9000F7173C01ED81FE81FAABE9AB2B803C806C
:101CA0000097D9F5F80101900020E9F731976F010D
:101CB000C01AD10A4601FFEF8F1A9F0AC4010E9481
:101CC00005165C01A40170E060E00E94F017A60117
:101CD000B801C5010E94201889A99AA98215930507
:101CE00021F4CE0103960E94CC062F8138858B818A
:101CF0009C81AC014F5F5F4F5C834B83880F991FC2
:101D0000820F931FDC01AD92BC92E114F10409F43F
:101D100054CFC7010E94A11650CF5C01A01AB10A8E
:101D20004501BFEF8B1A9B0AC4010E9405166C0186
:101D3000A40170E060E00E94F017A501B801C6019F
:101D40000E942018E9A9FAA9E215F30521F4CE01B1
:101D500003960E94CC062F8138858B819C81AC0133
:101D60004F5F5F4F5C834B83880F991F820F931FD8
:101D7000DC01CD92DC9283010F5F1F4F80CF82E0A8
:101D800090E09CA38BA367E271E08F8D98A10E94E5
:101D9000041336CF6115710549F1232B39F1FB018D
:101DA000808190E091958195910911E0892B09F04E
:101DB00010E0CE014F960E941506112379F08B8119
:101DC0009C812A852130A1F482ED91E00E943A05A0
:101DD00080919E0290919F020E944A05CE018596B5
:101DE0000E941506C2CE0E940218DFCF11E0E1CF9B
:101DF000892BD1F0EF81F885808191810E94E612D4
:101E00009C01332730939F0220939E02682F82E328
:101E100090E00E943F1482ED91E00E943A0586ED29
:101E200091E00E943C05DACF8CED91E00E943A05EA
:101E300080EE91E0F6CF61E085EB92E00E9409042C
:101E4000863809F45CCD40E06DE885EB92E00E94B5
:101E5000E40346E861E885EB92E00E94E4034FCD9D
:101E60008EE1E0E8F2E011928A95E9F720E8E22EAF
:101E700022E0F22E87010E94D7036093BD02709387
:101E8000BE028093BF029093C00285EB92E00E9455
:101E9000430497FFEEC20E94D7038090BD0290904A
:101EA000BE02A090BF02B090C002681979098A09E9
:101EB0009B098090B9029090BA02A090BB02B090AA
:101EC000BC02681579058A059B05F8F2209180020D
:101ED00080919E0290919F022817190609F00FCD5C
:101EE0009EE180E0915049F0D701ED917D01E82716
:101EF000F0E0E958FE4F8491F5CF90919D02981340
:101F0000FECC809181028A3009F49CC08B3009F0AC
:101F1000F6CC8090830290908402A0908502B090CD
:101F200086020091890210918A02E0908702F09067
:101F300088028AE291E00E94CD0480910B01909189
:101F40000C01F0920C01E0920B01E816F90631F059
:101F50006BE071E08CE390E00E9442068091090101
:101F600090910A0110930A010093090108171907BB
:101F700031F069E071E086E490E00E944206A8EE4C
:101F8000B3E0A50194010E946C1400910501109129
:101F9000060120910701309108016017710782073F
:101FA0009307F9F060930501709306018093070190
:101FB0009093080195E0E92E91E0F92E00E510E0FC
:101FC000D701DD907D01C8010E943714D81621F099
:101FD0006D2DC8010E943F140F5F1F4F043511057E
:101FE00079F780EF91E00E943C0588E891E00E943B
:101FF0003A0580919E0290919F020E944A0588E9CD
:1020000091E00E943A05609105017091060180916E
:102010000701909108010E948E0587EA91E00E94D5
:102020003A0580910B0190910C010E947C0588EB90
:1020300091E00E943A058091090190910A010E9465
:102040007C055DCC1091820287E491E00E94BC0285
:1020500084E491E0111102C080E491E00E94BC028E
:102060008DE391E00E94CD048091B40281111FC0E4
:1020700081E0111101C080E090910401891709F4F9
:102080003ECC1123E1F081E00E94DB040E94D703E3
:102090006093A2027093A3028093A4029093A5027E
:1020A000E1E0F0E0F093AB02E093AA0228CC81E0FB
:1020B0000E94F8068091B402811121CCD9CF80E032
:1020C0000E94DB041092AB021092AA0218CC8BE99A
:1020D00092E00E94CD0486E0898380919E028C83E9
:1020E000809104018E838091B40288878091A1023F
:1020F00089874091A6025091A7026091A802709131
:10210000A902DB01CA018897A109B109873391406F
:10211000A105B10580F08CE092E00E943A05609143
:10212000A6027091A7028091A8029091A9020E9434
:102130008E05C12C39C08090090190900A01B12C04
:10214000A12C84169506A606B70608F44CC088EBA9
:1021500091E00E943A058091090190910A010E9444
:102160007C0587EA91E00E943A0580910B019091ED
:102170000C010E947C0586E392E00E943A05609182
:10218000A6027091A7028091A8029091A9024AE04C
:102190000E94F60483E592E00E943A0584E690E00E
:1021A0000E944A0584E6C82ECF8287E792E00E940B
:1021B000BC026F8170E090E080E04AE00E94F6048B
:1021C0008FE391E00E94C004DE0111969EE180E061
:1021D0008D01915009F482C0ED91E827F0E0E958B3
:1021E000FE4F8491F6CFC0900B01D0900C01F12CE2
:1021F000E12C4C155D056E057F0560F188EB91E0E3
:102200000E943A058091090190910A010E947C0583
:1022100087EA91E00E943A0580910B0190910C01B0
:102220000E947C0586E392E00E943A056091A60236
:102230007091A7028091A8029091A9024AE00E94A1
:10224000F60483E592E00E943A0590E080E00E9467
:102250004A056FCF9A01AB01281939094A095B0970
:10226000ACE9BFEF0E947A14A70196012819390939
:102270004A095B090E944D1469017A01F4E6CF0E08
:10228000D11CE11CF11C88EB91E00E943A05809181
:10229000090190910A010E947C0587EA91E00E9461
:1022A0003A0580910B0190910C010E947C0586E318
:1022B00092E00E943A056091A6027091A702809177
:1022C000A8029091A9024AE00E94F60483E592E0F8
:1022D0000E943A05C6010E944A0566CF8E8F41E8EA
:1022E00061E885EB92E00E94E4030E940C0440E068
:1022F0006DE885EB92E00E94E40340E062EA85EB42
:1023000092E00E94E4034EE150E0B80185EB92E0D8
:102310000E946C0443E861E885EB92E00E94E403CC
:1023200062E185EB92E00E94090483FFF9CF48E067
:1023300062E985EB92E00E94E40388E892E00E9463
:10234000CD040E948E1222E330E040E050E00E9473
:102350004D140E94A40340E861E885EB92E00E94DE
:10236000E403F0CA4091A6025091A7026091A8022E
:102370007091A902411551056105710509F40ECB53
:1023800080910B0190910C01C297B0E0A0E048173A
:1023900059076A077B0708F401CB80E293E00E94AB
:1023A000CD0481E00E94DB040E94D7036093A20267
:1023B0007093A3028093A4029093A50281E090E021
:1023C0009093AB028093AA02E9CA4091A602509171
:1023D000A7026091A8027091A902411551056105FB
:1023E000710509F443C08091090190910A01B0E0A0
:1023F000A0E084179507A607B70760F082E093E096
:102400000E94CD0480E00E94DB041092AB02109287
:10241000AA02C4CA0E94D7030091A2021091A3028B
:102420002091A4023091A502601B710B820B930BCB
:1024300000910501109106012091070130910801DA
:10244000601771078207930708F4A8CA86EE92E026
:102450000E94CD0481E08093B40282E08093A102C7
:1024600080E00E94DB0482E090E0AACF8AEC92E058
:10247000EFCFF80181938F01F2E00E391F0709F0C9
:10248000FACC24CD8F929F92AF92BF92CF92DF92DF
:10249000EF92FF92CF93DF93EC01688179818A817B
:1024A0009B81611571058105910521F464E279ED47
:1024B0008BE597E02DE133EF41E050E00E944D14B1
:1024C00049015A019B01AC01A7EAB1E40E946C14D6
:1024D0006B017C01ACEEB4EFA50194010E947A146B
:1024E000C60ED71EE81EF91EF7FE06C081E0C81A08
:1024F000D108E10880E8F80AC882D982EA82FB8222
:10250000C701B6019F77DF91CF91FF90EF90DF90E9
:10251000CF90BF90AF909F908F9008958F929F9291
:10252000AF92BF92CF92DF92EF92FF926091110132
:102530007091120180911301909114016115710540
:102540008105910521F464E279ED8BE597E02DE1B9
:1025500033EF41E050E00E944D1449015A019B01C4
:10256000AC01A7EAB1E40E946C146B017C01ACEEF3
:10257000B4EFA50194010E947A14C60ED71EE81E7E
:10258000F91EF7FE06C081E0C81AD108E10880E80C
:10259000F80AC0921101D0921201E0921301F09258
:1025A0001401C701B6019F77FF90EF90DF90CF90A5
:1025B000BF90AF909F908F9008956093110170939A
:1025C000120180931301909314010895FC01882750
:1025D0009927E89421912032E9F3293010F02E3028
:1025E000C8F32B3241F02D3239F4689404C00E94B4
:1025F0000B13820F911D219120532A30C0F31EF43A
:10260000909581959F4F0895FB01DC0105900D92F7
:102610000020E1F708957AE0979F902D879F802D05
:10262000910D112408950E94551308F481E0089536
:10263000E89409C097FB3EF490958095709561955C
:102640007F4F8F4F9F4F9923A9F0F92F96E9BB2712
:102650009395F695879577956795B795F111F8CF8E
:10266000FAF4BB0F11F460FF1BC06F5F7F4F8F4FF9
:102670009F4F16C0882311F096E911C0772321F0EF
:102680009EE8872F762F05C0662371F096E8862F87
:1026900070E060E02AF09A95660F771F881FDAF7DE
:1026A000880F9695879597F90895990F0008550F0B
:1026B000AA0BE0E8FEEF16161706E807F907C0F0C8
:1026C00012161306E407F50798F0621B730B840BD0
:1026D000950B39F40A2661F0232B242B252B21F4AA
:1026E00008950A2609F4A140A6958FEF811D811D4A
:1026F00008950E948C130C94FD130E94EF1338F080
:102700000E94F61320F0952311F00C94E6130C941C
:10271000EC1311240C9431140E940E1470F3959F45
:10272000C1F3950F50E0551F629FF001729FBB27C8
:10273000F00DB11D639FAA27F00DB11DAA1F649F64
:102740006627B00DA11D661F829F2227B00DA11D17
:10275000621F739FB00DA11D621F839FA00D611D9D
:10276000221F749F3327A00D611D231F849F600DBE
:10277000211D822F762F6A2F11249F5750409AF0E7
:10278000F1F088234AF0EE0FFF1FBB1F661F771F73
:10279000881F91505040A9F79E3F510580F00C943E
:1027A000E6130C9431145F3FE4F3983ED4F386951E
:1027B00077956795B795F795E7959F5FC1F7FE2BDE
:1027C000880F911D9695879597F9089597F99F67BA
:1027D00080E870E060E008959FEF80EC08950024A9
:1027E0000A941616170618060906089500240A9476
:1027F00012161306140605060895092E0394000CFC
:1028000011F4882352F0BB0F40F4BF2B11F460FF8A
:1028100004C06F5F7F4F8F4F9F4F089557FD9058B3
:10282000440F551F59F05F3F71F04795880F97FB94
:10283000991F61F09F3F79F087950895121613064E
:102840001406551FF2CF4695F1DF08C0161617067D
:102850001806991FF1CF86957105610508940895B2
:10286000E894BB2766277727CB0197F90895F99954
:10287000FECF92BD81BDF89A992780B50895262F85
:10288000F999FECF1FBA92BD81BD20BD0FB6F89455
:10289000FA9AF99A0FBE01960895052E97FB1EF439
:1028A00000940E94641457FD07D00E94B61407FCE0
:1028B00003D04EF40C9464145095409530952195B6
:1028C0003F4F4F4F5F4F089590958095709561955C
:1028D0007F4F8F4F9F4F08950E94D814A59F900D52
:1028E000B49F900DA49F800D911D11240895B7FFF2
:1028F0000C946C140E946C14821B930B08952F92FD
:102900003F924F925F926F927F928F929F92AF927F
:10291000BF92CF92DF92EF92FF920F931F93CF93CC
:10292000DF93CDB7DEB7CA1BDB0B0FB6F894DEBF63
:102930000FBECDBF09942A88398848885F846E8489
:102940007D848C849B84AA84B984C884DF80EE80D3
:10295000FD800C811B81AA81B981CE0FD11D0FB6DC
:10296000F894DEBF0FBECDBFED010895A1E21A2E8F
:10297000AA1BBB1BFD010DC0AA1FBB1FEE1FFF1F23
:10298000A217B307E407F50720F0A21BB30BE40B73
:10299000F50B661F771F881F991F1A9469F76095BA
:1029A0007095809590959B01AC01BD01CF01089574
:1029B000A29FB001B39FC001A39F700D811D112480
:1029C000911DB29F700D811D1124911D08955058C5
:1029D000BB27AA270E94FF140C94FD130E94EF133B
:1029E00038F00E94F61320F039F49F3F19F426F4D2
:1029F0000C94EC130EF4E095E7FB0C94E613E92F2E
:102A00000E940E1458F3BA176207730784079507DC
:102A100020F079F4A6F50C9430140EF4E0950B2E0A
:102A2000BA2FA02D0B01B90190010C01CA01A00120
:102A30001124FF27591B99F0593F50F4503E68F17B
:102A40001A16F040A22F232F342F4427585FF3CFBC
:102A5000469537952795A795F0405395C9F77EF48D
:102A60001F16BA0B620B730B840BBAF09150A1F0D6
:102A7000FF0FBB1F661F771F881FC2F70EC0BA0F5C
:102A8000621F731F841F48F4879577956795B795E4
:102A9000F7959E3F08F0B0CF9395880F08F09927DF
:102AA000EE0F9795879508950E9468150C94FD1375
:102AB0000E94F61358F00E94EF1340F029F45F3F94
:102AC00029F00C94E61351110C9431140C94EC136E
:102AD0000E940E1468F39923B1F3552391F3951BCB
:102AE000550BBB27AA2762177307840738F09F5F2F
:102AF0005F4F220F331F441FAA1FA9F335D00E2E9C
:102B00003AF0E0E832D091505040E695001CCAF708
:102B10002BD0FE2F29D0660F771F881FBB1F2617CB
:102B200037074807AB07B0E809F0BB0B802DBF01A2
:102B3000FF2793585F4F3AF09E3F510578F00C9471
:102B4000E6130C9431145F3FE4F3983ED4F386957A
:102B500077956795B795F7959F5FC9F7880F911D92
:102B60009695879597F90895E1E0660F771F881F7E
:102B7000BB1F621773078407BA0720F0621B730B31
:102B8000840BBA0BEE1F88F7E09508950E94161487
:102B900088F09F5798F0B92F9927B751B0F0E1F01E
:102BA000660F771F881F991F1AF0BA95C9F714C0CE
:102BB000B13091F00E943014B1E008950C943014BB
:102BC000672F782F8827B85F39F0B93FCCF3869507
:102BD00077956795B395D9F73EF490958095709564
:102BE00061957F4F8F4F9F4F08950E94551308F4B2
:102BF0008FEF08950E945513880B990B0895EE0FDF
:102C0000FF1F0590F491E02D09940F931F93CF932C
:102C1000DF938230910510F482E090E0E09176033A
:102C2000F091770330E020E0B0E0A0E0309799F435
:102C30002115310509F44AC0281B390B2430310510
:102C4000D8F58A819B816115710589F1FB01938318
:102C50008283FE0111C04081518102811381481796
:102C60005907E0F04817590799F4109761F0129648
:102C70000C93129713961C933296CF01DF91CF914C
:102C80001F910F9108950093760310937703F4CF6B
:102C90002115310551F04217530738F0A901DB0126
:102CA0009A01BD01DF01F801C1CFEF01F9CF909387
:102CB000770380937603CDCFFE01E20FF31F81935C
:102CC00091932250310939832883D7CF20917403FF
:102CD00030917503232B41F4209117013091180195
:102CE00030937503209374032091150130911601E0
:102CF0002115310541F42DB73EB74091190150918E
:102D00001A01241B350BE0917403F0917503E2174F
:102D1000F307A0F42E1B3F0B2817390778F0AC01FE
:102D20004E5F5F4F2417350748F04E0F5F1F5093DB
:102D3000750340937403819391939FCFF0E0E0E09B
:102D40009CCFCF93DF930097E9F0FC013297138279
:102D50001282A0917603B0917703ED0130E020E07C
:102D60001097A1F420813181820F931F2091740369
:102D7000309175032817390709F061C0F093750386
:102D8000E0937403DF91CF910895EA01CE17DF0736
:102D9000E8F54A815B819E0141155105B1F7E901D2
:102DA000FB83EA8349915991C40FD51FEC17FD07A6
:102DB00061F4808191810296840F951FE9019983C6
:102DC0008883828193819B838A83F0E0E0E012967E
:102DD0008D919C9113970097B9F52D913C91119786
:102DE000CD010296820F931F2091740330917503D9
:102DF0002817390739F6309751F51092770310925A
:102E00007603B0937503A0937403BCCFD383C283BE
:102E100040815181840F951FC817D90761F44E5F17
:102E20005F4F88819981480F591F518340838A8160
:102E30009B81938382832115310509F0B0CFF093F4
:102E40007703E09376039ECFFD01DC01C0CF1382B0
:102E50001282D7CFB0E0A0E0E0E3F7E10C94811458
:102E60008C01009751F4CB010E9405168C01C8011A
:102E7000CDB7DEB7E0E10C949D14FC01E60FF71F1F
:102E80009C0122503109E217F30708F49DC0D901D3
:102E9000CD91DC911197C617D70798F0C530D105B1
:102EA00030F3CE0104978617970708F3C61BD70B9C
:102EB0002297C193D1936D937C93CF010E94A11669
:102EC000D6CF5B01AC1ABD0A4C018C0E9D1EA091A1
:102ED0007603B0917703512C412CF12CE12C109703
:102EE00031F580917403909175038815990509F067
:102EF0005CC04616570608F058C0809115019091A5
:102F00001601009741F48DB79EB740911901509179
:102F10001A01841B950BE817F90708F055C0F093C8
:102F20007503E0937403F90171836083A0CF8D91E1
:102F30009C91119712966C90129713967C90139710
:102F4000A815B90559F56C0142E0C40ED11CCA148C
:102F5000DB0420F1AC014A195B09DA0112961597DE
:102F600080F06282738251834083D9016D937C9398
:102F7000E114F10471F0D7011396FC93EE931297CC
:102F800076CF22968C0F9D1FF90191838083F301E8
:102F9000EFCFF0937703E093760369CF4816590695
:102FA00008F42C017D01D3019ACFCB010E940516B4
:102FB0007C01009749F0AE01B8010E94E717C801F3
:102FC0000E94A116870153CF10E000E050CFFB0113
:102FD000DC0102C001900D9241505040D8F7089595
:102FE000DC0101C06D9341505040E0F70895FC01B1
:102FF0008191861721F08823D9F799270895319771
:10300000CF010895FB01DC018D9101908019011021
:10301000D9F3990B0895FB01DC0101900D9200207A
:10302000E1F70895FB01DC014150504030F08D91F3
:103030000190801919F40020B9F7881B990B0895A5
:10304000FB01DC014150504048F001900D920020FE
:10305000C9F701C01D9241505040E0F70895F8941F
:02306000FFCFA0
:10306200E303E30301C0270900320096008813003E
:103072000001000000000078038000000000006FE3
:1030820002CF01FC01D7022D020B021F0200000039
:1030920000A7046C04BD041C045E0443041D040D5B
:1030A2000A00D0A0D0B0D181D181D182D0BED18F3F
:1030B200D0BDD0B8D0B520D0B4D0BE20D0BED0B113
:1030C200D18AD0B5D0BAD182D0B03A20006E616E2A
:1030D20000696E66006F76660020D181D0BC2E003A
:1030E20072656164524F4D00636F6E74726F6C6CE7
:1030F20065724944203D20006D6178576F726B54B0
:10310200696D65203D200064697374616E63654575
:103112006D707479203D200064697374616E63651B
:1031220046756C6C203D20004745543D0053455484
:103132003D004F4B3D0041444445440045523D0053
:10314200554E4B4E4F574E5F434F4D4D414E4400EF
:103152002A2A2A2A2A53657474696E677350616336
:103162006B65742A2A2A2A2A2A2A2A00D094D0B0E5
:10317200D0BDD0BDD18BD0B520D0B2D0BDD0B5207E
:10318200D0B4D0B8D0B0D0BFD0B0D0B7D0BED0BD00
:10319200D0B0203D200020D094D0B8D181D182D0AF
:1031A200B0D0BDD186D0B8D18F20D181D0BC2E2055
:1031B2002D2000202020D097D0B0D0BFD0BED0BBD1
:1031C200D0BDD0B5D0BDD0B8D0B5202520202D207F
:0231D2000000FB
:00000001FF
