:020000040800F2
:1000000048040020A90200080903000809030008A9
:1000100009030008090300080903000800000000A4
:1000200000000000000000000000000009030008BC
:100030000903000800000000090300080903000884
:100040000903000809030008090300080903000860
:100050000903000809030008090300080903000850
:100060000903000809030008090300080903000840
:100070000903000809030008090300080903000830
:100080000903000809030008090300080903000820
:100090000903000809030008090300080903000810
:1000A0000903000809030008090300080903000800
:1000B00009030008090300080903000809030008F0
:1000C00009030008090300080903000809030008E0
:1000D00009030008090300080903000809030008D0
:1000E00009030008090300080903000809030008C0
:1000F00009030008090300080903000809030008B0
:10010000090300080903000809030008090300089F
:10011000090300080903000809030008090300088F
:10012000090300080903000809030008090300087F
:100130005FF808F180B500AF154A154B1B6843F016
:10014000010313601249124B5A68124B13404B6063
:100150000F4A0F4B1B6823F0847323F48033136022
:100160000B4A0B4B1B6823F480231360084A084B8F
:100170005B6823F4FE035360054B4FF41F029A6043
:1001800000F00CF8044B4FF000629A6000BF80BD95
:10019000001002400000FFF800ED00E080B500AF65
:1001A00000F002F800BF80BD80B483B000AF002330
:1001B0007B6000233B603A4A394B1B6843F4803331
:1001C0001360374B1B6803F400333B607B680133DB
:1001D0007B603B68002B03D17B68B3F5A06FF0D147
:1001E0002F4B1B6803F40033002B02D001233B602C
:1001F00001E000233B603B68012B4BD1294A294B8E
:100200001B6843F010031360264A264B1B6823F03B
:1002100003031360234A234B1B6843F0020313605C
:100220001F4A1F4B5B6853601D4A1D4B5B68536040
:100230001B4A1B4B5B6843F480635360184A184B9E
:100240005B6823F47C135360154A154B5B6843F4D9
:10025000E8135360124A124B1B6843F0807313601B
:1002600000BF0F4B1B6803F00073002BF9D00C4A42
:100270000B4B5B6823F003035360094A084B5B6830
:1002800043F00203536000BF054B5B6803F00C03AF
:10029000082BF9D100BF0C37BD4680BC704700BFAA
:1002A000001002400020024080B582B000AF114B28
:1002B0007B60114B3B6007E03B681A1D3A607A682F
:1002C000111D796012681A603B680C4A9342F3D39F
:1002D0000B480C494FF000028842B8BF40F8042B8D
:1002E000FADBFFF727FF00F085FB00BF0837BD46AC
:1002F00080BD00BFB53100080000002004000020D0
:10030000040000204400002080B400AFFEE700BFDE
:1003100080B483B000AF78604FF020407B681B68EA
:100320007A6851687A68926811437A68D268114392
:100330007A68126911437A68526911437A6892693E
:1003400011437A68D26911437A68126A11437A6854
:10035000526A11437A68926A11437A68D26A1143E9
:100360007A68126B0A4340F823207B689B68082B4D
:100370000DD14FF020417B681B684FF020407A6818
:10038000126850F8222042F0400241F823204FF03A
:1003900020407B681B6801337A68526B11687A6869
:1003A000526B5268120111437A68526B92681202C2
:1003B00011437A68526BD268120411437A68526B07
:1003C0001269120511437A68526B52691206114381
:1003D0007A68526B92690A4340F823207B68DB6A93
:1003E000B3F5804F20D116487B681B687A68926B02
:1003F00011687A68926B5268120111437A68926BA5
:100400009268120211437A68926B126912051143C5
:100410007A68926B5269120611437A68926B9269FC
:100420000A4340F8232006E0054A7B681B686FF00A
:10043000704142F8231000BF0C37BD4680BC7047A6
:10044000040100A080B483B000AF78600B46FB705D
:10045000FB78002B0CD04FF020414FF020427B68FE
:1004600052F8233043F001027B6841F823200BE06F
:100470004FF020414FF020427B6852F82320054B7B
:1004800013407A6841F8223000BF0C37BD4680BC6B
:10049000704700BFFEFF0F0080B483B000AF7860EC
:1004A00039604FF0C0437A6892B21A80044B3A68C0
:1004B00092B21A8000BF0C37BD4680BC704700BFA7
:1004C0000000026080B483B000AF7860044B7A68AB
:1004D00092B21A8000BF0C37BD4680BC704700BF87
:1004E0000000026080B485B000AF78600023FB603C
:1004F00002E0FB680133FB60FA687B689A42F8D33C
:1005000000BF1437BD4680BC704700BF80B489B0BF
:1005100000AF786039600023FB6100233B6100235A
:10052000BB610023FB6000237B610023BB603B6851
:10053000DB7803F00F03FB613B68DB7803F010030B
:10054000002B05D03B689B781A46FB691343FB617F
:100550003B681B88DBB2002B44D07B681B687B6147
:100560000023BB6138E00122BB6902FA03F3FB60A0
:100570003B681B881A46FB6813403B613A69FB687D
:100580009A4226D1BB699B00FB600F22FB6802FAEE
:1005900003F3BB60BB68DB437A6913407B61FA6994
:1005A000FB6802FA03F37A6913437B613B68DB78EB
:1005B000282B05D10122BB699A407B685A6108E06B
:1005C0003B68DB78482B04D10122BB699A407B68E9
:1005D0001A61BB690133BB61BB69072BC3D97B6857
:1005E0007A691A603B681B88FF2B46D97B685B6879
:1005F0007B610023BB613AE0BB690833012202FA48
:1006000003F3FB603B681B881A46FB6813403B61A1
:100610003A69FB689A4227D1BB699B00FB600F22B5
:10062000FB6802FA03F3BB60BB68DB437A691340E3
:100630007B61FA69FB6802FA03F37A6913437B6111
:100640003B68DB78282B05D1BB69083301229A402F
:100650007B685A613B68DB78482B05D1BB6908335E
:1006600001229A407B681A61BB690133BB61BB6997
:10067000072BC1D97B687A695A6000BF2437BD4611
:1006800080BC704780B485B000AF78600B467B803B
:100690000023FB737B689A687B881340002B02D091
:1006A0000123FB7301E00023FB73FB7B1846143727
:1006B000BD4680BC704700BF80B483B000AF786097
:1006C0000B467B807A887B681A6100BF0C37BD4679
:1006D00080BC704780B483B000AF78600B467B80ED
:1006E0007A887B685A6100BF0C37BD4680BC704772
:1006F00080B582B000AF01217C2000F0D1F901214A
:100700004FF4807000F0AEF94CF23373BB801823C5
:10071000FB710323BB713B1D19462248FFF7F6FE10
:100720004FF68073BB801823FB710323BB713B1D05
:1007300019461D48FFF7EAFE1023FB714023BB80DA
:100740003B1D19461748FFF7E1FE0223BB803B1D06
:1007500019461548FFF7DAFE1823FB718023BB808A
:100760003B1D19460F48FFF7D1FE4FF40063BB80D5
:100770003B1D19460B48FFF7C9FE80210948FFF7CA
:100780009BFF02210848FFF7A5FF10210548FFF74E
:1007900093FF20210348FFF78FFF00BF0837BD46B6
:1007A00080BD00BF001401400018014080B596B024
:1007B00000AF02233B6000237B600523BB60002366
:1007C000FB6000233B6100237B614FF08053BB61E2
:1007D0000023FB6100233B6300233B6208237B6211
:1007E0001023BB620023FB6200237B630023BB63F7
:1007F0000023FB634FF480533B6400237B6400239E
:10080000BB640023FB643B463B653B467B6507F1CD
:100810001C031846FFF77CFD01210020FFF712FEA4
:1008200000BF5837BD4680BD80B500AF02216F487C
:10083000FFF750FF6E48FFF755FE02216B48FFF7A8
:100840003BFF6B48FFF74EFE01210020FFF724FE1F
:100850000A20FFF747FE30211520FFF71DFE40213B
:100860001120FFF719FE41F228611020FFF714FE56
:1008700000211220FFF710FE41F24D011320FFF777
:100880000BFE0A20FFF72EFE10211220FFF704FEB8
:100890000A20FFF727FE42F220611020FFF7FCFD3F
:1008A00043F24D411320FFF7F7FD0A20FFF71AFE30
:1008B0004FF480710120FFF7EFFD4FF440710220EB
:1008C000FFF7EAFD41F230010320FFF7E5FD40F2BA
:1008D00004610820FFF7E0FD00210920FFF7DCFD9F
:1008E00008210A20FFF7D8FD02214120FFF7D4FD9F
:1008F0004FF41C516020FFF7CFFD01216120FFF76D
:10090000CBFD4FF4C1719020FFF7C6FD012193206C
:10091000FFF7C2FD1021A320FFF7BEFD0A20FFF75D
:10092000E1FD00213020FFF7B7FD40F202513120F8
:10093000FFF7B2FD40F207313220FFF7ADFD40F284
:1009400005313320FFF7A8FD04213420FFF7A4FD73
:1009500040F202413520FFF79FFD40F2077136203B
:10096000FFF79AFD40F203513720FFF795FD41F262
:1009700005513820FFF790FD41F205513920FFF76E
:100980008BFD0A20FFF7AEFD01210720FFF784FD54
:100990000A20FFF7A7FD21210720FFF77DFD232176
:1009A0000720FFF779FD0A20FFF79CFD3321072080
:1009B000FFF772FD0A20FFF795FD40F23311072083
:1009C000FFF76AFD00215020FFF766FDEF2151205F
:1009D000FFF762FD00215220FFF75EFD40F23F115C
:1009E0005320FFF759FD00BF80BD00BF0018014034
:1009F000FFFF0F0080B500AFFFF77AFEFFF7D6FECE
:100A0000FFF712FF42F21070FFF76CFD4FF6FF7018
:100A100000F0A8FE6420FFF765FD002000F0F4FC64
:100A20006420FFF75FFD00F09DF84FF4A071F02007
:100A300000F0C2F900F028FA4FF6FF7000F092FEC5
:100A400001220649064800F061F9054B1888034B5E
:100A50001B880022194600F095FCF1E706000020F3
:100A60000400002080B483B000AF78600B46FB70B8
:100A7000FB78002B06D00949084B5A697B68134361
:100A80004B6106E00549054B5A697B68DB4313401F
:100A90004B6100BF0C37BD4680BC70470010024060
:100AA00080B483B000AF78600B46FB70FB78002BFE
:100AB00006D00949084B9A697B6813438B6106E0AD
:100AC0000549054B9A697B68DB4313408B6100BF86
:100AD0000C37BD4680BC70470010024080B584B022
:100AE00000AF0346FB800A2000F0CCF8FB881946D3
:100AF0001B4800F0B9FE00BF0121194800F030FF8B
:100B00000346002BF8D0164800F0BCFE0346FB81DC
:100B10000021134800F0A8FE00BF0121104800F09A
:100B20001FFF0346002BF8D00D4800F0ABFE034634
:100B3000BB81FB891B011BB203F47F631AB2BB8923
:100B40001B0B9BB21BB213431BB29BB25B007B819E
:100B50000A2000F097F87B8918461037BD4680BD03
:100B60000030014080B586B000AF01210120FFF7C1
:100B700097FFA023BB821823FB750323BB7507F1E6
:100B8000140319463848FFF7C1FC4023BB820423F5
:100B9000FB750323BB7507F1140319463248FFF7B1
:100BA000B5FC01214FF48050FFF77AFF00212F4858
:100BB00000F03AFE00233B804FF482737B804FF4B9
:100BC0000063BB800023FB8000233B814FF4007354
:100BD0007B813823BB810023FB8107233B823B467B
:100BE0001946224800F0DCFD0021204800F098FE64
:100BF00001211E4800F018FE00211C4800F070FE84
:100C00004FF48071194800F049FE1023FB7503234F
:100C1000BB758023BB8207F1140319461448FFF704
:100C200075FC80211248FFF747FD0423FB75032361
:100C3000BB754023BB8207F1140319460C48FFF72C
:100C400065FC0C4B00221A600A4B1B680A4A1360B1
:100C50000A4B00221A80094B1A88094B1A8000BFE0
:100C60001837BD4680BD00BF00080140003001407C
:100C7000000C01400C0000200800002012000020A1
:100C80001000002080B485B000AF0346FB80002335
:100C9000FB8102E0FB890133FB81FA89FB889A42E0
:100CA000F8D300BF1437BD4680BC704780B582B012
:100CB00000AF80210848FFF70DFD4FF41040FFF70B
:100CC0000DFF0346FB8080210348FFF7F5FCFB88FE
:100CD00018460837BD4680BD000C014080B582B083
:100CE00000AF80210848FFF7F5FC4FF45040FFF7B4
:100CF000F5FE0346FB8080210348FFF7DDFCFB88FF
:100D000018460837BD4680BD000C014080B586B04E
:100D100000AFF860B9601346FB7100F065F8034658
:100D2000FB75FB7D002B3AD0FFF7C0FF0346C3F5F0
:100D30007F630F33BB82FFF7D1FF03467B82FB79D2
:100D4000002B26D000F088F8034683F00103DBB2C5
:100D5000002B1ED07B8A144AB2F9002093FBF2F3D9
:100D60009AB2124BB3F900309BB213449AB2FB68AB
:100D70001A80BB8A0E4AB2F9002093FBF2F39AB2B2
:100D80000C4BB3F900309BB213449AB2BB681A8083
:100D900005E0FB687A8A1A80BB68BA8A1A80FB7DF4
:100DA00018461837BD4680BD2400002026000020CC
:100DB000280000202A00002080B483B000AF034642
:100DC0000A46FB801346BB80054AFB881380054A10
:100DD000BB88138000BF0C37BD4680BC704700BF86
:100DE000100000201200002080B500AF402105480F
:100DF000FFF748FC0346002B01D1012300E000234C
:100E0000184680BD000C014090B482B000AF04468B
:100E1000084611461A462346FB800346BB800B4614
:100E20007B8013463B80084AFB881380074ABB88B7
:100E30001380074A7B881380064A3B88138000BFD3
:100E40000837BD4690BC70472400002026000020D3
:100E5000280000202A00002080B400AF084BB3F91E
:100E60000030002B04D0074BB3F90030002B01D128
:100E7000012300E000231846BD4680BC704700BF38
:100E8000240000202800002080B584B002AFFFF7C6
:100E9000E3FF034683F00103DBB2002B40F05E82E8
:100EA0004FF6FF7000F05EFC0123019300230093D6
:100EB0004FF6E07364223221C44800F055FB002352
:100EC000009323233C2223210A2000F081FB0023EE
:100ED00000933C2323220A21232000F079FB0123E5
:100EE0000193002300934FF6E07378223221B84833
:100EF00000F03AFB00BFFFF777FF034683F00103E2
:100F0000DBB2002BF7D1391DBB1D00221846FFF7BD
:100F1000FDFEFB8840F6F9729342EBD8BB8840F6A1
:100F2000F9729342E6D8FB881AB2AA4B1A80BB88A2
:100F30001AB2A94B1A8000BF01230193002300932A
:100F40004FF6E07378223221A44800F00DFBFFF742
:100F50004BFF0346002BFAD101230193002300939A
:100F60004FF6E073782232219D4800F0FDFA4FF6EB
:100F7000FF7000F0F7FB01230193002300934FF66D
:100F8000E07364223221914800F0EEFA00230093CE
:100F90002323E6222321B42000F01AFB0023009330
:100FA0003C23CD220A21CD2000F012FB0123019326
:100FB000002300934FF6E07378223221844800F03A
:100FC000D3FA00BFFFF710FF034683F00103DBB243
:100FD000002BF7D1391DBB1D00221846FFF796FEE6
:100FE000FB8840F6F9729342EBD8BB8840F6F97261
:100FF0009342E6D8FB881AB2764B5A80BB881AB265
:10100000754B5A8000BF01230193002300934FF6D4
:10101000E07378223221714800F0A6FAFFF7E4FE6F
:101020000346002BFAD101230193002300934FF6CE
:10103000E073782232216A4800F096FA4FF6FF708A
:1010400000F090FB01230193002300934FF6E0731F
:101050006E2232215D4800F087FA0023009340F2AF
:101060001D133C2240F21D110A2000F0B1FA0023AA
:1010700000934FF49B7323224FF48271232000F0DE
:10108000A7FA01230193002300934FF6E07378221F
:1010900032214F4800F068FA00BFFFF7A5FE034673
:1010A00083F00103DBB2002BF7D1391DBB1D0022F9
:1010B0001846FFF72BFEFB8840F6F9729342EBD8F7
:1010C000BB8840F6F9729342E6D8FB881AB2414BCE
:1010D0009A80BB881AB2404B9A8000BF01230193CB
:1010E000002300934FF6E073782232213B4800F052
:1010F0003BFAFFF779FE0346002BFAD10123019357
:10110000002300934FF6E07378223221344800F038
:101110002BFA4FF6FF7000F025FB0123019300230B
:1011200000934FF6E0736E223221284800F01CFA3B
:101130000023009340F21D13E62240F21D11B4205B
:1011400000F046FA002300934FF49B73CD224FF436
:101150008271CD2000F03CFA01230193002300931B
:101160004FF6E07378223221194800F0FDF900BFF4
:10117000FFF73AFE034683F00103DBB2002BF7D101
:10118000391DBB1D00221846FFF7C0FDFB8840F645
:10119000F9729342EBD8BB8840F6F9729342E6D8D5
:1011A000FB881AB20B4BDA80BB881AB20A4BDA8082
:1011B00000BF01230193002300934FF6E0737822D0
:1011C0003221064800F0D0F90CE000BF7031000871
:1011D0007C3100082C0000203800002088310008F5
:1011E00094310008FFF700FE0346002BFAD10123DB
:1011F0000193002300934FF6E0737822322159487F
:1012000000F0B2F9584BB3F906301A46564BB3F911
:101210000030D21ACD2319462323CB1A92FBF3F3C5
:101220001AB2524B1A8023239AB24F4BB3F90030B3
:1012300019464E4BB3F9003091FBF3F39BB2D31A2E
:101240009BB21AB24A4B1A804A4BB3F906301A467F
:10125000484BB3F90030D21A40F21D13194623232C
:10126000CB1A92FBF3F31AB2434B1A8023239AB2A0
:10127000404BB3F9003019463F4BB3F9003091FBB6
:10128000F3F39BB2D31A9BB21AB23C4B1A80364B83
:10129000B3F904301A46344BB3F90230D21A23237F
:1012A0001946CD23CB1A92FBF3F31AB22F4B5A8077
:1012B000CD239AB22C4BB3F9023019462B4BB3F91C
:1012C000023091FBF3F39BB2D31A9BB21AB2284BB4
:1012D0005A80284BB3F904301A46264BB3F9023032
:1012E000D21A40F21D1319462323CB1A92FBF3F3B3
:1012F0001AB2214B5A8023239AB21E4BB3F9023003
:1013000019461D4BB3F9023091FBF3F39BB2D31A8C
:101310009BB21AB2194B5A80144BB3F90000144B0C
:10132000B3F90010144BB3F90020144BB3F900309B
:10133000FFF76AFD4FF6FF7000F014FA01230193E6
:10134000002300934FF6E0736E2214210C4800F046
:101350000BF94FF47A70FFF7C5F800E000BF0837CB
:10136000BD4680BD943100082C00002014000020F0
:101370001C00002038000020180000202000002061
:10138000A031000880B584B000AF0346FB800B4657
:10139000BB8013467B80FB88FB81BB88BB81194BDC
:1013A0001B78012B0ED1BB88EF2B25D8FB88B3F51A
:1013B000A07F21D2BB88FB81FB88C3F59F730133DB
:1013C000BB8106E0FB88EF2B18D8BB88B3F5A07F64
:1013D00014D2FB8919462020FFF75EF8BB89194615
:1013E0002120FFF759F84FF0C04322221A807B8852
:1013F0001846FFF767F802E000BF00E000BF1037B3
:10140000BD4680BD4200002080B483B000AF0346DB
:10141000FB71044AFB79137000BF0C37BD4680BCDA
:10142000704700BF4200002090B589B000AF04466D
:10143000084611461A462346FB800346BB800B46EE
:10144000FB7013463B80474B1B68002B01D10023E8
:1014500083E0444B1B685B78FB74424B1B689B78B2
:10146000BB74FA78FB7C9A4203D3FA78BB7C9A422D
:1014700001D9002371E03B4B1B685B78FA78D31AE3
:101480007B74384B1B685A687B7C9B0013441B8819
:101490003B74344B1B681B78FB73324B1B689B6897
:1014A0007B61304B1B685A687B7C9B0013445B88D4
:1014B000BB81BB897A6913447B61BB883B83002372
:1014C000FB7745E0FB887B834FF40043BB837B695C
:1014D0001B78BB81BB891B02BB817B6901337B61AC
:1014E0007B691B78BB777B6901337B61BB7F9AB2D9
:1014F000BB891343BB810023BB771FE0BA89BB8B39
:1015000013409BB2002B06D03A88398B7B8B184650
:10151000FFF738FF09E097F83430002B05D03A8EFA
:10152000398B7B8B1846FFF72DFF7B8B01337B8339
:10153000BB8B5B08BB83BB7F0133BB77BA7F3B7C34
:101540009A42DBD33B8B01333B83FB7F0133FB7739
:10155000FA7FFB7B9A42B5D33B7C18462437BD46C5
:1015600090BD00BF0000002090B589B002AFF860C8
:10157000084611461A4603467B810B463B811346BB
:10158000FB80F86800F008FA03463B6100237B61AA
:1015900016E07B69FA6813441A78FC8839897889DF
:1015A00097F82C3001933B8D00932346FFF73CFFC7
:1015B00003469AB27B8913447B817B6901337B614B
:1015C0007A693B699A42E4DB00BF1C37BD4690BD97
:1015D00080B58EB000AFF860B9607A603B60FA68A1
:1015E0007B689A422BD13A68BB689A4213DDBB688C
:1015F000FB620BE0FB689BB2FA6A91B2B7F840203D
:101600001846FFF7BFFEFB6A0133FB62FA6A3B68CC
:101610009A42EFDBA2E03B68FB620BE0FB689BB207
:10162000FA6A91B2B7F840201846FFF7ABFEFB6AA2
:101630000133FB62FA6ABB689A42EFDB8EE0BA685C
:101640003B689A422BD17A68FB689A4213DDFB68AB
:101650003B630BE03B6B9BB2BA6891B2B7F840209A
:101660001846FFF78FFE3B6B01333B633A6B7B6899
:101670009A42EFDB72E07B683B630BE03B6B9BB213
:10168000BA6891B2B7F840201846FFF77BFE3B6B73
:1016900001333B633A6BFB689A42EFDB5EE07A68AA
:1016A000FB68D31ABB623A68BB68D31A7B62BB6A19
:1016B000002BB8BF5B423B627B6A002BB8BF5B422A
:1016C000FB61FA687B689A4201DA012301E04FF07E
:1016D000FF33BB61BA683B689A4201DA012301E03B
:1016E0004FF0FF337B613A6AFB69D31A7B637B68F7
:1016F0009BB23A6891B2B7F840201846FFF742FE15
:1017000024E0FB689BB2BA6891B2B7F84020184653
:10171000FFF738FE7B6B5B003B61FB695A423B691C
:101720009A4207DA7A6BFB69D31A7B63FA68BB6962
:101730001344FB603A693B6A9A4207DA7A6B3B6A68
:1017400013447B63BA687B691344BB60FA687B68A7
:101750009A42D6D1BA683B689A42D2D13837BD4650
:1017600080BD00BF80B584B000AF0346FB8000237E
:10177000FB604FF0C04322221A800023FB6006E08A
:10178000FB881846FEF79EFEFB680133FB60FB6892
:10179000B3F5963FF4DB00BF1037BD4680BD00BFF8
:1017A00080B485B000AF786039600023FB817B682E
:1017B0001B88FB81FB8903F44153FB813B681A883A
:1017C0003B685B8813439AB23B689B8813439AB289
:1017D0003B68DB8813439AB23B681B8913439AB278
:1017E0003B685B8913439AB23B689B8913439AB267
:1017F0003B68DB8913439AB2FB891343FB817B6807
:10180000FA891A807B689B8B9BB223F400639AB29F
:101810007B689A833B681A8A7B681A8200BF1437F8
:10182000BD4680BC704700BF80B483B000AF786015
:101830000B46FB70FB78002B08D07B681B889BB2A3
:1018400043F040039AB27B681A8007E07B681B88EC
:101850009BB223F040039AB27B681A8000BF0C371A
:10186000BD4680BC704700BF80B483B000AF7860D5
:101870000B467B807B687A889A8100BF0C37BD4617
:1018800080BC704780B483B000AF78607B689B8970
:101890009BB218460C37BD4680BC704780B483B0FD
:1018A00000AF78600B467B807B884FF6FF629342E7
:1018B00008D07B681B889BB243F480739AB27B6824
:1018C0001A8007E07B681B889BB223F480739AB26E
:1018D0007B681A8000BF0C37BD4680BC704700BFD4
:1018E00080B483B000AF78600B46FB70FB78002BB0
:1018F00008D07B689B889BB243F004039AB27B6854
:101900009A8007E07B689B889BB223F004039AB21D
:101910007B689A8000BF0C37BD4680BC704700BF13
:1019200080B483B000AF78600B46FB70FB78002B6F
:1019300008D07B681B889BB243F400539AB27B6843
:101940001A8007E07B681B889BB223F400539AB28D
:101950007B681A8000BF0C37BD4680BC704700BF53
:1019600080B485B000AF78600B467B800023FB73AA
:101970007B681B899AB27B8813409BB2002B02D0F4
:101980000123FB7301E00023FB73FB7B1846143734
:10199000BD4680BC704700BF20F0030110F003007B
:1019A000C0F1000051F8043B00F1040C4FEACC0CEC
:1019B0006FF000021CBF22FA0CF213434FF0010C2F
:1019C0004CEA0C2C4CEA0C4CA3EB0C0222EA03026E
:1019D00012EACC1204BF51F8043B0430F4D0C2F137
:1019E000000102EA0102B2FA82F2C2F11F0200EB28
:1019F000D20070470000000000000000000000005E
:101A000000000000000000000000000000000000D6
:101A1000000000000000080008000800080008009E
:101A20000800080008000800000008000800000086
:101A3000000000000000220022002200220000001E
:101A40000000000000000000000000000000000096
:101A500000000000000009000900120012007F8051
:101A600012002400FF8024002400480048000000E9
:101A70000000000004001F003400240024001400B3
:101A80000C00060007000500050025003E000400CC
:101A90000000000000007040888089008A00720009
:101AA0000400080013801440244044408380000058
:101AB0000000000000001C002200220026001C0084
:101AC000300048408C408480828043003F8000008A
:101AD00000000000000008000800080008000000E6
:101AE00000000000000000000000000000000000F6
:101AF000000000000000018006000C00080010003B
:101B00001000100010001000100008000C0006006B
:101B1000018000000000600018000C0004000200BA
:101B20000200020002000200020004000C00180083
:101B3000600000000000080008006B003600140080
:101B40001C00140000000000000000000000000065
:101B5000000000000000000000000000000008007D
:101B6000080008000800FF800800080008000000C6
:101B70000000000000000000000000000000000065
:101B8000000000000000000000001800180008001D
:101B9000080010000000000000000000000000002D
:101BA000000000003F0000000000000000000000F6
:101BB0000000000000000000000000000000000025
:101BC00000000000000000000000180018000000E5
:101BD000000000000000008001000100020002007F
:101BE000040004000800080010001000200020007D
:101BF0004000000000001C002200220041004100C3
:101C00004100410041004100220022001C00000070
:101C1000000000000000080078000800080008002C
:101C20000800080008000800080008007F00000005
:101C30000000000000007C004200020002000200E0
:101C40000400040008001000200040007E00000096
:101C50000000000000003C00020002000200020040
:101C60001C00020002000200020002003C00000012
:101C700000000000000004000C0014001400240008
:101C8000440044008400FF0004000400040000003D
:101C90000000000000003E0020002000200038006E
:101CA00004000200020002000200040038000000EC
:101CB0000000000000001E002000200040005C002A
:101CC0006200410041004100410022001C00000070
:101CD0000000000000007F0001000200040004007A
:101CE0000800080010001000100020002000000074
:101CF0000000000000003E004100410041002600BD
:101D00001800260042004100410042003C00000053
:101D10000000000000001C002200410041004100C2
:101D2000410023001D000100020002003C000000F1
:101D3000000000000000000000000000000018008B
:101D4000180000000000000000001800180000004B
:101D5000000000000000000000000000000018006B
:101D60001800000000000000000018001800080023
:101D700008001000000000000000000000000080CB
:101D800003000C00300030000C0003000080000055
:101D90000000000000000000000000000000000043
:101DA00000007F80000000007F8000000000000035
:101DB00000000000000000000000000000004000E3
:101DC00030000C00030003000C0030004000000055
:101DD0000000000000007E004300410001000200FE
:101DE00004000800100010000000100010000000A7
:101DF0000000000000001E0021004700C900910003
:101E000091009300930097004DC062003E000000D7
:101E10000000000000000000000008001C0014008A
:101E20001200220021007F0040804080804000009E
:101E3000000000000000000000007E0041004100A2
:101E400042007C0042004100410041007E00000051
:101E5000000000000000000000001F0061004000C2
:101E60008000800080008000400060001F000000B3
:101E7000000000000000000000007C004200410063
:101E80004100410041004100410042007C0000004F
:101E9000000000000000000000007F004000400043
:101EA000400040007E004000400040007F000000F5
:101EB000000000000000000000007F004000400023
:101EC000400040007E004000400040004000000014
:101ED000000000000000000000000F8030802000A3
:101EE0004000400043804080208030800F80000010
:101EF000000000000000000000004100410041001F
:101F0000410041007F0041004100410041000000CC
:101F1000000000000000000000007F000800080032
:101F20000800080008000800080008007F00000002
:101F3000000000000000000000001E00020002007F
:101F40000200020002000200020002003C00000049
:101F500000000000000000000000410042004400BA
:101F600048007000500048004600410040800000DA
:101F700000000000000000000000400040004000A1
:101F80004000400040004000400040007F00000052
:101F900000000000000000000000C300C300E300D8
:101FA000A500A500B50099009900810081000000FE
:101FB000000000000000000000004100610051002E
:101FC0005100490049004500450043004100000020
:101FD000000000000000000000001E002100408002
:101FE0004080408040804080408021001E000000F2
:101FF000000000000000000000007E0041004100E1
:10200000410042007C0040004000400040000000D1
:10201000000000000000000000001E0021004080C1
:102020004080408040804080408021001E000200AF
:10203000018000000000000000007C00420042001F
:102040004200440078004800440042004100000083
:10205000000000000000000000003F0041004000C0
:102060006000180006000100010043007C00000031
:1020700000000000000000000000FF8008000800D1
:102080000800080008000800080008000800000018
:10209000000000000000000000004100410041007D
:1020A0004100410041004100410022003C0000008D
:1020B00000000000000000000000804040804080E0
:1020C000210021002200120012000C000C00000070
:1020D00000000000000000000000804080404880B8
:1020E0004C804C805480528033003300210000002B
:1020F000000000000000000000008040408021003F
:1021000012000C000C0012002100408080400000F2
:10211000000000000000000000008040408021001E
:102120002200140008000800080008000800000051
:10213000000000000000000000007F80008001001F
:102140000200040008001000200040007F80000012
:102150000000000000001F00100010001000100020
:1021600010001000100010001000100010001000EF
:102170001F000000000040002000200010001000A0
:102180000800080004000400020002000100010031
:102190000080000000007C00040004000400040033
:1021A000040004000400040004000400040004000F
:1021B0007C0000000000040004000C000A001A006B
:1021C00012001100210021004080000000000000EA
:1021D00000000000000000000000000000000000FF
:1021E0000000000000000000000000000000FFC030
:1021F00000000000080004000000000000000000D3
:1022000000000000000000000000000000000000CE
:1022100000000000000000000000000000003C0082
:10222000020002001E002200420046003B000000A7
:1022300000000000000040004000400040005E0040
:102240006200410041004100410062005C0000006A
:1022500000000000000000000000000000001F005F
:102260002000400040004000400020001F0000000F
:1022700000000000000001000100010001001D003D
:102280002300410041004100410023003D000000C7
:1022900000000000000000000000000000001E0020
:1022A000210041007F004000400020001F0000008E
:1022B00000000000000007801800100010007F8060
:1022C000100010001000100010001000100000009E
:1022D00000000000000000000000000000001D00E1
:1022E0002300410041004100410023003D00010066
:1022F00002003C00000040004000400040004E0052
:1023000051006100410041004100410041000000D6
:102310000000000000001800180000000000780015
:102320000800080008000800080008000800000075
:102330000000000000000C000C00000000003C0049
:10234000040004000400040004000400040004006D
:1023500004007800000040004000400040004100C0
:1023600046004800700050004C0042004100000050
:102370000000000000003C00040004000400040011
:102380000400040004000400040004000400000031
:102390000000000000000000000000000000B3008A
:1023A000CC808880888088808880888088800000B1
:1023B00000000000000000000000000000004E00CF
:1023C00071006100410041004100410041000000F6
:1023D00000000000000000000000000000001C00E1
:1023E0002200410041004100410022001C00000089
:1023F00000000000000000000000000000005E007F
:102400006200410041004100410062005C00400068
:1024100040004000000000000000000000001D001F
:102420002300410041004100410023003D00010024
:102430000100010000000000000000000000270073
:102440002900310020002000200020002000000092
:1024500000000000000000000000000000003E003E
:102460004000400030000C00020042007C000000F0
:1024700000000000000000000000100010007F00BD
:102480001000100010001000100010000F000000DD
:1024900000000000000000000000000000004200FA
:1024A0004200420042004200420046003A00000062
:1024B000000000000000000000000000000080801C
:1024C00041004100420022002400140018000000D6
:1024D000000000000000000000000000000080403C
:1024E00088404C804C805280528033002100000094
:1024F000000000000000000000000000000040801C
:10250000210012000C000C0012002100408000008D
:1025100000000000000000000000000000008040FB
:10252000408040802100320012000C000C000800A6
:102530001000E000000000000000000000007F80AC
:102540000100020004000800100020007F8000004D
:102550000000000000000700080008000800080054
:102560000800080030000800080008000800080003
:10257000070000000000080008000800080008002C
:10258000080008000800080008000800080008000B
:1025900008000000000038000400040004000400EB
:1025A000040004000300040004000400040004000C
:1025B00038000000000000000000000000000000E3
:1025C000000070408C40838000000000000000008C
:1025D0000000000000000000000008001C001400C3
:1025E0001200220021007F004080408080400000D7
:1025F000000000000000000000003E00200020005D
:1026000020003E0021002100210021003E000000AA
:10261000000000000000000000007E0041004100BA
:1026200042007C0042004100410041007E00000069
:10263000000000000000000000003F80200020009B
:1026400020002000200020002000200020000000AA
:10265000000000000000000000001F001100110039
:10266000110011001100210021002100FF80808055
:10267000808000000000000000007F00400040005B
:10268000400040007E004000400040007F0000000D
:1026900000000000000000000000C98049002A007E
:1026A0002A001C002A002A006B004900C980000093
:1026B000000000000000000000007E00010001009A
:1026C00001001E0001000100010001007E00000069
:1026D0000000000000000000000041004300450031
:1026E00045004900490051005100610041000000CF
:1026F0000000000022001C000000410043004500D3
:1027000045004900490051005100610041000000AE
:1027100000000000000000000000410042004400F2
:10272000480070004800440044004200410000009E
:10273000000000000000000000001F001100110058
:1027400011001100110011001100210061000000B2
:1027500000000000000000000000C300C300E30010
:10276000A500A500B5009900990081008100000036
:102770000000000000000000000041004100410096
:10278000410041007F004100410041004100000044
:10279000000000000000000000001E00210040803A
:1027A0004080408040804080408021001E0000002A
:1027B000000000000000000000007F004100410018
:1027C0004100410041004100410041004100000042
:1027D000000000000000000000007E0041004100F9
:1027E000410042007C0040004000400040000000EA
:1027F000000000000000000000001F006100400019
:102800008000800080008000400060001F00000009
:1028100000000000000000000000FF800800080029
:102820000800080008000800080008000800000070
:1028300000000000000000000000804040804100D7
:102840002100120012000C000800180070000000A7
:1028500000000000000000000000080008003E002A
:10286000C98088808880C9803E0008000800000078
:1028700000000000000000000000804040802100B7
:1028800012000C000C00120021004080804000006B
:102890000000000000000000000041004100410075
:1028A0004100410041004100410041007FC0004023
:1028B0000040000000000000000042004200420012
:1028C0004200420046003A000200020002000000FE
:1028D00000000000000000000000888088808880E0
:1028E000888088808880888088808880FF80000039
:1028F00000000000000000000000888088808880C0
:10290000888088808880888088808880FFC0004098
:1029100000400000000000000000F0001000100067
:1029200010001F0010801080108010801F00000019
:102930000000000000000000000040804080408057
:1029400040807880448044804480448078800000C7
:1029500000000000000000000000400040004000B7
:1029600040007E0041004100410041007E00000027
:10297000000000000000000000007C0002000100D8
:1029800001001F0001000100010002007C000000A6
:1029900000000000000000000000870088809040D8
:1029A0009040F04090409040904088808700000028
:1029B000000000000000000000003E004200420055
:1029C000420042003E00120022004200820000004D
:1029D00000000000000000000000000000003C00BB
:1029E000020002001E002200420046003B000000E0
:1029F0000000000000001E002000200040005E00DB
:102A00006200410041004100410022001C00000022
:102A100000000000000000000000000000003E0078
:102A2000210021003E002100210021003E00000085
:102A300000000000000000000000000000003F80D7
:102A400020002000200020002000200020000000A6
:102A500000000000000000000000000000001E0058
:102A6000120012001200120022002200FFC080405B
:102A700080400000000000000000000000001E0078
:102A8000210041007F004000400020001F000000A6
:102A900000000000000000000000000000004900ED
:102AA0002A002A001C002A004900490088800000F2
:102AB00000000000000000000000000000007C009A
:102AC000020002001C000200020002007C00000064
:102AD00000000000000000000000000000004100B5
:102AE00043004500490049005100610041000000D9
:102AF00000000000000022001C0000000000410057
:102B000043004500490049005100610041000000B8
:102B10000000000000000000000000000000430072
:102B200042004400480070004C0042004100000098
:102B300000000000000000000000000000001F0076
:102B400011001100110011001100210041000000CE
:102B50000000000000000000000000000000410034
:102B60006300630055005500550049004100000016
:102B70000000000000000000000000000000410014
:102B8000410041007F004100410041004100000040
:102B900000000000000000000000000000001C0019
:102BA0002200410041004100410022001C000000C1
:102BB00000000000000000000000000000003F00D6
:102BC000210021002100210021002100210000001E
:102BD00000000000000000000000000000005E0097
:102BE0006200410041004100410062005C00400081
:102BF00040004000000000000000000000001F0036
:102C00002000400040004000400020001F00000065
:102C100000000000000000000000000000007F80B5
:102C2000080008000800080008000800080000006C
:102C300000000000000000000000000000008040D4
:102C4000408040802100320012000C000C0008007F
:102C50001000E000000008000800080008007F00E5
:102C60008880888088808880888088807F000800AD
:102C70000800080000000000000000000000408084
:102C8000210012000C000C00120021004080000006
:102C900000000000000000000000000000004200F2
:102CA0004200420042004200420042007FC0004019
:102CB0000040000000000000000000000000420092
:102CC0004200420042003E000200020002000000FA
:102CD00000000000000000000000000000008880EC
:102CE000888088808880888088808880FF80000035
:102CF00000000000000000000000000000008880CC
:102D0000888088808880888088808880FFC0004094
:102D10000040000000000000000000000000F00083
:102D2000100010001E001100110011001E00000014
:102D300000000000000000000000000000004080D3
:102D400040804080788044804480448078800000C7
:102D50000000000000000000000000000000200053
:102D6000200020003E002100210021003E00000044
:102D700000000000000000000000000000007C00D7
:102D8000020001001F000100010002007C000000A1
:102D9000000000000000000000000000000047806C
:102DA0004CC0484078404840484044C047800000FC
:102DB00000000000000000000000000000001F00F4
:102DC0002100210021001F0011002100410000000E
:102DD000000000000A0000000A0020000A00400075
:102DE0000A0060000A0080000A00A0000A00C0007B
:102DF0000A00E0000A0000010A0020010A00400168
:102E00000A0060010A0080010A00A0010A00C00156
:102E10000A00E0010A0000020A0020020A00400243
:102E20000A0060020A0080020A00A0020A00C00232
:102E30000A00E0020A0000030A0020030A0040031F
:102E40000A0060030A0080030A00A0030A00C0030E
:102E50000A00E0030A0000040A0020040A004004FB
:102E60000A0060040A0080040A00A0040A00C004EA
:102E70000A00E0040A0000050A0020050A004005D7
:102E80000A0060050A0080050A00A0050A00C005C6
:102E90000A00E0050A0000060A0020060A004006B3
:102EA0000A0060060A0080060A00A0060A00C006A2
:102EB0000A00E0060A0000070A0020070A0040078F
:102EC0000A0060070A0080070A00A0070A00C0077E
:102ED0000A00E0070A0000080A0020080A0040086B
:102EE0000A0060080A0080080A00A0080A00C0085A
:102EF0000A00E0080A0000090A0020090A00400947
:102F00000A0060090A0080090A00A0090A00C00935
:102F10000A00E0090A00000A0A00200A0A00400A22
:102F20000A00600A0A00800A0A00A00A0A00C00A11
:102F30000A00E00A0A00000B0A00200B0A00400BFE
:102F40000A00600B0A00800B0A00A00B0A00C00BED
:102F50000A0000000A0000000A0000000A00000049
:102F60000A0000000A0000000A0000000A00000039
:102F70000A0000000A0000000A0000000A00000029
:102F80000A0000000A0000000A0000000A00000019
:102F90000A0000000A0000000A0000000A00000009
:102FA0000A0000000A0000000A0000000A000000F9
:102FB0000A0000000A0000000A0000000A000000E9
:102FC0000A0000000A0000000A0000000A000000D9
:102FD0000A0000000A0000000A0000000A000000C9
:102FE0000A0000000A0000000A0000000A000000B9
:102FF0000A0000000A0000000A0000000A000000A9
:103000000A0000000A0000000A0000000A00000098
:103010000A0000000A0000000A0000000A00000088
:103020000A0000000A0000000A0000000A00000078
:103030000A0000000A0000000A0000000A00000068
:103040000A0000000A0000000A0000000A00000058
:103050000A0000000A00E00B0A00000C0A00200C25
:103060000A00400C0A00600C0A00800C0A00A00C48
:103070000A00C00C0A00E00C0A00000D0A00200D36
:103080000A00400D0A00600D0A00800D0A00A00D24
:103090000A00C00D0A00E00D0A00000E0A00200E12
:1030A0000A00400E0A00600E0A00800E0A00A00E00
:1030B0000A00C00E0A00E00E0A00000F0A00200FEE
:1030C0000A00400F0A00600F0A00800F0A00A00FDC
:1030D0000A00C00F0A00E00F0A0000100A002010CA
:1030E0000A0040100A0060100A0080100A00A010B8
:1030F0000A00C0100A00E0100A0000110A002011A6
:103100000A0040110A0060110A0080110A00A01193
:103110000A00C0110A00E0110A0000120A00201281
:103120000A0040120A0060120A0080120A00A0126F
:103130000A00C0120A00E0120A0000130A0020135D
:103140000A0040130A0060130A0080130A00A0134B
:103150000A00C0131020FF02D42D0008F419000843
:103160002300CD002300CD00230023001D011D01FD
:10317000CAE0EBE8E1F0EEE2EAE00000CDE0E6E8EC
:10318000ECE0E9F2E5200000CEF2EFF3F1EAE0E94D
:10319000F2E5000020202020202020202020000018
:1031A000CAE0EBE8E1F0EEE2EAE020E7E0E2E5F099
:0531B000F8E5EDE00070
:0431B5005431000889
:0400000508000000EF
:00000001FF
