:1000000072C000009EC000009CC000009AC00000AA
:1000100098C0000096C0000094C0000092C000008C
:1000200090C000008EC000008CC000008AC000009C
:1000300088C0000086C0000084C0000082C00000AC
:1000400080C000007EC000007CC000007AC00000BC
:1000500078C0000076C0000074C00000F9C1000044
:1000600070C0000068C200003DC200006AC000000D
:1000700068C0000066C0000064C0000062C00000EC
:1000800060C000005EC000005CC000005AC00000FC
:1000900058C0000056C0000054C0000052C000000C
:1000A00050C000004EC000004CC000004AC000001C
:1000B00048C0000046C0000044C0000042C000002C
:1000C00040C000003EC000003CC000003AC000003C
:1000D00038C0000036C0000034C0000032C000004C
:1000E00030C00000DB0311241FBECFEFD1E2DEBF22
:1000F000CDBF00E00CBF12E0A0E0B2E0E0E7F8E026
:1001000000E00BBF02C007900D92A435B107D9F7EC
:1001100022E0A4E5B2E001C01D92AA3FB207E1F7D8
:1001200010E0C3E7D0E000E005C021970109802F6F
:10013000FE0190D3C237D10780E00807B1F731D272
:1001400095C35ECFCF92DF92EF92FF920F931F93F2
:10015000CF93DF936C017A018B01C0E0D0E0CE1524
:10016000DF0589F0D8016D918D01D601ED91FC91EB
:100170000190F081E02DC6011995892B11F47E01C3
:1001800002C02196ECCFC701DF91CF911F910F9153
:10019000FF90EF90DF90CF900895089580E090E079
:1001A0000895FC01538D448D252F30E0842F90E07D
:1001B000821B930B541710F0CF9608950197089562
:1001C000FC01918D828D981761F0828DDF01A80F5F
:1001D000B11D5D968C91928D9F5F9F73928F90E081
:1001E00008958FEF9FEF0895FC01918D828D9817F0
:1001F00031F0828DE80FF11D858D90E008958FEF2D
:100200009FEF0895FC01918D228D892F90E0805CF5
:100210009F4F821B91098F73992708958DE592E076
:10022000F1DF21E0892B09F420E0822F0895FC0101
:10023000848DDF01A80FB11DA35ABF4F2C91848D6F
:1002400090E001968F739927848FA689B7892C93A4
:10025000A089B1898C9180648C93938D848D98133F
:1002600006C00288F389E02D80818F7D8083089508
:10027000EF92FF920F931F93CF93DF93EC0181E0F6
:10028000888F9B8D8C8D981305C0E889F9898081B2
:1002900085FD23C0F62E0B8D10E00F5F1F4F0F73EF
:1002A0001127E02E8C8DE8120BC00FB607FCFACF99
:1002B000E889F989808185FFF5CFCE01B8DFF2CFDB
:1002C0008B8DFE01E80FF11DE35AFF4FF0820B8F7B
:1002D000EA89FB898081806207C0EE89FF8960839B
:1002E000E889F98980818064808381E090E0DF91F2
:1002F000CF911F910F91FF90EF900895CF93DF93CF
:10030000EC01888D8823C1F0EA89FB89808185FD15
:1003100005C0A889B9898C9186FD0EC00FB607FC6F
:10032000F5CF808185FFF2CFA889B9898C9185FFAF
:10033000EDCFCE017CDFE8CFDF91CF91089580E053
:1003400090E0892B19F06ADF811125C080E090E0F0
:10035000892B41F080E090E0892B21F00E94000081
:1003600081111CC080E090E0892B41F080E090E09A
:10037000892B21F00E940000811113C080E090E0E1
:10038000892BA1F080E090E0892B81F00E94000091
:1003900081110AC008950E940000D8CF0E94000079
:1003A000E1CF0E940000EACF0C940000089500976E
:1003B00061F0FC0101900020E9F73197AF01481B83
:1003C000590BBC018DE592E0BDCE80E090E0089530
:1003D0008F929F92AF92BF920F931F93CF93DF9311
:1003E000CDB7DEB7A1970FB6F894DEBF0FBECDBF75
:1003F00019A2423008F44AE08E010F5D1F4F842E8F
:10040000912CA12CB12CA501940102D2E62FB901A7
:10041000CA0101501109EA3014F4E05D01C0E95C41
:10042000D801EC93232B242B252B69F7C801BFDFC0
:10043000A1960FB6F894DEBF0FBECDBFDF91CF916E
:100440001F910F91BF90AF909F908F9008950AD207
:100450001F920F920FB60F9211242F933F938F93F9
:100460009F93AF93BF938091590290915A02A091AC
:100470005B02B0915C023091580223E0230F2D37CC
:1004800020F40196A11DB11D05C026E8230F029698
:10049000A11DB11D209358028093590290935A02D6
:1004A000A0935B02B0935C0280915402909155023C
:1004B000A0915602B09157020196A11DB11D8093E3
:1004C000540290935502A0935602B0935702BF91E5
:1004D000AF919F918F913F912F910F900FBE0F90F1
:1004E0001F9018951F920F920FB60F9211240BB602
:1004F0000F922F933F934F935F936F937F938F93BD
:100500009F93AF93BF93EF93FF938DE592E08FDEC0
:10051000FF91EF91BF91AF919F918F917F916F91DB
:100520005F914F913F912F910F900BBE0F900FBE97
:100530000F901F9018951F920F920FB60F921124D3
:100540000BB60F922F938F939F93EF93FF93E091AE
:100550006D02F0916E028081E0917302F09174025D
:1005600082FD12C09081809176028F5F8F732091FF
:100570007702821751F0E0917602F0E0E35AFD4FE6
:10058000958F8093760201C08081FF91EF919F91BA
:100590008F912F910F900BBE0F900FBE0F901F9059
:1005A0001895789484B5826084BD84B5816084BDDB
:1005B00085B5826085BD85B5816085BD80916E0001
:1005C000816080936E001092810080918100826032
:1005D000809381008091810081608093810080916F
:1005E00080008160809380008091B100846080935E
:1005F000B1008091B00081608093B0008091910043
:10060000826080939100809191008160809391003D
:10061000809190008160809390008091A100826021
:100620008093A1008091A10081608093A1008091BE
:10063000A00081608093A00080912101826080935E
:10064000210180912101816080932101809120010D
:1006500081608093200180917A00846080937A0089
:1006600080917A00826080937A0080917A00816024
:1006700080937A0080917A00806880937A0010924B
:10068000C100E0916D02F0916E0282E08083E09102
:100690006902F0916A021082E0916B02F0916C02A3
:1006A0008FEC808310927502E0917102F0917202DA
:1006B00086E08083E0916F02F0917002808180611A
:1006C0008083E0916F02F091700280818860808366
:1006D000E0916F02F0917002808180688083E091E8
:1006E0006F02F091700280818F7D808384E192E0BF
:1006F0005EDE80E392E05BDE609100028DE592E0D9
:10070000B7DD83E392E053DEC0900002D090010297
:100710000D2C000CEE08FF08F7FE14C0E0915D02FE
:10072000F0915E020190F081E02D6DE28DE592E0A6
:10073000199566277727CB016C197D098E099F09CA
:100740004AE003C04AE0C701B60142DE8BE392E013
:100750002EDE6091000270910102072E000C880BC2
:10076000990B40E135DE83E492E021DE60910002E6
:1007700070910102072E000C880B990B48E028DECF
:100780008BE492E014DE6091000270910102072E6A
:10079000000C880B990B42E01BDE80E392E007DE41
:1007A0008091000290910102019690930102809342
:1007B0000002C5DDA1CFEDE5F2E01382128288EEE2
:1007C00093E0A0E0B0E084839583A683B78386E0BE
:1007D00092E09183808385EC90E09587848784EC18
:1007E00090E09787868780EC90E0918B808B81ECFE
:1007F00090E0938B828B82EC90E0958B848B86ECDF
:1008000090E0978B868B118E128E138E148E089526
:10081000A1E21A2EAA1BBB1BFD010DC0AA1FBB1F04
:10082000EE1FFF1FA217B307E407F50720F0A21B76
:10083000B30BE40BF50B661F771F881F991F1A94E3
:1008400069F760957095809590959B01AC01BD010D
:10085000CF010895EE0FFF1F881F8BBF0790F69101
:10086000E02D199481E090E0F89400C0F894FFCF57
:100870002100000000003801A200D1007E01020129
:10088000E000F4004153434949205461626C652003
:100890007E20436861726163746572204D617000EF
:1008A0000D0A002C206465633A20002C20686578CE
:1008B0003A20002C206F63743A20002C2062696E6D
:0408C0003A200000DA
:00000001FF
