:100000000C9462000C943E070C9417070C948A0021
:100010000C948A000C948A000C948A000C948A0038
:100020000C948A000C948A000C948A000C948A0028
:100030000C948A000C948A000C948A000C948A0018
:100040000C94CD060C948A000C949B060C947506B7
:100050000C948A000C948A000C948A000C948A00F8
:100060000C9465070C948A00000000002300260011
:10007000290000000000240027002A0000000000E2
:10008000250028002B0004040404040404040202D4
:100090000202020203030303030301020408102007
:1000A0004080010204081020010204081020000012
:1000B0000008000201000003040700000000000027
:1000C0000000840811241FBECFEFD8E0DEBFCDBFF3
:1000D00012E0A0E0B1E0E4E3FEE102C005900D9281
:1000E000A433B107D9F724E0A4E3B2E001C01D9224
:1000F000A239B207E1F710E0C2E6D0E004C02197D0
:10010000FE010E94120FC136D107C9F70E94BD0837
:100110000C94180F0C940000AF92BF92CF92DF9214
:10012000EF92FF920F931F93CF93DF936C017B01AC
:100130008B01040F151FEB015E01AE18BF08C0173D
:10014000D10759F06991D601ED91FC910190F081B0
:10015000E02DC6010995892B79F7C501DF91CF9173
:100160001F910F91FF90EF90DF90CF90BF90AF90D5
:100170000895E091DC02F091DD02309729F01092B1
:10018000D9021092D80209940895CF93DF93AC015D
:10019000E091DE02F091DF023097F1F09091DB0206
:1001A0008091DA029817C0F090E0292F30E02617EE
:1001B000370754F4D901A15CBD4F240F351FE90165
:1001C00028812C939F5FF1CF1092DB026093DA02BB
:1001D000CB01DF91CF910994DF91CF910895FC017C
:1001E000538D448D252F30E0842F90E0821B930B9C
:1001F000541710F0CF96089501970895FC01918D42
:10020000828D981761F0A28DAE0FBF2FB11D5D9644
:100210008C91928D9F5F9F73928F90E008958FEFE6
:100220009FEF0895FC01918D828D981731F0828D9A
:10023000E80FF11D858D90E008958FEF9FEF0895F1
:10024000FC01918D228D892F90E0805C9F4F821B55
:1002500091098F739927089589EE93E00E942001F8
:1002600021E0892B09F420E0822F089580E090E0BE
:10027000892B29F00E942C0181110C940000089513
:10028000FC01A48DA80FB92FB11DA35ABF4F2C910B
:10029000848D90E001968F739927848FA689B78902
:1002A0002C93A089B1898C91837080648C93938DF9
:1002B000848D981306C00288F389E02D80818F7D9C
:1002C00080830895EF92FF920F931F93CF93DF9354
:1002D000EC0181E0888F9B8D8C8D98131AC0E88982
:1002E000F989808185FF15C09FB7F894EE89FF8951
:1002F0006083E889F98980818370806480839FBFEF
:1003000081E090E0DF91CF911F910F91FF90EF90EE
:100310000895F62E0B8D10E00F5F1F4F0F731127FE
:10032000E02E8C8D8E110CC00FB607FCFACFE88939
:10033000F989808185FFF5CFCE010E944001F1CF80
:10034000EB8DEC0FFD2FF11DE35AFF4FF0829FB7AD
:10035000F8940B8FEA89FB8980818062CFCFCF939D
:10036000DF93EC01888D8823B9F0AA89BB89E889DD
:10037000F9898C9185FD03C0808186FD0DC00FB683
:1003800007FCF7CF8C9185FFF2CF808185FFEDCF01
:10039000CE010E944001E9CFDF91CF9108958330D3
:1003A00081F028F4813099F08230A9F008958730E7
:1003B000A9F08830C9F08430B1F4809180008F7D3D
:1003C00003C0809180008F7780938000089584B56A
:1003D0008F7784BD089584B58F7DFBCF8091B00069
:1003E0008F778093B00008958091B0008F7DF9CF12
:1003F0001F93CF93DF93282F30E0F901E255FF4F91
:100400008491F901E656FF4FD491F901EA57FF4F65
:10041000C491CC23A9F0162F81110E94CF01EC2F9B
:10042000F0E0EE0FFF1FE458FF4FA591B4918FB796
:10043000F894EC91111108C0D095DE23DC938FBFA6
:10044000DF91CF911F910895DE2BF8CFCF93DF93EB
:1004500090E0FC01E656FF4F24918A579F4FFC0124
:1004600084918823D1F090E0880F991FFC01EE5809
:10047000FF4FA591B491FC01E458FF4FC591D49171
:10048000623071F49FB7F8943C91822F809583235A
:100490008C93E8812E2B28839FBFDF91CF91089505
:1004A0008FB7F894EC912E2B2C938FBFF6CF3FB7DC
:1004B000F8948091D0029091D102A091D202B09193
:1004C000D30226B5A89B05C02F3F19F00196A11DA8
:1004D000B11D3FBFBA2FA92F982F8827BC01CD018E
:1004E000620F711D811D911D42E0660F771F881FED
:1004F000991F4A95D1F708958F929F92AF92BF921C
:10050000CF92DF92EF92FF924B015C010E94570263
:100510006B017C010E9457026C197D098E099F09AD
:10052000683E734081059105A8F321E0821A910885
:10053000A108B10888EEC80E83E0D81EE11CF11CAA
:1005400081149104A104B10429F7FF90EF90DF908A
:10055000CF90BF90AF909F908F9008950895209175
:100560008502260F3327331F21323105ECF4209109
:10057000A902FC0190E080E0243069F082E0089557
:10058000A09185022191AC014B595D4FA40FB52F6D
:10059000B11D2C930196861798F380918502680F00
:1005A0006093850280E0089581E008951092A90289
:1005B00081E08093AB021092AA0261E082E10E9486
:1005C000F80161E083E10E94F801E9EBF0E080814D
:1005D0008E7F808380818D7F808388E48093B800C4
:1005E00085E48093BC0008950895E091DB0280913A
:1005F000DA02E81730F4F0E0E15CFD4F808190E032
:1006000008958FEF9FEF08959091DB028091DA02B9
:100610002FEF3FEF981748F4E92FF0E0E15CFD4F32
:10062000208130E09F5F9093DB02C90108950F9312
:100630001F93CF93DF938C0186E894E00E9404031C
:100640008093E302C1E0D0E0C017D107ACF5809100
:10065000E7028823A1F02091E6028091E30290E076
:10066000281719063CF58091E4029091E502E0918B
:10067000E302E80FF92FF11D80818823D9F086E885
:1006800094E00E9404032091E0023091E102E091A5
:10069000E302E20FF32FF11D80838091E3028F5F6D
:1006A0008093E3029091E3028091E202981710F0A8
:1006B0001092E3022196C8CF9091E3028091E2026A
:1006C000981710F01092E302DF91CF911F910F91D4
:1006D00008958091DA029091DB02891B990B0895AD
:1006E000CF93DF93CB01EA01642F0E94AF02CE01CA
:1006F000DF91CF910895CF93DF931F92CDB7DEB7EF
:10070000698361E0CE0101960E94AF0281E090E032
:100710000F90DF91CF9108959091E3028091E202D2
:10072000981710F01092E3028091E0029091E1029C
:10073000E091E302E80FF92FF11D608186E894E073
:100740000E947B038091E3028F5F8093E302089510
:1007500090E080E0089568177907A9F08617970759
:1007600030F49B01281B390B2C38310560F06817D9
:10077000790738F49C01261B370B81E02C383105B2
:1007800008F080E0089581E008950F931F93CF93C0
:10079000DF93E0EBF0E08491ECE9F0E0D491E8E85D
:1007A000F0E0C491CC2309F4ABC081110E94CF01C9
:1007B000EC2FF0E0EE0FFF1FE859FF4FA591B49129
:1007C000EC91ED2331E020E009F430E0832F922F0B
:1007D00090933E0280933D0280913D0290913E02B3
:1007E000019709F090C00E945702009139021091C0
:1007F0003A0220913B0230913C02601B710B7093D6
:100800003802609337020E94570260933902709356
:100810003A0280933B0290933C0280913D0290917A
:100820003E02892B09F067C0609135027091360253
:100830008CE291E00E94AB03C0913402882309F45A
:1008400073C060913702709138028AEE96E00E9480
:10085000AB03882309F468C0C23019F081E08093AB
:100860003402609135027091360282EF97E00E9467
:10087000AB03C0913402882309F45CC06091370255
:100880007091380280EF95E00E94AB03882309F451
:1008900051C0C23009F054C06091350270913602E7
:1008A00080EC93E00E94AB03C091EC02882329F016
:1008B00080913402823009F447C060913502709112
:1008C00036028CEC91E00E94AB03811147C080910D
:1008D000EC028F3D81F4F8941092340281E0809311
:1008E000DF031092EC02109238021092370210923D
:1008F000360210923502DF91CF911F910F9108952A
:1009000090E080E065CF0E9457020091390210917B
:100910003A0220913B0230913C02601B710B7093B4
:100920003602609335026FCFC23009F49ACF10922D
:10093000340297CFC23009F4AFCF10923402ACCF5B
:1009400082E080933402A8CFEC2FF0E0E450FD4F1A
:1009500081E08083CF5FC093EC02B9CF80913402F5
:10096000823009F0B4CFEC2FF0E0E450FD4F10825C
:10097000F1CF1F93CF93DF93162FC42FD1E0682FB1
:100980006D2789E00E94F801612F6D2788E00E94A1
:10099000F8016C2F6D278AE0DF91CF911F910C94A5
:1009A000F801FC0101900020E9F73197AF01481BE5
:1009B000590BBC0189EE93E00C948C008F929F92AE
:1009C000AF92BF920F931F93CF93DF93CDB7DEB754
:1009D000A1970FB6F894DEBF0FBECDBF19A242306B
:1009E00008F44AE08E010F5D1F4F842E912CB12C2C
:1009F000A12CA50194010E94F00EE62FB901CA01B5
:100A0000EA30F4F4E05DD801EE938D01232B242B22
:100A1000252B79F790E080E0109719F0CD010E9426
:100A2000D104A1960FB6F894DEBF0FBECDBFDF9103
:100A3000CF911F910F91BF90AF909F908F9008958D
:100A4000E95CE1CF0C94D104CF93DF930E94D104F1
:100A5000EC0188E291E00E94D1048C0F9D1FDF9190
:100A6000CF910895CF93DF93682F70E090E080E0FE
:100A70004AE00E94DE04EC0188E291E00E94D10489
:100A80008C0F9D1FDF91CF9108954F925F926F92CF
:100A90007F928F929F92AF92BF92CF92DF92EF920E
:100AA000FF92CF93DF936B017C01942EAC019B01ED
:100AB0000E94EB0E882391F08BE291E0DF91CF91C1
:100AC000FF90EF90DF90CF90BF90AF909F908F906E
:100AD0007F906F905F904F900C94D1042601370166
:100AE000E89477F82FEF3FEF4FE75FE7C301B201DC
:100AF0000E94EB0E81110DC02FEF3FEF4FE75FE734
:100B0000C301B2010E94210D18161CF48FE291E07E
:100B1000D5CF2FEF3FEF4FE75FE4C701B6010E944B
:100B2000790E18161CF483E391E0C8CF2FEF3FEF46
:100B30004FE75FECC701B6010E94210D87FDF3CF9F
:100B400020E030E0A901C701B6010E94210DB12CBF
:100B5000A12C87FF0AC06DE289EE93E00E9462013A
:100B60005C01F7FAF094F7F8F094C92D60E070E0BA
:100B700080E09FE3D0E020E030E040E251E40E94DA
:100B8000260D21E02D0FD1E02915A8F3A70196012C
:100B90000E94B50C2B013C010E94980D6B017C0159
:100BA0000E94C70D9B01AC01C301B2010E94B40CAD
:100BB0002B013C014AE0C701B6010E94DE047C0122
:100BC0006EE289EE93E00E946201E80EF91EEA0CE3
:100BD000FB1CC15018F120E030E040E251E4C301B9
:100BE000B2010E947E0E2B013C010E94980D4B0128
:100BF000B12CA12C4AE0C501B4010E94DE04E80E2C
:100C0000F91EC501B4010E94C70D9B01AC01C301CF
:100C1000B2010E94B40C2B013C01DBCFC701DF9174
:100C2000CF91FF90EF90DF90CF90BF90AF909F90CB
:100C30008F907F906F905F904F900895CF93DF9348
:100C400085ED8093BC008091610290916202A09139
:100C50006302B09164020796A11DB11D23E0B69511
:100C6000A795979587952A95D1F72091BC0024FDEB
:100C700003C01092A90236C04091610250916202F5
:100C80006091630270916402452B462B472B69F3F8
:100C90000097A105B10541F025E32A95F1F7000081
:100CA0000197A109B109E1CF8091600291E0909391
:100CB0005F028823B9F0C091B800D091BA0080914A
:100CC000BC008A7B8093BC0060E082E10E94F80156
:100CD00060E083E10E94F8010E94D602D093BA003E
:100CE000C093B800DF91CF9108951F920F920FB675
:100CF0000F9211242F933F934F935F936F937F93A2
:100D00008F939F93AF93BF93EF93FF9389EE93E0FD
:100D10000E944001FF91EF91BF91AF919F918F9100
:100D20007F916F915F914F913F912F910F900FBEE7
:100D30000F901F9018951F920F920FB60F921124CB
:100D40002F938F939F93EF93FF93E091F903F0918B
:100D5000FA038081E091FF03F091000482FD1BC043
:100D60009081809102048F5F8F732091030482171A
:100D700041F0E0910204F0E0E751FC4F958F809341
:100D80000204FF91EF919F918F912F910F900FBED1
:100D90000F901F9018958081F4CF1F920F920FB67D
:100DA0000F9211242F933F938F939F93AF93BF93F1
:100DB0008091E8029091E902A091EA02B091EB02E1
:100DC0003091CF0223E0230F2D3758F50196A11D56
:100DD000B11D2093CF028093E8029093E902A09383
:100DE000EA02B093EB028091D0029091D102A091DF
:100DF000D202B091D3020196A11DB11D8093D00201
:100E00009093D102A093D202B093D302BF91AF913D
:100E10009F918F913F912F910F900FBE0F901F9038
:100E2000189526E8230F0296A11DB11DD2CF1F925F
:100E30000F920FB60F9211242F933F934F935F930E
:100E40006F937F938F939F93AF93BF93EF93FF9392
:100E5000E0910201F09103010995FF91EF91BF919B
:100E6000AF919F918F917F916F915F914F913F9142
:100E70002F910F900FBE0F901F9018951F920F92F9
:100E80000FB60F9211242F933F934F935F936F935D
:100E90007F938F939F93AF93BF93EF93FF93E091D3
:100EA0000001F09101010995FF91EF91BF91AF9180
:100EB0009F918F917F916F915F914F913F912F9172
:100EC0000F900FBE0F901F9018951F920F920FB6A4
:100ED0000F9211242F933F934F935F936F937F93C0
:100EE0008F939F93AF93BF93EF93FF938091B9003C
:100EF000887F803609F44AC0F0F5883209F4A7C02B
:100F000018F5803109F49BC0B8F4882309F4F9C0BE
:100F1000883009F494C0FF91EF91BF91AF919F91F8
:100F20008F917F916F915F914F913F912F910F9092
:100F30000FBE0F901F901895883109F488C0803239
:100F400051F78093A80214C0803409F49DC040F486
:100F50008033B9F38833F9F68093A80285ECB0C0EA
:100F6000803509F485C0883509F496C0883499F62F
:100F70000E941E06D0CF883909F48CC038F5883716
:100F800029F050F4883611F0803729F683E08093F9
:100F9000A9021092A70257C0883809F47BC0803993
:100FA00019F0803809F0B7CF8091A702803208F09D
:100FB00071C0E091A70281E08E0F8093A70280911B
:100FC000BB00F0E0E957FD4F80833DC0803B39F026
:100FD000E0F4803A09F479C0883A09F09CCF84E0C3
:100FE0008093A9021092860210928502E091D602A7
:100FF000F091D70209958091850281110FC081E09F
:10100000809385021092650209C0803C09F4A6CF46
:10101000883C09F4A3CF883B09F07DCFE09186029C
:1010200081E08E0F80938602F0E0EB59FD4F8081C6
:101030008093BB00909186028091850229C08091A7
:10104000CE028093BB0085EC8093BC0064CF90916E
:10105000CD028091CC02981758F5E091CD0281E045
:101060008E0F8093CD02F0E0E455FD4F8081E9CFF3
:10107000E091CD0281E08E0F8093CD028091BB0084
:10108000F0E0E455FD4F80839091CD028091CC0239
:101090009817C8F285E8D8CFE091CD0281E08E0F95
:1010A0008093CD028091BB00F0E0E455FD4F80833A
:1010B0008091AB0281115CCF81E08093AA0284EA27
:1010C0008093BC001092A90226CF85EC8093BC00CF
:1010D0001092A9028091A702803230F4E091A70219
:1010E000F0E0E957FD4F10826091A70270E0E091B7
:1010F000D402F091D50287E892E009951092A702F8
:101100000ACF1092A80234CFE9EEF3E013821282E4
:1011100088EE93E0A0E0B0E084839583A683B78354
:1011200028E031E03183208325EC30E035872487C7
:1011300024EC30E03787268720EC30E0318B208BA1
:1011400021EC30E0338B228B22EC30E0358B248B8A
:1011500026EC30E0378B268B118E128E138E148E78
:10116000E6E8F4E01382128284839583A683B78332
:101170008AE191E0918380830895CF93DF93CDB787
:10118000DEB72B970FB6F894DEBF0FBECDBF7894B5
:1011900084B5826084BD84B5816084BD85B582607C
:1011A00085BD85B5816085BD80916E00816080932D
:1011B0006E00109281008091810082608093810096
:1011C00080918100816080938100809180008160A6
:1011D000809380008091B10084608093B100809101
:1011E000B00081608093B00080917A008460809329
:1011F0007A0080917A00826080937A0080917A00F0
:10120000816080937A0080917A00806880937A0070
:101210001092C100E091F903F091FA0322E02083DB
:10122000E091F503F091F6031082E091F703F0915D
:10123000F80380E1808310920104E091FD03F091B6
:10124000FE0386E08083E091FB03F091FC03808144
:1012500080618083E091FB03F091FC0380818860D2
:101260008083E091FB03F091FC03808180688083A0
:10127000E091FB03F091FC0380818F7D808361E02E
:1012800088E00E94260261E089E00E94260261E077
:101290008AE00E94260240E061E080E00E94B904FA
:1012A00064EF71E080E090E00E947C0240E060E04A
:1012B00081E00E94B90464EF71E080E090E00E9458
:1012C0007C0241E060E080E00E94B90464EF71E0DC
:1012D00080E090E00E947C0240E061E080E00E94BB
:1012E000B90488E48093B8001092DB021092DA020D
:1012F0001092D9021092D8020E94D60289EB90E097
:101300009093D7028093D60285EC90E09093D5021B
:101310008093D40232E03093BA008DEE92E0909345
:10132000E1028093E0028FE08093E20287E193E0A4
:101330009093DF028093DE028CE893E09093DD02CD
:101340008093DC0262E082E00E94260285EC93E05A
:101350009093010180930001809169008C7F8160EE
:1013600080936900E89A87E391E00E9424058FB793
:10137000F894C090E802D090E902E090EA02F09080
:10138000EB028FBF8091E5039091E603A091E70304
:10139000B091E803A7019601281B390B4A0B5B0BA0
:1013A000DA01C901803A9648A140B10568F0C092BF
:1013B000E503D092E603E092E703F092E80340E011
:1013C00060E081E00E94B9048091E1039091E20322
:1013D000A091E303B091E403A7019601281B390B08
:1013E0004A0B5B0BDA01C901883E9340A105B105A8
:1013F00098F08091E003882379F0C092E503D092C1
:10140000E603E092E703F092E8031092E00340E085
:1014100061E080E00E94B9048091DF03813009F02F
:1014200096C230E020E090E080E0F901E450FD4F0A
:101430004081880F991F40FB662460F8712C862933
:1014400097292F5F3F4F2830310579F79093DE03BE
:101450008093DD0388E291E00E94D10482E491E070
:101460000E9422056091DD037091DE0390E080E030
:1014700040E10E94DE0488E291E00E94D10480E60F
:1014800090E01986FC01E450FD4F208121704985D0
:10149000440F422B498701968836910599F787E4D6
:1014A00091E00E94220589850E9432056091DD034A
:1014B0007091DE0380E0653F710509F5ADEEB2E0A5
:1014C00030E020E090E080E050E040E01A86FA0151
:1014D000E20FF31FE450FD4FE081E170FA85FF0F4A
:1014E000FE2BFA874F5F5F4F4830510581F7FD9320
:1014F0008F0F911D285F3F4F2036310529F78A87CE
:10150000A12C653F7105C1F480E790E0B12CA12CBE
:101510009C01285F3F4F40E0FC01E450FD4F5081AB
:101520005170440F452B019682179307A9F7A40E1B
:10153000B11C803D910561F786E591E00E9422058E
:101540008A850E94320581E691E00E9422058A2D5B
:101550000E94320529852093F9023A853093FA02D8
:101560008091DD039091DE03853F910509F0D2C1A2
:101570002313D0C12A11CEC144E250E05B874A87D1
:1015800090E080E070E060E0660F771FEA85FB8501
:10159000E450FD4F2081217029831A8229813A81EC
:1015A000622B732B880F991FEA85FB85E459FC4F4A
:1015B000208121702B831C824B815C81842B952B95
:1015C0002A853B852F5F3F4F3B872A872033310594
:1015D000D9F6812C912C54016817790771F4072EE4
:1015E000000C880B990B0E94C90D20E030E040E20E
:1015F00051E40E94260D4B015C0110E080E0EA8579
:10160000FB85E450FD4F90819170880F892BEA850E
:10161000FB85E459FC4F90819170110F192B4A857D
:101620005B854F5F5F4F5B874A874833510539F7CA
:1016300081131FEF90E080E070E060E0660F771F9D
:10164000EA85FB85E450FD4F208121702D831E82A9
:101650002D813E81622B732B880F991FEA85FB85B4
:10166000E459FC4F208121702F8318864F815885C3
:10167000842B952B2A853B852F5F3F4F3B872A87FD
:1016800028343105D9F6212C312C2101681779072E
:1016900061F490E080E00E94C70D20E030E043E17B
:1016A00054E40E94260D1B012C0180E290E0198673
:1016B00020E0FC01E450FD4F30813170220F232BDC
:1016C000FC01E459FC4F308131704985440F432BB4
:1016D000498701968432910561F7241711F05FEF75
:1016E000598788E590E01A8620E0FC01E450FD4F20
:1016F00030813170220F232BFC01E459FC4F3081E3
:101700003170FA85FF0FF32BFA8701968036910529
:1017100061F72F1711F02FEF2A8783EC91E00E94D9
:1017200022058DE691E00E94220541E050E0C501CE
:10173000B4010E94450584E292E00E9424058BE7F3
:1017400091E00E942205612F70E090E080E04AE085
:101750000E94DE0486E891E00E94240588E891E07A
:101760000E94220542E050E0C201B1010E944505FD
:101770008FE891E00E94240583E991E00E94220510
:1017800039853F3008F097C0E32FF0E0E653F44F7F
:101790000C94120FD90B5B0C460C5B0C490C5B0CC8
:1017A0004C0C5B0C4F0C5B0C520C5B0C550C5B0C2B
:1017B000580C8FE991E00E94220583EC91E00E9491
:1017C000220585EB91E00E9422058A850E94320560
:1017D00082EC91E00E94220585EC91E00E942205B6
:1017E00083EC91E00E9422051B861A861A85EA8501
:1017F000FB85E450FD4F608170E090E080E04AE0BE
:101800000E94DE048A85877E873031F0873221F09E
:10181000873411F0173621F481E392E00E9422050B
:101820004A855B854F5F5F4F5B874A87403751052D
:10183000E9F683EC91E00E9422051A858A859B8552
:10184000803E9105D9F1FC01E450FD4F608170E0CC
:1018500090E080E04AE00E94DE048A85877F873737
:1018600051F0912F977E973831F0973A21F0873CCD
:1018700011F0173D21F481E392E00E9422052A85B0
:101880003B852F5F3F4F3B872A87D7CF81EA91E087
:1018900092CF82EA91E08FCF84EA91E08CCF87EA01
:1018A00091E089CF89EA91E086CF8DEA91E083CFFC
:1018B0008CEA91E080CF8FEA91E07DCF82EC91E0DD
:1018C0000E94220581E08093FB0286E292E00E9462
:1018D00022058091DD039091DE0370E060E0853F9A
:1018E000910561F4EDEEF2E070E060E08191680F47
:1018F000711D49EF52E04E175F07C1F77727072E9A
:10190000000C880B990B4AE00E94DE0488E291E00B
:101910000E94D1046AE070E080E090E00E947C02C6
:101920001092FC021092DF031092EC02C092E103CD
:10193000D092E203E092E303F092E40381E080932B
:10194000E00341E060E080E00E94B904789480E028
:1019500090E0892B09F40BCD0E942C01882309F417
:1019600006CD0E94000003CD5058BB27AA270E9435
:10197000CC0C0C943F0E0E94310E38F00E94380EB1
:1019800020F039F49F3F19F426F40C942E0E0EF437
:10199000E095E7FB0C94280EE92F0E94500E58F3B7
:1019A000BA17620773078407950720F079F4A6F544
:1019B0000C94720E0EF4E0950B2EBA2FA02D0B0195
:1019C000B90190010C01CA01A0011124FF27591B84
:1019D00099F0593F50F4503E68F11A16F040A22F8A
:1019E000232F342F4427585FF3CF469537952795FB
:1019F000A795F0405395C9F77EF41F16BA0B620BFA
:101A0000730B840BBAF09150A1F0FF0FBB1F661F40
:101A1000771F881FC2F70EC0BA0F621F731F841F83
:101A200048F4879577956795B795F7959E3F08F0A9
:101A3000B0CF9395880F08F09927EE0F979587956B
:101A400008950E94040E08F481E008950E943A0D62
:101A50000C943F0E0E94380E58F00E94310E40F058
:101A600029F45F3F29F00C94280E51110C94730E49
:101A70000C942E0E0E94500E68F39923B1F3552357
:101A800091F3951B550BBB27AA2762177307840791
:101A900038F09F5F5F4F220F331F441FAA1FA9F327
:101AA00035D00E2E3AF0E0E832D091505040E69515
:101AB000001CCAF72BD0FE2F29D0660F771F881F76
:101AC000BB1F261737074807AB07B0E809F0BB0B69
:101AD000802DBF01FF2793585F4F3AF09E3F51057D
:101AE00078F00C94280E0C94730E5F3FE4F3983E4C
:101AF000D4F3869577956795B795F7959F5FC9F766
:101B0000880F911D9695879597F90895E1E0660FE6
:101B1000771F881FBB1F621773078407BA0720F05F
:101B2000621B730B840BBA0BEE1F88F7E0950895C8
:101B30000E94580E88F09F5798F0B92F9927B751F7
:101B4000B0F0E1F0660F771F881F991F1AF0BA9561
:101B5000C9F714C0B13091F00E94720EB1E008953F
:101B60000C94720E672F782F8827B85F39F0B93F31
:101B7000CCF3869577956795B395D9F73EF4909514
:101B80008095709561957F4F8F4F9F4F0895E89492
:101B900009C097FB3EF490958095709561957F4FB5
:101BA0008F4F9F4F9923A9F0F92F96E9BB27939563
:101BB000F695879577956795B795F111F8CFFAF473
:101BC000BB0F11F460FF1BC06F5F7F4F8F4F9F4FA4
:101BD00016C0882311F096E911C0772321F09EE802
:101BE000872F762F05C0662371F096E8862F70E068
:101BF00060E02AF09A95660F771F881FDAF7880F42
:101C00009695879597F90895990F0008550FAA0B97
:101C1000E0E8FEEF16161706E807F907C0F01216FF
:101C20001306E407F50798F0621B730B840B950B02
:101C300039F40A2661F0232B242B252B21F4089557
:101C40000A2609F4A140A6958FEF811D811D0895F4
:101C500097F99F6780E870E060E008959FEF80EC5F
:101C6000089500240A941616170618060906089502
:101C700000240A9412161306140605060895092E68
:101C80000394000C11F4882352F0BB0F40F4BF2BD7
:101C900011F460FF04C06F5F7F4F8F4F9F4F089517
:101CA00057FD9058440F551F59F05F3F71F047950D
:101CB000880F97FB991F61F09F3F79F087950895F2
:101CC000121613061406551FF2CF4695F1DF08C011
:101CD000161617061806991FF1CF8695710561052E
:101CE00008940895E894BB2766277727CB0197F9D6
:101CF00008950E94040E08F48FEF08950E94910E3B
:101D00000C943F0E0E94310E38F00E94380E20F0E5
:101D1000952311F00C94280E0C942E0E11240C9483
:101D2000730E0E94500E70F3959FC1F3950F50E013
:101D3000551F629FF001729FBB27F00DB11D639F7D
:101D4000AA27F00DB11DAA1F649F6627B00DA11D23
:101D5000661F829F2227B00DA11D621F739FB00DC9
:101D6000A11D621F839FA00D611D221F749F332739
:101D7000A00D611D231F849F600D211D822F762FD2
:101D80006A2F11249F5750409AF0F1F088234AF0AF
:101D9000EE0FFF1FBB1F661F771F881F915050401B
:101DA000A9F79E3F510580F00C94280E0C94730EF9
:101DB0005F3FE4F3983ED4F3869577956795B795A2
:101DC000F795E7959F5FC1F7FE2B880F911D9695BC
:101DD000879597F908950E94040E880B990B089532
:101DE000A1E21A2EAA1BBB1BFD010DC0AA1FBB1F1F
:101DF000EE1FFF1FA217B307E407F50720F0A21B91
:101E0000B30BE40BF50B661F771F881F991F1A94FD
:101E100069F760957095809590959B01AC01BD0127
:101E2000CF010895EE0FFF1F0590F491E02D099466
:041E3000F894FFCF54
:101E3400AE02AE020000000062018C00EF00AF01B0
:101E44002001FE001201000000007B037003A803C0
:101E5400F40269030403F5020D0A006E616E006961
:101E64006E66006F766600536574757020454E4447
:101E74000A0049443A200072656365697665642006
:101E84004352433A200063616C635F4352433A20F8
:101E94000063616C635F435243323A200054656DC2
:101EA40070657261747572653A200048756D696475
:101EB4006974793A2000250057696E643A20006DF0
:101EC4002F7300446972656374696F6E3A20004E23
:101ED400004E450053450053005357004E570045EC
:101EE40072726F72005261696E2070756C73653A1C
:101EF40020000A0A0020202020494420200909202B
:101F040020202020202020202020205020200920B4
:101F140020204469726563742020202020205465A9
:101F24006D70200920202020202048756D69646987
:101F340074792020202020092057696E64202020F5
:101F44002020202020090920202020205261696EB1
:101F54002009435243005245475F41727261792020
:041F64002D2000002C
:00000001FF
